:100B480075A15575A1AA43B98053B9BF75A155754B
:0E0B5800A1AAE5B954F84405F5B9E4F5A122C7
:100B6600EF4E601505A105A105A105A105A105A1E9
:0A0B760005A1EF1F70EA1E80E722C0
:100B9800AD07AC06ED4C600E7FE87E03120B66EDE8
:070BA8001D70F11C80EE221C
:0A0C050043C40C43C50C43AA10229F
:10099500C29FD29EC29DC2CDC2CC438780E4750B57
:1009A50082F50AF509F5087B0AFAF9F8AF0BAE0AE4
:1009B500AD09AC08120626AF038F0CAF0BAE0AAD1E
:1009C50009AC08E47B0AFAF9F81206268F0B8E0AA1
:1009D5008D098C08E50CC394054011EF2401F50B36
:1009E500E43EF50AE43DF509E43CF508E589540FD4
:1009F5004420F58943C9A0E50BF404F58DD28ED2C8
:030A050099D29CE7
:010A080022CB
:0A0C0F0075A15575A1AA43B110228A
:100BAF0075A15575A1AAEF600543B101800353B13B
:070BBF00FEE4F5A1F5FF22A1
:030C46008FFF22FB
:100B2900D29453924F4393B0439240439340E4F598
:0F0B3900FCEF700475FA6022BF030375FA68229F
:060C34008FF930FBFD22E8
:090C230075F9FF30FBFDAFF92269
:100BC60053924F53934F5392BF43934075FB6675B1
:060BD600FC8075FA80228C
:060C3A008FF930FBFD22E2
:060C400030FBFDAFF922BC
:100B030053504920466C6173682064656D6F207390
:100B130074617274202E2E2E0A0025303278200044
:060B2300646F6E650A001C
:10071A00120B487F147E00120B981209957BFF7A00
:10072A000B7903120065E4900200F0A3F090020036
:10073A00E0FEA3E0FD2400F58274003EF583EDF0AF
:10074A00900201E004F07006900200E004F09002CA
:10075A0000E0B402D8A3E0B400D3120B807F007E7D
:10076A00007D007C00120A52750C02750D00750E90
:10077A0001750F007510007F037E007D007C00125A
:10078A0007F0750C02750D00750E01750F007510D6
:10079A00007F007E007D007C0012035FE49002006F
:1007AA00F0A3F0900200E0FEA3E0FF7003EE640203
:1007BA0060297BFF7A0B791D74002FF58274003E45
:1007CA00F583E0750B00F50C120065900201E00458
:1007DA00F070D0900200E004F080C87BFF7A0B79B9
:0607EA002312006580FEF1
:0B0BFA0069643A3078253034780A0036
:100BDC00C2947F05120C34120C23900206EFF0D253
:010BEC009474
:010BED0022E5
:080C2C00120BDCEF20E0F922BD
:0A0C1900C2947F06120C34D294221C
:100A52008F0B8E0A8D098C08120C19120C2CC29461
:100A62007F20120C34E50BFFE50AFEE509FDE4FCEC
:100A720078101206B8120C34E50BFFE50AFEE4FD0D
:100A8200FC78081206B8120C34E50BFFE4120C34A1
:050A9200D294020C2CBF
:100A97008F1F8E1E8D1D8C1C120C19120C2CC294CC
:100AA7007F52120C34E51FFFE51EFEE51DFDE4FC39
:100AB70078101206B8120C34E51FFFE51EFEE4FDA0
:100AC700FC78081206B8120C34E51FFFE4120C3448
:050AD700D294020C2C7A
:08091A008F148E138D128C1155
:10092200120C19C2947F02120C34E514FFE513FE77
:10093200E512FDE4FC78101206B8120C34E514FF3F
:10094200E513FEE4FDFC78081206B8120C34E51437
:10095200FFE4120C34E4900204F0A3F0900204E0ED
:10096200FEA3E0FF65167003EE65156021AB17AAC2
:1009720018A9198F828E83120589FF120C349002F6
:1009820005E004F070D6900204E004F080CED29428
:03099200020C2C28
:0807F0008F0B8E0A8D098C08A5
:1007F800E4C39FFF74019400FE900202F0A3EFF09F
:10080800D3E50D9FE50C9E50059002028079AF0B51
:10081800AE0AAD09AC08900202E0F515A3E0F516A2
:10082800850E17850F1885101912091A900202E013
:10083800FAA3E0FB650D7003EA650C7001229002D3
:1008480002E0FEA3E0FF2510F510EE350FF50FE4EA
:10085800FCFDE50B2FF50BE50A3EF50AED3509F52C
:1008680009EC3508F508C3E50D9BF50DE50C9AF57F
:100878000CD3E50D9400E50C940190020240087435
:1008880001F0A3E4F08087E50CF0A3E50DF0020881
:010898001649
:080899008F258E248D238C2293
:1008A100E4900207F0A3F0C2947F03120C34E52513
:1008B100FFE524FEE523FDE4FC78101206B8120CD6
:1008C10034E525FFE524FEE4FDFC78081206B812A4
:1008D1000C34E525FFE4120C34E4900207F0A3F098
:1008E100900207E065267004A3E065276028120CDA
:1008F10023AB28AA29A92A900207E0FCA3E0F582EC
:100901008C83EF1205C8900208E004F070D29002C7
:0809110007E004F080CAD29453
:0109190022BB
:08035F008F0B8E0A8D098C083A
:10036700E50CC4F854F0C868900204F0E50DC454D5
:100377000F48A3F0850E11850F12851013C2947FC5
:100387000B120C34E50BFFE50AFEE509FDE4FC78EA
:10039700101206B8120C34E50BFFE50AFEE4FDFC6B
:1003A70078081206B8120C34E50BFFE4120C34E49B
:1003B700FF120C3475F9FF43FA10E4900202F0A320
:1003C700F0900204E0FEA3E0FF900202E06E7003EB
:1003D700A3E06F7003020583AB11AA12A913E5F915
:1003E7001205B674012513F513E43512F51230FB27
:1003F700FDAB11AA12A913E5F91205B6740125136D
:10040700F513E43512F51230FBFDAB11AA12A9134F
:10041700E5F91205B674012513F513E43512F51243
:1004270030FBFDAB11AA12A913E5F91205B6740149
:100437002513F513E43512F51230FBFDAB11AA12A3
:10044700A913E5F91205B674012513F513E435125E
:10045700F51230FBFDAB11AA12A913E5F91205B687
:1004670074012513F513E43512F51230FBFDAB11BA
:10047700AA12A913E5F91205B674012513F513E4B9
:100487003512F51230FBFDAB11AA12A913E5F912CB
:1004970005B674012513F513E43512F51230FBFD8B
:1004A700AB11AA12A913E5F91205B674012513F5C4
:1004B70013E43512F51230FBFDAB11AA12A913E5AF
:1004C700F91205B674012513F513E43512F5123048
:1004D700FBFDAB11AA12A913E5F91205B6740125A4
:1004E70013F513E43512F51230FBFDAB11AA12A96F
:1004F70013E5F91205B674012513F513E43512F562
:100507001230FBFDAB11AA12A913E5F91205B67457
:10051700012513F513E43512F51230FBFDAB11AAD3
:1005270012A913E5F91205B674012513F513E4357D
:1005370012F51230FBFDAB11AA12A913E5F912054A
:10054700B674012513F513E43512F51230FBFDAB34
:1005570011AA12A913E5F91205B674012513F513AB
:10056700E43512F51230FBFD900203E004F060035E
:100577000203C8900202E004F00203C853FAEFD264
:0105870094DF
:010588002250
:100A0900E4900202F0A3F0C2947F90120C34E4FF48
:100A1900120C34E4FF120C34E4FF120C34120C23D0
:100A2900900202E4F0A3EFF0E0F8E4F0E8900202AB
:100A3900F0120C23900202E0FEA3E04FFF900202A5
:080A4900EEF0FEA3EFF0D294E1
:010A51002282
:100B80007F03120B2975FB04120A098E0B8F0C7B55
:080B9000FF7A0B79FA020065FF
:03000000020BEE02
:0C0BEE00787FE4F6D8FD75812A02071A12
:10058900BB010CE58229F582E5833AF583E0225027
:1005990006E92582F8E622BBFE06E92582F8E22271
:0D05A900E58229F582E5833AF583E493228B
:1005B600BB010689828A83F0225002F722BBFE0124
:0205C600F3221E
:1005C800F8BB010DE58229F582E5833AF583E8F069
:1005D800225006E92582C8F622BBFE05E92582C815
:0205E800F222FD
:1005EA0075F008758200EF2FFFEE33FECD33CDCCC8
:1005FA0033CCC58233C5829BED9AEC99E58298404B
:10060A000CF582EE9BFEED9AFDEC99FC0FD5F0D627
:10061A00E4CEFBE4CDFAE4CCF9A88222B800C1B951
:10062A000059BA002DEC8BF084CFCECDFCE5F0CB8F
:10063A00F97818EF2FFFEE33FEED33FDEC33FCEBC8
:10064A0033FB10D703994004EB99FB0FD8E5E4F983
:10065A00FA227818EF2FFFEE33FEED33FDEC33FC70
:10066A00C933C910D7059BE99A4007EC9BFCE99A64
:10067A00F90FD8E0E4C9FAE4CCFB2275F010EF2FA9
:10068A00FFEE33FEED33FDCC33CCC833C810D707A9
:10069A009BEC9AE899400AED9BFDEC9AFCE899F8E4
:0E06AA000FD5F0DAE4CDFBE4CCFAE4C8F92277
:1006B800E8600FECC313FCED13FDEE13FEEF13FF20
:0306C800D8F12244
:10000300E517240BF8E60517227808300702780B6A
:10001300E475F0011206E40206CB2000EB7F2ED23A
:10002300008018EF540F2490D43440D4FF30040BD5
:10003300EF24BFB41A0050032461FFE518600215D2
:1000430018051BE51B7002051A30070D7808E475C7
:10005300F0011206E4EF0205B6020ADC7403D207CC
:100063008003E4C207F5178B088A09890AE4F518A7
:10007300F51AF51BE51860077F2012003E80F57521
:1000830019FFC201C200C202C203C205C206C208EE
:1000930012000CFF700D3007057F0012004FAF1BDD
:1000A300AE1A22B4255FC2D5C20412000CFF24D0BD
:1000B300B40A00501A75F00A781830D50508B6FF4F
:1000C3000106C6A426F620D5047002D20380D924E3
:1000D300CFB41A00EF5004C2E5D20402024FD2019A
:1000E30080C6D20080C0D20280BCD2D580BAD205ED
:1000F30080B47F2012003E2002077401B51800402F
:10010300F1120003FF12003E020077D208D20680EC
:1001130095120003FB120003FA120003F94A4B7015
:100123000679207A037BFF20022EE518602A7E00E1
:100133008E8275830012058960060EEE651970F0D4
:10014300C2D5EBC0E0EAC0E0E9C0E0EE120296D00F
:10015300E0F9D0E0FAD0E0FB1206CBFF60AAEBC0D7
:10016300E0EAC0E0E9C0E012003ED0E02401F9D0AB
:10017300E03400FAD0E0FBE5190460DCD519D9803E
:10018300877BFF7A027992D202809C791080027970
:1001930008C206C2088008D2D5790A8004790AC247
:1001A300D5E519047002F519E4FAFDFEFF12000308
:1001B300FC7B08200113120003FD7B1030000A12A0
:1001C3000003FE120003FF7B20EC3382D592D5504F
:1001D30013C3E43000069FFFE49EFEE42001039D69
:1001E300FDE49CFCE4CBF8C201EC700CCFCECDCC8B
:1001F300E824F8F870F38017C3EF33FFEE33FEED16
:1002030033FDEC33FCEB33FB994002FB0FD8E9EBF6
:10021300300105F8D0E0C448B201C0E00AEC4D4E0D
:100223004F78207B0070C2EAB5190040BCC0E012D1
:100233000298D0F0D0E0200104C4C0E0C4B201C0F1
:10024300F0120027D0F0D5F0EB0200771206F4018C
:100253001453018E5800E54C00E14201924F019A7C
:0F02630044019A4900FA4301A0550184460184E1
:100272004501844703405000E92D00ED2E01102B6B
:1002820000F123010E2003292A00A94800000108D9
:100292003F3F3F00790AA2D5200314300509B91067
:1002A200020404B9080104A2D52006025001042068
:1002B20002689202B518005034C0E07F2030031962
:1002C2007F30A20272067205500F1202EFC202C202
:1002D20006C205C2087F30800F300503E9C0E01274
:1002E200003E300503D0E0F9D0E0B518CC30051758
:1002F2007F30B9100C12003E7F583004077F78809F
:1003020003B9080312003E3002057F2D02003E7F32
:10031200202008F87F2B2006F322920280CF286E3D
:10032200756C6C2900D2011200033001F8C2017809
:100332001830D50108F60200A92D50434958120081
:10034200032403B405004001E490033B9312002F01
:0D035200743A12002FD20375180402018EB8
:1006CB00BB010689828A83E0225002E722BBFE022D
:0906DB00E32289828A83E4932260
:1006E400FAE6FB0808E6F925F0F618E6CA3AF62217
:1006F400D083D082F8E4937012740193700DA3A395
:1007040093F8740193F5828883E4737402936860A8
:06071400EFA3A3A380DFA8
:100ADC00EFB40A07740D120AE7740A309811A8993A
:100AEC00B8130CC2983098FDA899C298B811F6307A
:070AFC0099FDC299F5992252
:00000001FF
