:10061C0075A15575A1AA43B98053B9BF75A155757C
:0E062C00A1AAE5B954F84405F5B9E4F5A122F8
:10063A00EF4E601505A105A105A105A105A105A11A
:0A064A0005A1EF1F70EA1E80E722F1
:10065400AD07AC06ED4C600E7FE87E0312063AED62
:070664001D70F11C80EE2265
:0A068E0043C40C43C50C43AA10221C
:10054D00C29FD29EC29DC2CDC2CC438780E4750F9F
:10055D0082F50EF50DF50C7B0AFAF9F8AF0FAE0E1C
:10056D00AD0DAC0C12039BAF038F10AF0FAE0EADE4
:10057D000DAC0CE47B0AFAF9F812039B8F0F8E0E6B
:10058D008D0D8C0CE510C394054011EF2401F50F72
:10059D00E43EF50EE43DF50DE43CF50CE589540F14
:1005AD004420F58943C9A0E50FF404F58DD28ED210
:0305BD0099D29C34
:0105C0002218
:0A06980075A15575A1AA43B1102207
:10066B0075A15575A1AAEF600543B101800353B184
:07067B00FEE4F5A1F5FF22EA
:0306A2008FFF22A5
:1005C100557365722044656D6F2073746172742E6A
:1005D1002E2E0A004A756D7020746F204941502EED
:1005E1002E0A00557365722041505020576169747D
:0405F1002E2E0A00A0
:1004D200E4F50BF50AF509F50812061C7F057E0006
:1004E20012065412054D7BFF7A0579C1120065751B
:1004F20022007523E075240020C6107BFF7A05795F
:10050200D5120065AA23A92412043EE50B2401F5A5
:100512000BE4350AF50AE43509F509E43508F5086E
:100522007F407E0D7D037C00AB0BAA0AA909F8C3AC
:1005320012042D70C37BFF7A0579E4120065B2A222
:0B054200E4F50BF50AF509F50880ADA3
:0300000002068273
:0C068200787FE4F6D8FD7581240204D2D4
:10035F0075F008758200EF2FFFEE33FECD33CDCC55
:10036F0033CCC58233C5829BED9AEC99E5829840D8
:10037F000CF582EE9BFEED9AFDEC99FC0FD5F0D6B5
:10038F00E4CEFBE4CDFAE4CCF9A88222B800C1B9DF
:10039F000059BA002DEC8BF084CFCECDFCE5F0CB1D
:1003AF00F97818EF2FFFEE33FEED33FDEC33FCEB56
:1003BF0033FB10D703994004EB99FB0FD8E5E4F911
:1003CF00FA227818EF2FFFEE33FEED33FDEC33FCFE
:1003DF00C933C910D7059BE99A4007EC9BFCE99AF2
:1003EF00F90FD8E0E4C9FAE4CCFB2275F010EF2F37
:1003FF00FFEE33FEED33FDCC33CCC833C810D70737
:10040F009BEC9AE899400AED9BFDEC9AFCE899F871
:0E041F000FD5F0DAE4CDFBE4CCFAE4C8F92204
:10042D00EB9FF5F0EA9E42F0E99D42F0E89C45F025
:01043D00229C
:06043E008A838982E47349
:10000300E51B240FF8E6051B22780C300702780F56
:10001300E475F00112049C0204442000EB7F2ED20D
:10002300008018EF540F2490D43440D4FF30040BD5
:10003300EF24BFB41A0050032461FFE51C600215CE
:100043001C051FE51F7002051E30070D780CE475B3
:10005300F00112049CEF02048A0205F57403D2072F
:100063008003E4C207F51B8B0C8A0D890EE4F51C93
:10007300F51EF51FE51C60077F2012003E80F57515
:100083001DFFC201C200C202C203C205C206C208EA
:1000930012000CFF700D3007057F0012004FAF1FD9
:1000A300AE1E22B4255FC2D5C20412000CFF24D0B9
:1000B300B40A00501A75F00A781C30D50508B6FF4B
:1000C3000106C6A426F620D5047002D20380D924E3
:1000D300CFB41A00EF5004C2E5D20402024FD2019A
:1000E30080C6D20080C0D20280BCD2D580BAD205ED
:1000F30080B47F2012003E2002077401B51C00402B
:10010300F1120003FF12003E020077D208D20680EC
:1001130095120003FB120003FA120003F94A4B7015
:100123000679207A037BFF20022EE51C602A7E00DD
:100133008E8275830012045D60060EEE651D70F0FD
:10014300C2D5EBC0E0EAC0E0E9C0E0EE120296D00F
:10015300E0F9D0E0FAD0E0FB120444FF60AAEBC060
:10016300E0EAC0E0E9C0E012003ED0E02401F9D0AB
:10017300E03400FAD0E0FBE51D0460DCD51DD98036
:10018300877BFF7A027992D202809C791080027970
:1001930008C206C2088008D2D5790A8004790AC247
:1001A300D5E51D047002F51DE4FAFDFEFF12000300
:1001B300FC7B08200113120003FD7B1030000A12A0
:1001C3000003FE120003FF7B20EC3382D592D5504F
:1001D30013C3E43000069FFFE49EFEE42001039D69
:1001E300FDE49CFCE4CBF8C201EC700CCFCECDCC8B
:1001F300E824F8F870F38017C3EF33FFEE33FEED16
:1002030033FDEC33FCEB33FB994002FB0FD8E9EBF6
:10021300300105F8D0E0C448B201C0E00AEC4D4E0D
:100223004F78207B0070C2EAB51D0040BCC0E012CD
:100233000298D0F0D0E0200104C4C0E0C4B201C0F1
:10024300F0120027D0F0D5F0EB0200771204AC01D6
:100253001453018E5800E54C00E14201924F019A7C
:0F02630044019A4900FA4301A0550184460184E1
:100272004501844703405000E92D00ED2E01102B6B
:1002820000F123010E2003292A00A94800000108D9
:100292003F3F3F00790AA2D5200314300509B91067
:1002A200020404B9080104A2D52006025001042068
:1002B20002689202B51C005034C0E07F203003195E
:1002C2007F30A20272067205500F1202EFC202C202
:1002D20006C205C2087F30800F300503E9C0E01274
:1002E200003E300503D0E0F9D0E0B51CCC30051754
:1002F2007F30B9100C12003E7F583004077F78809F
:1003020003B9080312003E3002057F2D02003E7F32
:10031200202008F87F2B2006F322920280CF286E3D
:10032200756C6C2900D2011200033001F8C2017809
:100332001C30D50108F60200A92D5043495812007D
:10034200032403B405004001E490033B9312002F01
:0D035200743A12002FD203751C0402018EB4
:10044400BB010689828A83E0225002E722BBFE02B6
:09045400E32289828A83E49322E9
:10045D00BB010CE58229F582E5833AF583E0225054
:10046D0006E92582F8E622BBFE06E92582F8E2229E
:0D047D00E58229F582E5833AF583E49322B8
:10048A00BB010689828A83F0225002F722BBFE0151
:02049A00F3224B
:10049C00FAE6FB0808E6F925F0F618E6CA3AF62261
:1004AC00D083D082F8E4937012740193700DA3A3DF
:1004BC0093F8740193F5828883E4737402936860F3
:0604CC00EFA3A3A380DFF3
:1005F500EFB40A07740D120600740A309811A89911
:10060500B8130CC2983098FDA899C298B811F63065
:0706150099FDC299F599223D
:00000001FF
