:10EBE70075A15575A1AA43B98053B9BF75A15575CC
:0EEBF700A1AAE5B954F84405F5B9E4F5A12248
:10EC0500EF4E601505A105A105A105A105A105A169
:0AEC150005A1EF1F70EA1E80E72240
:10EC1F00AD07AC06ED4C600E7FE87E0312EC05ED00
:07EC2F001D70F11C80EE22B4
:0AEC5C0043C40C43C50C43AA102268
:10E9DD00C29FD29EC29DC2CDC2CC438780E4750F2B
:10E9ED0082F50EF50DF50C7B0AFAF9F8AF0FAE0EA8
:10E9FD00AD0DAC0C12E4ABAF038F10AF0FAE0EAD7F
:10EA0D000DAC0CE47B0AFAF9F812E4AB8F0F8E0E05
:10EA1D008D0D8C0CE510C394054011EF2401F50FFD
:10EA2D00E43EF50EE43DF50DE43CF50CE589540F9F
:10EA3D004420F58943C9A0E50FF404F58DD28ED29B
:03EA4D0099D29CBF
:01EA500022A3
:0AEC660075A15575A1AA43B1102253
:10EC360075A15575A1AAEF600543B101800353B1D3
:07EC4600FEE4F5A1F5FF2239
:03EC75008FFF22EC
:10EB00004941502044656D6F2073746172742E2EDC
:10EB10002E0A00736F66742072657365740A0012A2
:10EB2000011001FF8055084843E055000100000036
:10EB3000010902200001010080320904000002FFE7
:10EB400080550007058202400000070502024000D0
:01EB500000C4
:04EC700041008E00D1
:10EA5100A2AF9200C2AFCF54C0CFD3EF94FFEE94D8
:10EA6100EF4009EE94F450047C0480027C0875A107
:10EA71005575A1AAEC42B18E858F84758F80E4F51E
:10EA81008EE58630E6107586A6E58630E1047D02C6
:10EA91008006E4FD80027D0175A15575A1AAECF403
:09EAA10052B1A20092AFCFEDCFFB
:01EAAA002249
:10EAAB00A2AF9200C2AFD3EF94FFEE94EF4009EE0A
:10EABB0094F450047B0480027B0875A15575A1AAC0
:10EACB00EB42B18E858F84758F808D8EE58630E617
:10EADB001075869AE58630E1047C028006E4FC80A2
:10EAEB00027C0175A15575A1AAEBF452B1A200925B
:04EAFB00AFCFECCFDE
:01EAFF0022F4
:10EB51008E258F26E4F51DF51EE51E651C7004E566
:10EB61001D651B602B12E456FF852682852583E4F3
:10EB7100936F60037FFF220526E526700205257449
:10EB81000129F9E43AFA051EE51E70CD051D80C97B
:02EB91007F0003
:01EB9300225F
:0FEC4D0090004AEFF0E4A3F075D50253D4FC22F7
:10E7B0009000C6E0247F700302E88D14700302E825
:10E7C000A014700302E8D12403600302E8D490008F
:10E7D000C7E0751000F5119000C9E0FE9000C8E098
:10E7E000FDEDFFE48F158E14F513F512E5112515D7
:10E7F000FFE5103514FEE43513FDE43512FCEF247B
:10E80000FFFFEE34FFFEED34FFFDEC34FFFCE47B54
:10E8100040FAF9F812E4AB900094EEF0A3EFF09018
:10E82000008FE06E7003A3E06F601F900094E0FE25
:10E83000A3E0FF90008FEEF0A3EFF07806C333CE95
:10E8400033CED8F9FF12EA518F0DE50D703BF50E6E
:10E85000F50FE50F65117004E50E6510602BE50FEF
:10E860002515FFE50E3514FE74CA250FF5827400D8
:10E87000350EF583E0FD12EAAB8F0DE50D700A054C
:10E880000FE50F70CD050E80C9AF0D8049E49000F3
:10E8900094F0A3F074FF90008FF0A3F0E4FF8036B3
:10E8A0009000C9E0FE9000C8E0FDEDFFE48F158EFA
:10E8B00014F513F5129000C7E0751000F5117B01F7
:10E8C0007A0079CAE0751B00F51C12EB518F0D80A0
:09E8D0000502EC667FFE12EC4D1E
:01E8D900221C
:10E5C30020D90302E797E5D9543F700302E791246A
:10E5D300E0700302E73424FE603324F2603A242E11
:10E5E300600302E79420DE0302E79485DB0CAF0CA3
:10E5F3007E0078C67C007D017B017A00790A12E4F3
:10E60300309000997402F012E7B002E794E5D45415
:10E61300FC4402F5D402E79485DB0CE50C64086046
:10E623000302E70D900006E0900093F0900007E0EE
:10E633007009900093E0D3947F4006900093747F19
:10E64300F0E4F50C900000E05460600302E70D90E5
:10E653000001E0900096F024FB700302E6E124FD44
:10E66300700302E6EB14700302E701240360030264
:10E67300E70B900003E024FE601104701C7522FF79
:10E683007523EB75241F750C1280117522FF7523FA
:10E69300EB752431750C208003750CFF900093E01B
:10E6A300D3950C4003E50CF0900093E0FFC394086E
:10E6B30040047F0880008F0C7E0078007C007D0181
:10E6C300AB22AA23A92412E430900093E0C3950C53
:10E6D300F0E50C2524F524E43523F523802F900061
:10E6E30002E0900093F0802590008EE0900000F00F
:10E6F300900093E0C394014014750C01800F9000C7
:10E7030002E090008EF080058000750CFFE50CB4EC
:10E71300FF0B90009674FFF075DCCF8074E50CD38B
:10E7230094085005850CDD8003E4F5DD75DCC080BD
:10E7330060900096E024FB603F14704A900093E0E1
:10E74300FFC3940840047F0880008F0C7E0078008C
:10E753007C007D01AB22AA23A92412E4309000930C
:10E76300E0C3950CF0E50C2524F524E43523F523CB
:10E77300850CDD63DC408019E5E35480FF90009352
:10E78300E04FF5E38003E4F5DD75DC02800363DC31
:10E7930080C2D92230D81075DC0275D412E4F5E3B7
:0CE7A300C2DAC2D9C2D82230DA02C2DACF
:01E7AF002247
:10EB9400C2EAE4F5E275EB0C75ED0075EC0075E581
:10EBA4000075E40A75DC0275D412F5E375D180753D
:0CEBB400E22943D10175D8FF75E107226A
:10E96600E4F50BF50AF509F50812EBE77F057E00DD
:10E9760012EC1F12E9DD7BFF7AEB790012E066C22A
:10E98600AF439201439301E4900099F012EB941285
:10E99600E5C320900C7BFF7AEB791312E06612EC4C
:10E9A60066E50B2401F50BE4350AF50AE43509F5AD
:10E9B60009E43508F508E47F507EC3FDFCAB0BAADD
:10E9C6000AA909A808C312E53D70C4B2A2F50BF561
:07E9D6000AF509F50880B8FD
:0300000002E8DA39
:0CE8DA00787FE4F6D8FD75812602E92164
:10E36000E709F608DFFA8046E709F208DFFA803E9F
:10E3700088828C83E709F0A3DFFA8032E309F6088C
:10E38000DFFA8078E309F208DFFA807088828C83F4
:10E39000E309F0A3DFFA806489828A83E0A3F608A8
:10E3A000DFFA805889828A83E0A3F208DFFA804C82
:10E3B00080D280FA80C680D4806980F28033801059
:10E3C00080A680EA809A80A880DA80E280CA8033C2
:10E3D00089828A83ECFAE493A3C8C582C8CCC5833A
:10E3E000CCF0A3C8C582C8CCC583CCDFE9DEE7800A
:10E3F0000D89828A83E493A3F608DFF9ECFAA9F089
:10E40000EDFB2289828A83ECFAE0A3C8C582C8CCDE
:10E41000C583CCF0A3C8C582C8CCC583CCDFEADEF7
:10E42000E880DB89828A83E493A3F208DFF980CC59
:10E4300088F0EF60010E4E60C388F0ED2402B40452
:10E440000050B9F582EB2402B4040050AF232345F9
:06E45000822390E3B0738B
:10E45600BB010689828A83E0225002E722BBFE02C4
:09E46600E32289828A83E49322F7
:10E46F0075F008758200EF2FFFEE33FECD33CDCC64
:10E47F0033CCC58233C5829BED9AEC99E5829840E7
:10E48F000CF582EE9BFEED9AFDEC99FC0FD5F0D6C4
:10E49F00E4CEFBE4CDFAE4CCF9A88222B800C1B9EE
:10E4AF000059BA002DEC8BF084CFCECDFCE5F0CB2C
:10E4BF00F97818EF2FFFEE33FEED33FDEC33FCEB65
:10E4CF0033FB10D703994004EB99FB0FD8E5E4F920
:10E4DF00FA227818EF2FFFEE33FEED33FDEC33FC0D
:10E4EF00C933C910D7059BE99A4007EC9BFCE99A01
:10E4FF00F90FD8E0E4C9FAE4CCFB2275F010EF2F46
:10E50F00FFEE33FEED33FDCC33CCC833C810D70745
:10E51F009BEC9AE899400AED9BFDEC9AFCE899F880
:0EE52F000FD5F0DAE4CDFBE4CCFAE4C8F92213
:10E53D00EB9FF5F0EA9E42F0E99D42F0E89C45F034
:01E54D0022AB
:10E00400E51B240FF8E6051B22780C300702780F75
:10E01400E475F00112E58D02E4562000EB7F2ED268
:10E02400008018EF540F2490D43440D4FF30040BF4
:10E03400EF24BFB41A0050032461FFE51C600215ED
:10E044001C051FE51F7002051E30070D780CE475D2
:10E05400F00112E58DEF02E57B02EBC07403D207F9
:10E064008003E4C207F51B8B0C8A0D890EE4F51CB2
:10E07400F51EF51FE51C60077F2012E03F80F57553
:10E084001DFFC201C200C202C203C205C206C20809
:10E0940012E00DFF700D3007057F0012E050AF1F36
:10E0A400AE1E22B4255FC2D5C20412E00DFF24D0F7
:10E0B400B40A00501A75F00A781C30D50508B6FF6A
:10E0C4000106C6A426F620D5047002D20380D92402
:10E0D400CFB41A00EF5004C2E5D20402E250D201D8
:10E0E40080C6D20080C0D20280BCD2D580BAD2050C
:10E0F40080B47F2012E03F2002077401B51C004069
:10E10400F112E004FF12E03F02E078D208D2068068
:10E114009512E004FB12E004FA12E004F94A4B7091
:10E124000679217AE37BFF20022EE51C602A7E001B
:10E134008E8275830012E54E60060EEE651D70F04A
:10E14400C2D5EBC0E0EAC0E0E9C0E0EE12E297D04D
:10E15400E0F9D0E0FAD0E0FB12E456FF60AAEBC08D
:10E16400E0EAC0E0E9C0E012E03FD0E02401F9D0E9
:10E17400E03400FAD0E0FBE51D0460DCD51DD98055
:10E18400877BFF7AE27993D202809C7910800279AE
:10E1940008C206C2088008D2D5790A8004790AC266
:10E1A400D5E51D047002F51DE4FAFDFEFF12E0043E
:10E1B400FC7B0820011312E004FD7B1030000A12DE
:10E1C400E004FE12E004FF7B20EC3382D592D550AC
:10E1D40013C3E43000069FFFE49EFEE42001039D88
:10E1E400FDE49CFCE4CBF8C201EC700CCFCECDCCAA
:10E1F400E824F8F870F38017C3EF33FFEE33FEED35
:10E2040033FDEC33FCEB33FB994002FB0FD8E9EB15
:10E21400300105F8D0E0C448B201C0E00AEC4D4E2C
:10E224004F78207B0070C2EAB51D0040BCC0E012EC
:10E23400E299D0F0D0E0200104C4C0E0C4B201C02F
:10E24400F012E028D0F0D5F0EB02E07812E59DE181
:10E254001553E18F58E0E64CE0E242E1934FE19B35
:0FE2640044E19B49E0FB43E1A155E18546E1859B
:10E2730045E18547E34150E0EA2DE0EE2EE1112B25
:10E28300E0F223E10F20E32A2AE0AA480000E10993
:10E293003F3F3F00790AA2D5200314300509B91086
:10E2A300020404B9080104A2D52006025001042087
:10E2B30002689202B51C005034C0E07F203003197D
:10E2C3007F30A20272067205500F12E2F0C202C240
:10E2D30006C205C2087F30800F300503E9C0E01293
:10E2E300E03F300503D0E0F9D0E0B51CCC30051792
:10E2F3007F30B9100C12E03F7F583004077F7880DD
:10E3030003B9080312E03F3002057F2D02E03F7F8F
:10E31300202008F87F2B2006F322920280CF286E5C
:10E32300756C6C2900D20112E0043001F8C2017847
:10E333001C30D50108F602E0AA2D5043495812E0DB
:10E34300042403B405004001E490E33C9312E0305D
:0DE35300743A12E030D203751C0402E18F11
:10E8E60002E966E493A3F8E493A34003F68001F2F9
:10E8F60008DFF48029E493A3F85407240CC8C33333
:10E90600C4540F4420C8834004F456800146F6DF01
:10E91600E4800B010204081020408090EC70E47E35
:10E92600019360BCA3FF543F30E509541FFEE493F6
:10E93600A360010ECF54C025E060A840B8E493A3BD
:10E94600FAE493A3F8E493A3C8C582C8CAC583CAE8
:10E95600F0A3C8C582C8CAC583CADFE9DEE780BEA0
:01EC7400009F
:10E54E00BB010CE58229F582E5833AF583E0225082
:10E55E0006E92582F8E622BBFE06E92582F8E222CC
:0DE56E00E58229F582E5833AF583E49322E6
:10E57B00BB010689828A83F0225002F722BBFE017F
:02E58B00F32279
:10E58D00FAE6FB0808E6F925F0F618E6CA3AF6228F
:10E59D00D083D082F8E4937012740193700DA3A30D
:10E5AD0093F8740193F5828883E473740293686021
:06E5BD00EFA3A3A380DF21
:10EBC000EFB40A07740D12EBCB740A309811A899B0
:10EBD000B8130CC2983098FDA899C298B811F630B5
:07EBE00099FDC299F599228D
:00000001FF
