:104ABB0075A15575A1AA43B98053B9BF75A1557599
:0E4ACB00A1AAE5B954F84405F5B9E4F5A12215
:104B1300EF4E601505A105A105A105A105A105A1FC
:0A4B230005A1EF1F70EA1E80E722D3
:104B4600AD07AC06ED4C600E7FE87E03124B13ED0D
:074B56001D70F11C80EE222E
:0A2FF60043C40C43C50C43AA10228B
:1043F200C29FD29EC29DC2CDC2CC438780E4754883
:1044020082F547F546F5457B0AFAF9F8AF48AE471B
:10441200AD46AC451205AEAF038F49AF48AE47ADCE
:1044220046AC45E47B0AFAF9F81205AE8F488E478E
:104432008D468C45E549C394054011EF2401F548AA
:10444200E43EF547E43DF546E43CF545E589540F85
:104452004420F58943C9A0E548F404F58DD28ED2F3
:0344620099D29C50
:014465002234
:0A4BFD0075A15575A1AA43B110225D
:104B5D0075A15575A1AAEF600543B101800353B14D
:074B6D00FEE4F5A1F5FF22B3
:034C33008FFF22CE
:104A5E00D29453924F4393B0439240439340E4F524
:0F4A6E00FCEF700475FA6022BF030375FA68222B
:064C21008FF930FBFD22BB
:094C110075F9FF30FBFDAFF9223B
:104B8B0053924F53934F5392BF43934075FB6675AC
:064B9B00FC8075FA802287
:064C27008FF930FBFD22B5
:064C2D0030FBFDAFF9228F
:102EAD005468652061637469766520706172742061
:102EBD006973205041525431210D0A005468652028
:102ECD006163746976652070617274206973205036
:102EDD0041525432210D0A005468652061637469B2
:102EED00766520706172742069732050415254339D
:102EFD00210D0A0054686520616374697665207040
:102F0D00617274206973205041525434210D0A00AE
:102F1D004572726F723A20253032580A00534420A0
:102F2D00436172642064656D6F20737461727420E7
:102F3D002E2E2E0A005761697420534420496E735A
:102F4D006572742E2E2E0A004465746563742074A8
:102F5D00686520436172640A005761697420446991
:102F6D00736B52656164790A00253032780A00432B
:102F7D0072656174650A002F4E455746494C452EC2
:102F8D00545854004279746557726974650A004E3D
:102F9D006F74653A200D0AD5E2B8F6B3CCD0F2CAFB
:102FAD00C7D2D4D7D6BDDACEAAB5A5CEBBBDF8D083
:102FBD00D055C5CCCEC4BCFEB6C1D0B42C35343939
:102FCD00BCF2B5A5D1DDCABEB9A6C4DCA1A30D0A5C
:102FDD0000B3C9B9A6D0B4C8EB2025303258B4CE51
:092FED000A00436C6F73650A00D1
:010FFE0022D0
:10499E00124C45EFC3941050037FFF227E007F80A0
:1049AE008E388F39900280EEF0A3EFF0E4F5337578
:1049BE0044097522029002A0120704000000007F35
:0249CE000022C5
:034C36007F0022DA
:034C39007F0022D7
:010FFF0022CF
:034C3C007F0022D4
:034C3F007F0022D1
:034C42007F0022CE
:104B2D00124A7DBF010DE533C39402500375330264
:094B3D007F00227533017F16226E
:10493200CBEFCBCFEDCFCEECCEEFC0E0852D4A85CD
:104942002C49852B48852A47CFEBCF754B008F4CDE
:10495200D0E0FF1232028F3BE53B7004F53B80034F
:06496200753B1FAF3B2274
:10496800CBEFCBCFEDCFCEECCEEFC0E0852D4A8597
:104978002C49852B48852A47CFEBCF754B008F4CA8
:10498800D0E0FF1222F08F3BE53B7004F53B80033B
:06499800753B1FAF3B223E
:10144600121C38900069EFF06003E0FF22E4F52DEE
:10145600F52CF52BF52AAD39AC387F0112493290BF
:101466000069EFF0853982853883E0B4EB12A3A3D7
:10147600E0B4900CE4F52DF52CF52BF52A0217CBEC
:10148600E53924C7F582E5383401F583E0FFE4FC4D
:10149600FDFE7808120672C8ECC8C9EDC9CAEECAC4
:1014A600CBEFCBE53924C6F582E5383401F583E088
:1014B600FFE4FCFDFEEB2FFFEE3AFEED39FDEC38C6
:1014C600FCECC0E0EDC0E0EEC0E0EFC0E0E53924A2
:1014D600C8F582E5383401F583E0FFE4FCFDFE78CB
:1014E60010120672D0E0FBD0E0FAD0E0F9D0E0F8B6
:1014F600EB2FFFEA3EFEE93DFDE83CFCECC0E0EDEB
:10150600C0E0EEC0E0EFC0E0E53924C9F582E53879
:101516003401F583E0FFE4FCFDFE7818120672D074
:10152600E0FBD0E0FAD0E0F9D0E0F8EB2FF52DEAB9
:101536003EF52CE93DF52BE83CF52AAF2DAE2CAD5A
:101546002BFC4D4E4F60097BFF7A2E79AD0217C3F7
:10155600E53924D7F582E5383401F583E0FFE4FC6C
:10156600FDFE7808120672C8ECC8C9EDC9CAEECAF3
:10157600CBEFCBE53924D6F582E5383401F583E0A7
:10158600FFE4FCFDFEEB2FFFEE3AFEED39FDEC38F5
:10159600FCECC0E0EDC0E0EEC0E0EFC0E0E53924D1
:1015A600D8F582E5383401F583E0FFE4FCFDFE78EA
:1015B60010120672D0E0FBD0E0FAD0E0F9D0E0F8E5
:1015C600EB2FFFEA3EFEE93DFDE83CFCECC0E0ED1A
:1015D600C0E0EEC0E0EFC0E0E53924D9F582E53899
:1015E6003401F583E0FFE4FCFDFE7818120672D0A4
:1015F600E0FBD0E0FAD0E0F9D0E0F8EB2FF52DEAE9
:101606003EF52CE93DF52BE83CF52AAF2DAE2CAD89
:101616002BFC4D4E4F60097BFF7A2E79C90217C30A
:10162600E53924E7F582E5383401F583E0FFE4FC8B
:10163600FDFE7808120672C8ECC8C9EDC9CAEECA22
:10164600CBEFCBE53924E6F582E5383401F583E0C6
:10165600FFE4FCFDFEEB2FFFEE3AFEED39FDEC3824
:10166600FCECC0E0EDC0E0EEC0E0EFC0E0E5392400
:10167600E8F582E5383401F583E0FFE4FCFDFE7809
:1016860010120672D0E0FBD0E0FAD0E0F9D0E0F814
:10169600EB2FFFEA3EFEE93DFDE83CFCECC0E0ED49
:1016A600C0E0EEC0E0EFC0E0E53924E9F582E538B8
:1016B6003401F583E0FFE4FCFDFE7818120672D0D3
:1016C600E0FBD0E0FAD0E0F9D0E0F8EB2FF52DEA18
:1016D6003EF52CE93DF52BE83CF52AAF2DAE2CADB9
:1016E6002BFC4D4E4F60097BFF7A2E79E50217C31E
:1016F600E53924F7F582E5383401F583E0FFE4FCAB
:10170600FDFE7808120672C8ECC8C9EDC9CAEECA51
:10171600CBEFCBE53924F6F582E5383401F583E0E5
:10172600FFE4FCFDFEEB2FFFEE3AFEED39FDEC3853
:10173600FCECC0E0EDC0E0EEC0E0EFC0E0E539242F
:10174600F8F582E5383401F583E0FFE4FCFDFE7828
:1017560010120672D0E0FBD0E0FAD0E0F9D0E0F843
:10176600EB2FFFEA3EFEE93DFDE83CFCECC0E0ED78
:10177600C0E0EEC0E0EFC0E0E53924F9F582E538D7
:101786003401F583E0FFE4FCFDFE7818120672D002
:10179600E0FBD0E0FAD0E0F9D0E0F8EB2FF52DEA47
:1017A6003EF52CE93DF52BE83CF52AAF2DAE2CADE8
:1017B6002BFC4D4E4F600B7BFF7A2F79011208E20E
:0A17C60080037F91227533057F0038
:0117D00022F6
:104BA100EF60107BFF7A2F791D7548008F4912083D
:044BB100E280FE227E
:103A7900124ABB7F147E00124B461243F27BFF7A37
:103A89002F792A1208E212499E7BFF7A2F79421276
:103A990008E2124B2DE533C3940240F6E533640284
:103AA900704D7BFF7A2F79551208E27F327E001222
:103AB9004B46E4900066F07BFF7A2F79661208E2A4
:103AC900121446900067EFF0700280237BFF7A2F73
:103AD9007976900067E0754800F5491208E27F326F
:103AE9007E00124B46900066E004F0E0B40AC8E597
:103AF90033C39405409C7BFF7A2F797C1208E278C6
:103B0900617C007D007BFF7A2F79841208371228A7
:103B190000900067EFF0124BA17BFF7A2F79911289
:103B290008E27548FF75492F754A9C7B017A00792F
:103B3900021208DC900066EFF0E4900068F0900053
:103B490066E0FF7861E4F608EFF6087400F6087499
:103B590002F6122000900067EFF0124BA17BFF7A6A
:103B69002F79DE900068E0754800F5491208E29067
:103B79000068E004F0E0C3940A40C37BFF7A2F7920
:103B8900EF1208E278617601124466900066EFF060
:0E3B9900124BA1124B2DE533B401F8023A9BFA
:1040BF00434D44303A0A00434D44383A0A00253004
:1040CF003278202530327820253032782025303252
:1040DF00780A00474554204F43523A0A0043617211
:1040EF006420547970653A3078253032780A004769
:1040FF004554204353443A0A002530327820000AB1
:10410F0000637364207374727563742076320A00CF
:10411F00637364207374727563742076310A00734D
:10412F00645F696E666F2E626C6F636B5F6C656E3A
:10413F00203D2025640A0073645F696E666F2E62EE
:10414F006C6F636B5F6E756D203D20256C640A008C
:10415F006361706162696C697479203D2020256606
:04416F0020470A00DB
:074BD50014F5828E83E0FF5E
:084BDC008FF930FBFDAFF92257
:083DCC007C027DB57A007B6EDC
:063DD4008A4D8B4EA90789
:103DDA00E9543F4440FF124BDC8D828C83E0FF1292
:103DEA004BDCA3E0FF124BDC8D828C83A3A3E0FFA4
:103DFA00124BDC8D828C83A3A3A3E0FF124BDCE978
:103E0A0070047F958009B908047F8780027FFF12BA
:103E1A004BDCB90C057FFF124BDC9002C912070478
:103E2A00000000007FFF124BDC90006FEFF0FB9068
:103E3A0002C9E0FCA3E0FDA3E0FEA3E02401FFE445
:103E4A003EFEE43DFDE43CFC9002C91206DFEB3085
:103E5A00E71C7FFF7EFF7D037C009002C9E0F8A388
:103E6A00E0F9A3E0FAA3E0FBC312064E40B67FFFD7
:103E7A007EFF7D037C009002C9E0F8A3E0F9A3E08D
:103E8A00FAA3E0FBC312064E40037F6A2290006F3A
:103E9A00E0FF854E82854D83F0EF30E2037F6B228F
:103EAA0090006FE0FE30E6037F6C22EE30E3037F82
:043EBA006D227F00F6
:013EBE0022E1
:1047CC00D2949002C912070400000000E47F0AFE94
:1047DC00FDFC9002C9E0F8A3E0F9A3E0FAA3E0FB2A
:1047EC00C312064E60267FFF124BDC9002C9E0FC20
:1047FC00A3E0FDA3E0FEA3E02401FFE43EFEE43DC4
:0D480C00FDE43CFC9002C91206DF80C022D2
:0417D1008E458F466C
:1017D5007E007F047D007B017A0279B5120854C230
:1017E500947C027DB5AB46AA45E4FF123DD490003A
:0517F5006DEFF0D2943D
:0117FA0022CC
:044173008E458F46A0
:10417700E49002B5F0A3F0A304F0A374AAF0C294EC
:104187007C027DB57A007B6E7F08123DD490006D6E
:10419700EFF0705E9002C912070400000000E47F90
:1041A70004FEFDFC9002C9E0F8A3E0F9A3E0FAA33E
:1041B700E0FBC312064E503A7FFF124BDC9002C958
:1041C700A3A3E0FEA3E02546F582E5453EF583EF90
:1041D700F09002C9E0FCA3E0FDA3E0FEA3E0240108
:1041E700FFE43EFEE43DFDE43CFC9002C91206DF1D
:0941F70080ACD29490006DE0FF51
:01420000229B
:043602008E458F461C
:103606007E007F047D007B017A0279B51208549012
:1036160002C9120704000000007FFF7EFF7D037CC5
:10362600009002C9E0F8A3E0F9A3E0FAA3E0FBC327
:1036360012064E700302374B7E007F047D007B012D
:103646007A0279B5120854C2947F37123DCC9000A5
:103656006DEFF0D29460030237269002CEE0B402FA
:10366600089002B57440F08005E49002B5F090022F
:10367600B674FFF0A37480F0E4A3F0C2947F29121D
:103686003DCC90006DEFF0D294700BA3E030E003D8
:1036960002372902374B90006DE0646B60030237F6
:1036A600E39002CEE06401600302374BF09002C95A
:1036B600120704000000007FFF7EFF7D037C009060
:1036C60002C9E0F8A3E0F9A3E0FAA3E0FBC31206FF
:1036D6004E60727E007F047D007B017A0279B5120E
:1036E6000854C2947C027DB57A007B6E7F01123D40
:1036F600D490006DEFF0D2947005A3E030E04690D0
:1037060002C9E0FCA3E0FDA3E0FEA3E02401FFE480
:103716003EFEE43DFDE43CFC9002C91206DF8097C4
:103726000237E39002C9E0FCA3E0FDA3E0FEA3E0BC
:103736002401FFE43EFEE43DFDE43CFC9002C91298
:1037460006DF02361F7E007F047D007B017A027948
:10375600B5120854C2947C027DB57A007B6E7F3A1E
:10376600123DD490006DEFF070719002C9120704FB
:1037760000000000E47F04FEFDFC9002C9E0F8A30F
:10378600E0F9A3E0FAA3E0FBC312064E503A7FFF2E
:10379600124BDC9002C9A3A3E0FEA3E02546F58206
:1037A600E5453EF583EFF09002C9E0FCA3E0FDA3FA
:1037B600E0FEA3E02401FFE43EFEE43DFDE43CFC24
:1037C6009002C91206DF80AC854682854583E030CB
:1037D600E70930E6069002CE7403F0D29490006DAD
:0237E600E0FF02
:0137E80022BE
:043CBB008E458F465D
:103CBF007E007F047D007B017A0279B5120854C221
:103CCF00947C027DB57A007B6E7F09123DD4900003
:103CDF006DEFF06005D294E0FF229002C912070445
:103CEF00000000007FFF124BDC90006DEFF0FB90A7
:103CFF0002C9E0FCA3E0FDA3E0FEA3E02401FFE482
:103D0F003EFEE43DFDE43CFC9002C91206DFEB648D
:103D1F00FE601C7FFF7EFF7D037C009002C9E0F8F0
:103D2F00A3E0F9A3E0FAA3E0FBC312064E40B57F70
:103D3F00FF7EFF7D037C009002C9E0F8A3E0F9A3AA
:103D4F00E0FAA3E0FBC312064E4005D2947F6A222D
:103D5F009002C912070400000000E47F10FEFDFC72
:103D6F009002C9E0F8A3E0F9A3E0FAA3E0FBC312C5
:103D7F00064E503A7FFF124BDC9002C9A3A3E0FE20
:103D8F00A3E02546F582E5453EF583EFF09002C9A5
:103D9F00E0FCA3E0FDA3E0FEA3E02401FFE43EFE70
:103DAF00E43DFDE43CFC9002C91206DF80AC7FFFCE
:0C3DBF00124BDC7FFF124BDCD2947F0023
:013DCB0022D5
:084673008F488E478D468C45EF
:10467B00781812065F9002B5EFF0AF48AE47AD4623
:10468B00AC45781012065FA3EFF0AF48AE47AD46CE
:10469B00AC45780812065FA3EFF0E548FFA3EFF0F7
:1046AB00C2947C027DB57A007B6E7F10123DD49054
:1046BB00006DEFF0A3E0600490006DF0D2949000D9
:0346CB006DE0FFA0
:0146CE0022C9
:0417FB0075FB062252
:104A7D0030B407E49002CDF0FF227F017E00124B8F
:0F4A8D001320B4089002CD7401F0FF227F0022A5
:101C3800124A7DEF70037F70227E007F0D7D007B4E
:101C4800017A0279CD1208547F03124A5E75FB406F
:101C58001247CC7BFF7A4079BF1208E27E027FB937
:101C68001217D19002B9E0640160037FFE227BFF66
:101C78007A4079C61208E27E027FB9124173900059
:101C88006AEFF0BF6B089002CE7401F0804F9000AD
:101C98006AE070437BFF7A4079CD9002B9E07548DD
:101CA80000F549A3E0754A00F54BA3E0754C00F533
:101CB8004DA3E0754E00F54F1208E29002BBE0B468
:101CC800010DA3E0B4AA089002CE7402F0800E9031
:101CD80002CE7404F0800690006AE0FF227BFF7A4F
:101CE8004079E21208E27E027FB91236027BFF7A5F
:101CF8004079EC9002CEE0754800F5491208E27B85
:101D0800FF7A4079FE1208E27E027FB9123CBB904E
:101D1800006AEFF06003E0FF22E490006AF09000B0
:101D28006AE0FF641060217BFF7A41790874B92F5B
:101D3800F582E43402F583E0754800F5491208E2BB
:101D480090006AE004F080D67BFF7A41790E120891
:101D5800E29002B9E0FD30E7037F6E229002BEE018
:101D6800540FFF74017E00A807088005C333CE33E3
:101D7800CED8F9FF9002D0EEF0A3EFF0C3EE9402B4
:101D880050037F6F22ED20E603021E437BFF7A415A
:101D980079101208E29002C0E0543FFFE4FCFDFE17
:101DA80078101206729002D21206DF9002D2E0F882
:101DB800A3E0F9A3E0FAA3E0FBC0009002C1E0FFB2
:101DC800E4FCFDFE7808120672D000EB2FFFEA3E15
:101DD800FEE93DFDE83CFC9002D21206DF9002D2FB
:101DE800E0F8A3E0F9A3E0FAA3E0FB9002C2E0FF69
:101DF800E4FCFDFEEB2FFFEE3AFEED39FDEC38FC7E
:101E08009002D21206DF9002D2E0FCA3E0FDA3E02C
:101E1800FEA3E02401FFE43EFEE43DFDE43CFC902B
:101E280002D21206DF9002D2E0FCA3E0FDA3E0FE9E
:101E3800A3E0FF780A120672021F3E7BFF7A4179FF
:101E48001F1208E29002C2E0540325E0FEE433903A
:101E5800006BF0A3CEF09002C3E05480C4131313B8
:101E680054012402FFE433FE90006CE02FF0900050
:101E78006BE03EF09002BFE054037F0025E025E0D0
:101E8800FE3395E0FDFC9002D21206DF9002D2E00C
:101E9800F8A3E0F9A3E0FAA3E0FB9002C0E075F034
:101EA80004A4FFAEF0EE3395E0FDFCEB2FFFEA3E15
:101EB800FEE93DFDE83CFC9002D21206DF9002D21A
:101EC800E0F8A3E0F9A3E0FAA3E0FB9002C1E05434
:101ED800C0C413135403FFE4FCFDFEEB2FFFEE3ADE
:101EE800FEED39FDEC38FC9002D21206DF9002D2EA
:101EF800E0FCA3E0FDA3E0FEA3E02401FFE43EFE36
:101F0800E43DFDE43CFCC004C005C006C0079000E9
:101F18006BA3E0FF74017E00A807088005C333CED9
:101F280033CED8F9FFEE3395E0FDFCD003D002D0D4
:101F380001D0001205239002D21206DFE4FB7A04D6
:101F4800F9F89002D2E0FCA3E0FDA3E0FEA3E0FFD5
:101F58001205AEA804A905AA06AB079002D0E0FEB8
:101F6800A3E0FFE4FCFD1205239002D61206DF7BF6
:101F7800FF7A41792E9002D0E0F548A3E0F54912A6
:101F880008E27BFF7A4179469002D2E0FCA3E0FDAB
:101F9800A3E0FEA3E0F54B8E4A8D498C481208E277
:101FA800E4FB7A04F9F89002D6E0FCA3E0FDA3E094
:101FB800FEA3E0FF1205AEE41200A3E4FBFA798069
:101FC80078441200068F4B8E4A8D498C487BFF7AE5
:101FD80041795F1208E27F007E027D007C00124694
:101FE8007390006AEFF06003E0FF221217FB900283
:061FF800CF7401F07F0030
:011FFE0022C0
:0437E9008E088F09AE
:1037ED009002CEE064036015AF0DAE0CAD0BAC0ACC
:1037FD0078091206728F0D8E0C8D0B8C0AAF0DAEE3
:10380D000CAD0BAC0A781812065F9002B5EFF0AF55
:10381D000DAE0CAD0BAC0A781012065FA3EFF0AF36
:10382D000DAE0CAD0BAC0A780812065FA3EFF0E5F8
:10383D000DFFA3EFF0C2947C027DB57A007B757FFE
:10384D0011123DD4900074EFF06005D294E0FF2288
:10385D009002C9120704000000007FFF124BDC909C
:10386D000074EFF0FB9002C9E0FCA3E0FDA3E0FEC5
:10387D00A3E02401FFE43EFEE43DFDE43CFC9002A8
:10388D00C91206DFEB64FE601C7FFF7EFF7D037CAB
:10389D00009002C9E0F8A3E0F9A3E0FAA3E0FBC3AE
:1038AD0012064E40B57FFF7EFF7D037C009002C95E
:1038BD00E0F8A3E0F9A3E0FAA3E0FBC312064E4043
:1038CD0005D2947F6A229002C912070400000000FD
:1038DD00E4FF7E02FDFC9002C9E0F8A3E0F9A3E04D
:1038ED00FAA3E0FBC312064E50377FFF124BDC05E7
:1038FD0009E509AC087002050814F5828C83EFF018
:10390D009002C9E0FCA3E0FDA3E0FEA3E02401FFCB
:10391D00E43EFEE43DFDE43CFC9002C91206DF806E
:0F392D00AF7FFF124BDC7FFF124BDCD2947F0089
:01393C002268
:043202008E458F4620
:103206009002CEE064036015AF4AAE49AD48AC47C4
:1032160078091206728F4A8E498D488C47AF4AAE9E
:1032260049AD48AC47781812065F9002B5EFF0AF8B
:103236004AAE49AD48AC47781012065FA3EFF0AF2F
:103246004AAE49AD48AC47780812065FA3EFF0E5F1
:103256004AFFA3EFF0C2947C027DB57A007B6E7FB5
:1032660012123DD490006DEFF06003023383E54CFB
:10327600154CAE4B7002154B4E7003023360900234
:10328600C9120704000000007FFF124BDC90006D9E
:10329600EFF0FB9002C9E0FCA3E0FDA3E0FEA3E093
:1032A6002401FFE43EFEE43DFDE43CFC9002C9122D
:1032B60006DFEB64FE601C7FFF7EFF7D037C0090D3
:1032C60002C9E0F8A3E0F9A3E0FAA3E0FBC3120603
:1032D6004E40B57FFF7EFF7D037C009002C9E0F87B
:1032E600A3E0F9A3E0FAA3E0FBC312064E400302F3
:1032F60033F89002C912070400000000E4FF7E02C2
:10330600FDFC9002C9E0F8A3E0F9A3E0FAA3E0FB14
:10331600C312064E50377FFF124BDC0546E546AC1E
:10332600457002054514F5828C83EFF09002C9E0E2
:10333600FCA3E0FDA3E0FEA3E02401FFE43EFEE4DF
:103346003DFDE43CFC9002C91206DF80AF7FFF1210
:103356004BDC7FFF124BDC0232747E007F047D0063
:103366007B017A0279B51208547C027DB57A007B1E
:103376006E7F0C123DD490006DEFF06005D294E0A4
:10338600FF229002C9120704000000007FFF124BC3
:10339600DC90006DEFF0FB9002C9E0FCA3E0FDA31A
:1033A600E0FEA3E02401FFE43EFEE43DFDE43CFC38
:1033B6009002C91206DFEBF4601C7FFF7EFF7D03DF
:1033C6007C009002C9E0F8A3E0F9A3E0FAA3E0FBD1
:1033D600C312064E40B67FFF7EFF7D037C0090023F
:1033E600C9E0F8A3E0F9A3E0FAA3E0FBC312064E96
:0B33F6004005D2947F6A22D2947F0031
:0134010022A8
:042C7F008E0E8F0F17
:102C83009002CEE064036015AF13AE12AD11AC1029
:102C930078091206728F138E128D118C10AF13AE3A
:102CA30012AD11AC10781812065F9002B5EFF0AFB9
:102CB30013AE12AD11AC10781012065FA3EFF0AF94
:102CC30013AE12AD11AC10780812065FA3EFF0E556
:102CD30013FFA3EFF0C2947C027DB57A007B777F6C
:102CE30018123DD4900076EFF06003022E2E7FFF82
:102CF300124BDC7FFE124BDC9002C912070400006A
:102D03000000E47F20FEFDFC9002C9E0F8A3E0F997
:102D1300A3E0FAA3E0FBC312064E7003022E1405D0
:102D23000FE50FAE0E7002050E124BD5050FE50F22
:102D3300AE0E7002050E124BD5050FE50FAE0E70E9
:102D430002050E124BD5050FE50FAE0E7002050EF0
:102D5300124BD5050FE50FAE0E7002050E124BD5C3
:102D6300050FE50FAE0E7002050E124BD5050FE5EC
:102D73000FAE0E7002050E124BD5050FE50FAE0E0A
:102D83007002050E124BD5050FE50FAE0E7002054E
:102D93000E124BD5050FE50FAE0E7002050E124B4A
:102DA300D5050FE50FAE0E7002050E124BD5050FBC
:102DB300E50FAE0E7002050E124BD5050FE50FAEF3
:102DC3000E7002050E124BD5050FE50FAE0E700205
:102DD300050E124BD5050FE50FAE0E7002050E1250
:102DE3004BD5050FE50FAE0E7002050E124BD590B5
:102DF30002C9E0FCA3E0FDA3E0FEA3E02401FFE49D
:102E03003EFEE43DFDE43CFC9002C91206DF022DC8
:102E1300057FFF124BDC7FFF124BDC7FFF124BDC85
:102E2300900076EFF0541F64056005D294E0FF2212
:102E33009002C9120704000000007FFF124BDC90D0
:102E43000076EFF0FB9002C9E0FCA3E0FDA3E0FEF7
:102E5300A3E02401FFE43EFEE43DFDE43CFC9002DC
:102E6300C91206DFEBF4601C7FFF7EFF7D037C004D
:102E73009002C9E0F8A3E0F9A3E0FAA3E0FBC312D0
:102E8300064E40B67FFF7EFF7D037C009002C9E0C3
:102E9300F8A3E0F9A3E0FAA3E0FBC312064E400552
:092EA300D2947F6A22D2947F00D0
:012EAC002203
:0422F0008E458F4642
:1022F4009002CEE064036015AF4AAE49AD48AC47E6
:1023040078091206728F4A8E498D488C47AF4AAEBF
:1023140049AD48AC47781812065F9002B5EFF0AFAC
:102324004AAE49AD48AC47781012065FA3EFF0AF50
:102334004AAE49AD48AC47780812065FA3EFF0E512
:102344004AFFA3EFF0C2947C027DB57A007B6E7FD6
:1023540019123DD490006DEFF060030224AF7FFFAB
:10236400124BDCE54C154CAE4B7002154B4E700312
:102374000225297FFC124BDC9002C91207040000DD
:102384000000E47F20FEFDFC9002C9E0F8A3E0F920
:10239400A3E0FAA3E0FBC312064E700302249505E2
:1023A40046E546AE4570020545124BD50546E54661
:1023B400AE4570020545124BD50546E546AE45705F
:1023C400020545124BD50546E546AE457002054566
:1023D400124BD50546E546AE4570020545124BD570
:1023E4000546E546AE4570020545124BD50546E562
:1023F40046AE4570020545124BD50546E546AE4549
:1024040070020545124BD50546E546AE45700205FA
:1024140045124BD50546E546AE4570020545124BBF
:10242400D50546E546AE4570020545124BD5054631
:10243400E546AE4570020545124BD50546E546AE68
:102444004570020545124BD50546E546AE4570027A
:102454000545124BD50546E546AE457002054512C5
:102464004BD50546E546AE4570020545124BD59061
:1024740002C9E0FCA3E0FDA3E0FEA3E02401FFE425
:102484003EFEE43DFDE43CFC9002C91206DF02235B
:10249400867FFF124BDC7FFF124BDC7FFF124BDC8D
:1024A40090006DEFF0541F64056005D294E0FF22A4
:1024B4009002C9120704000000007FFF124BDC9059
:1024C400006DEFF0FB9002C9E0FCA3E0FDA3E0FE89
:1024D400A3E02401FFE43EFEE43DFDE43CFC900265
:1024E400C91206DFEBF4601C7FFF7EFF7D037C00D6
:1024F4009002C9E0F8A3E0F9A3E0FAA3E0FBC31259
:10250400064E40B67FFF7EFF7D037C009002C9E04B
:10251400F8A3E0F9A3E0FAA3E0FBC312064E5003CC
:10252400022367807A7FFD124BDC7FFF124BDC9025
:1025340002C9120704000000007FFF124BDC900068
:102544006DEFF0FB9002C9E0FCA3E0FDA3E0FEA365
:10255400E02401FFE43EFEE43DFDE43CFC9002C9BE
:102564001206DFEBF4601C7FFF7EFF7D037C00908E
:1025740002C9E0F8A3E0F9A3E0FAA3E0FBC3120662
:102584004E40B67FFF7EFF7D037C009002C9E0F8D9
:10259400A3E0F9A3E0FAA3E0FBC312064E4005D280
:0825A400947F6A22D2947F00AB
:0125AC00220C
:104BB50021FF000000000000A1FE00000000010030
:1045B00090029AE0652D7014900297E0652A700CC5
:1045C000A3E0652B7006A3E0652C6046AF2DAE2CF2
:1045D000AD2BAC2A9002971206DF900280E0FEA37A
:1045E000E0FBCAEECA65397003EA6538700EAF2D7C
:1045F000AE2CAD2BAC2A90029B1206DFCDEBCDCCBE
:10460000EACC7F011249328F3BEF6003124B74AF4B
:054610003B227F0022A7
:10437C009002ADE0FCA3E0FDA3E0FEA3E0F52D8EE2
:05438C002C8D2B8C2A92
:1043910090029EE0652D701490029BE0652A700CDE
:1043A100A3E0652B7006A3E0652C6042AF2DAE2C17
:1043B100AD2BAC2A90029B1206DFAB39AA389002D2
:1043C10080E06A7003A3E06B700EAF2DAE2CAD2BB5
:1043D100AC2A9002971206DFCDEBCDCCEACC7F015F
:1043E1001249328F3BEF6003124B74AF3B227F00C7
:0143F10022A9
:1048AD00AF2DAE2CAD2BAC2A9002971206DF9002E5
:1048BD0080E0FEA3E0FBCAEECA65397003EA6538F5
:1048CD00700EAF2DAE2CAD2BAC2A90029B1206DFD5
:1048DD00CDEBCDCCEACC7F011249688F3BEF600365
:0648ED00124B74AF3B22E8
:1044D8008F3F8E3E8D3D8C3CE529241AF582E435CC
:1044E80028F583E53CF0A3E53DF0E5292414F582A1
:0C44F800E43528F583E53EF0A3E53FF035
:10450400AF2DAE2CAD2BAC2A90029B1206DFAB393B
:10451400AA38900280E06A7003A3E06B700EAF2D9E
:10452400AE2CAD2BAC2A9002971206DFCDEBCDCC8E
:10453400EACC7F011249688F3BEF6003124B74AFE2
:024544003B2218
:100CEF00900287E0FCA3E0FDA3E0FEA3E0F5278ED2
:070CFF00268D258C24E4FF83
:100D06008FD39002A6E0FBB4020CAF27AE26AD252A
:100D1600AC247801800EEBB40317AF27AE26AD25C1
:100D2600AC2478021206728F278E268D258C24809D
:100D36002AC200E52730E002D200AF27AE26AD2555
:100D4600AC24780112065FE5272FF527E5263EF548
:100D560026E5253DF525E5243CF524E52224FFFF7F
:100D6600EF5526FEE527FF900281E02FF529900238
:100D760080E03EF528AE26AD25AC24124AD9900275
:100D8600A7E0F8A3E0F9A3E0FAA3E02FF527EA3EEF
:100D9600F526E93DF525E83CF52490029AE065271D
:100DA6007014900297E06524700CA3E06525700628
:100DB600A3E06526601D300B07124201EF60012299
:100DC60085272D85262C85252B85242A1245B0EFCF
:100DD600600122E5D36027E5D3B4040474FF8006DE
:100DE600E5D3B4010BE4F527F526F525F524800CAB
:100DF600853224853125853026852F27D20BC20CD6
:100E06009002A6E0FB64027041852982852883E072
:100E1600F53DA3E0F53E853D3FE4F53CF53DC3E5F4
:100E26003F94F7E53E94FF4002D20CE5D3600F8570
:100E36002982852883E524F0A3E525F0E1EB300C33
:100E460002E1EBAE3EAF3FE4E1E3EB64037067AF74
:100E560029AE28124BC58F3F8E3E8D3D8C3CE53C1E
:100E660054F0FFE527540F4FF527533C0FE53CD3CD
:100E7600940F5016E53CB40F13E53DB4FF0EE53E66
:100E8600B4FF09E53FC394F74002D20CE5D36013E3
:100E9600AF27AE26AD25AC24852982852883120688
:100EA600DFE1EB300C02E1EB853C2F853D30853EE2
:100EB60031853F32E1EB852982852883E0F53FE5E0
:100EC60024C454F0FFE53F540F4FF53CE525C454C8
:100ED600F0FFE524C4540F4FF53DE52224FFFFEF54
:100EE600FE900281E024FFFF900280E03EFEEF6567
:100EF600297003EE65286039852982852883A3E059
:100F0600F53EE5D37002E1AC30000F8529828528D5
:100F160083E53CF0A3E53DF0E1AC85298285288395
:100F2600E524F0E525540FFFE53E54F04FA3F0808D
:100F360075E5D36011300004AF3C8002AF248529EB
:100F460082852883EFF0A20BE43345D36007124273
:100F560001EF600122900297E0FCA3E0FDA3E0FE12
:100F6600A3E02401F52DE43EF52CE43DF52BE43C0D
:100F7600F52A1245B0EF600122900280E0FEA3E060
:100F8600FFF5828E83E0F53EE5D3601A300004ADAE
:100F96003D800BE525540FFDE53E54F04DFD8F8257
:100FA6008E83EDF0D20BE4F53CF53D300014E53EC2
:100FB600C4F854F0C868F53EE53FC4540F48F53F01
:100FC6008003533E0FC3E53F94F7E53E940F40027E
:100FD600D20CE5D3700F200C0CAE3EAF3F8F328E95
:080FE60031F530F52F7F0022E8
:09340200E4F532F531F530F52F47
:10340B00900282E0FCA3E0FDA3E0FEA3E0FFAB3261
:10341B00AA31A930A82FD312064E40037FB122E563
:10342B00322401FFE43531FEE43530FDE4352FFC69
:10343B009000691206DF8F27120CFECBEFCB9000AA
:10344B0069E0FCA3E0FDA3E0FEA3E0F5328E318D35
:10345B00308C2FEB600122E53F700AE53C453D4582
:10346B003E7002A1E7900284E0FF90006BE06F706A
:10347B001A900282E0FF900069E06F700E90028359
:10348B00E0FF90006AE06F7002810B9002A6E0FFF4
:10349B0064017002810B900280E0FCA3E08C28F5A4
:1034AB0029EF6402703CE52275F080A424FFFFE550
:1034BB00F034FFF53C8F3DF53E8F3F74022529F527
:1034CB0029E43528F528852982F583E07004A3E0EB
:1034DB006075E53D153D7002153C14AE3C4E70DB3E
:1034EB00A1CFE52275F040A424FFFFE5F034FFF5F2
:1034FB003C8F3DF53E8F3F74042529F529E4352893
:10350B00F528852982F583E06002A1BFA3E0600264
:10351B00A1BF852982852883A3A3E06002A1BF8573
:10352B002982852883A3A3A3E0540F6002A1BF8542
:10353B002982852883A3A374FFF08529828528839C
:10354B00A3A3A3E0440FF085298285288374FFF0A1
:10355B00A3F0AE3EAF3FEF4532FFEE4531FEE53017
:10356B00FDE52FFCEEC0E0EFC0E0E53D24FFFFE5FD
:10357B003C34FFCBEFCBFAD0E0FFD0E0FEC3EF9BA8
:10358B00F532EE9AF531ED9400F530EC9400F52F11
:10359B00900282E0FCA3E0FDA3E0FEA3E0FFAB32D0
:1035AB00AA31A930A82FD312064E40037FB122D2E5
:1035BB000B7F0022E53D153D7002153C14AE3C4ED1
:1035CB006002A102AE3EAF3FE5324FF532E5314E20
:1035DB00F531E530F530E52FF52F810B900069E0E3
:1035EB00FCA3E0FDA3E0FEA3E0F5278E268D258C42
:0735FB00247F04120D0622DB
:0D4BE40012340BEF64B16001221234022282
:10100000E533C394105007121800EF600122124913
:10101000F7EF600122C2097861E6FF7002FF22EF5C
:10102000645C6003BF2F05753A6280147862E664E1
:101030003A600201EBEFC39443500201EB753A644E
:101040009002A6E0FBB403109002B1E0FCA3E0FD27
:10105000A3E0FEA3E0FF8005E4FFFEFDFC90028715
:101060001206DFA83AE6600201EE74FFF537F536A6
:10107000F535F534EB6403604C90028A7402F0900D
:1010800002B4E0F52390028FE0FCA3E0FDA3E0FEB4
:10109000A3E0FFEFC0E0AF23CBEFCBD0E0FFC3EF87
:1010A0009BFFEE9400FEED9400FDEC9400FC90029A
:1010B0008F1206DFAF23E4FCFDFE124AF68F378E57
:1010C000368D358C34900287E0FCA3E0FDA3E0FE72
:1010D000A3E0F5328E318D308C2FE4F543F542F5E7
:1010E00041F540F52E7533127F4122753A61900229
:1010F00087E0700CA3E07008A3E07004A3E06041F7
:1011000085232E900287E0FCA3E0FDA3E0FEA3E090
:1011100024FEFFEE34FFFEED34FFFDEC34FFFC90C7
:101120000286E0F9F812067290028FE0F8A3E0F967
:10113000A3E0FAA3E02FFFEA3EFEE93DFDE83C8094
:10114000269002B4E0F52EAF2ECBEFCB90028FE0CD
:10115000FCA3E0FDA3E0FEA3E0C39BFFEE9400FE32
:10116000ED9400FDEC9400FC9002AD1206DFE52E3C
:10117000700261F612437CEF600122E490028DF070
:10118000A3F0E522FE90028DE0FCA3E0FDC39400F5
:10119000EC9E400261D3ED2539F529EC3538F52870
:1011A000852982F583E0FF70028126EF64E57002F5
:1011B00061C3BF05027FE5A83AE6FE6F6007EE64F3
:1011C0002A600261C3EF6E70047F0180027F008F8E
:1011D0003EAF3EEFC3940B5052AE3EE53A2EF8E6DA
:1011E000FEE5292FF582E43528F583E0FD6E6036B3
:1011F000EE6007645C6003BE2F1EED6420702CEF70
:10120000C39408500FE5292408F582E43528F583B6
:10121000E0B420177F0B8013BE2E10E53E640860FB
:1012200003BD20077F070F053E80A8AE3EE53A2E9E
:10123000F8E6F53FEFC3940B50026123E529240B38
:10124000F582E43528F583E030E3026123C20CE542
:1012500029241AFFE43528FE124C07E4FCFD900215
:10126000871206DF9002A6E0B40314E5292414FFD8
:10127000E43528FE124C07900287EEF0A3EFF0E56C
:101280003F6005200C02611A900287E0FCA3E0FD9C
:10129000A3E0FEA3E0F5328E318D308C2FE4F543D0
:1012A000F542F541F540F52EE529240BF582E435AC
:1012B00028F583E030E41E74FFF537F536F535F593
:1012C000347D137F101249FBEF600122300C037F45
:1012D00043227F4122E529241CFFE43528FE124BDE
:1012E000C58F378E368D358C34900287E07017A30A
:1012F000E07013A3E0700FA3E0700B752EFFF537BD
:10130000F536F535F5347D147F101249FBEF600199
:1013100022300C037F43227F0022E53E04253AF56C
:101320003A01EEE53F642A600261C3E529240BF52A
:1013300082E43528F583E030E30261C3E5A1644926
:1013400060037F1122E5344535453645376022E597
:101350003430E703120FFEE53724FFF537E5363466
:10136000FFF536E53534FFF535E53434FFF53480E7
:1013700052E4FFF53CE5292FF582E43528F583E0BA
:101380006420602FBF080AAE3CE53A2EF8762E05A1
:101390003CE5292FF582E43528F583E0FEAD3CE5F8
:1013A0003A2DF8EEF6E53C7008A83AE6B405027668
:1013B000E5053C0FBF0BBEAF3CE53A2FF8E4F6D293
:1013C0000C414F90028EE02420F090028DE034001A
:1013D000F021829002ADE0FCA3E0FDA3E0FEA3E0DB
:1013E0002401FFE43EFEE43DFDE43CFC9002AD122E
:1013F00006DF152E216E900287E0700CA3E07008C6
:10140000A3E07004A3E0601E120CEFEF6001222045
:101410000C14900287E53CF0A3E53DF0A3E53EF017
:10142000A3E53FF001EEE4FFCEEFCE0FE53A2EF854
:10143000E6FE600F642A600BEE645C6003BE2FE87A
:061440007FB3227F42226F
:10481900E53224FEFFE53134FFFEE53034FFFDE5E6
:104829002F34FFFC900286E0F9F812067290028F8D
:10483900E0F8A3E0F9A3E0FAA3E02FFBEA3EFAE9E6
:104849003DF9E83CF8E4FCFDFEEB252EF52DEE3AAA
:0B485900F52CED39F52BEC38F52A2288
:103EBF00900287E0700EA3E0700AA3E07006A3E003
:103ECF007002E1A17865120685124AD9EFC0E0AF02
:103EDF002ECBEFCBD0E0FFC3EF9BF53FEE9400F579
:103EEF003EED9400F53DEC9400F53CAF3FAE3EAD9A
:103EFF003DAC3C7861120691C312064E40177861B3
:103F0F00120685C3EF953FFFEE953EFEED953DFD05
:103F1F00EC953C805D900287E0FCA3E0FDA3E0FE02
:103F2F00A3E0F5328E318D308C2FAF23E4FCFDFEF4
:103F3F007861120691C312064E403F8532278531B4
:103F4F0026853025852F24E4FF120D06EF60012210
:103F5F00200C3F7861120685EFC0E0AF23CBEFCB8B
:103F6F00D0E0FFC3EF9BFFEE9400FEED9400FDEC5D
:103F7F009400FC78611206D380B07864E6F52E12B7
:103F8F004819AF2DAE2CAD2BAC2A78611206D37F1A
:103F9F000022752EFF78611206EBFFFFFFFF7F00F7
:013FAF0022EF
:034C45007F1022BB
:104B740090029B120704FFFFFFFF900297120704A5
:074B8400FFFFFFFFC20B223F
:0449F7007D107F10A0
:1049FB00AE33EEC39F4005CEEDCE8D33EE6D700220
:0F4A0B00FF22753301124B2DEF6001227F8322B2
:104A1A00AB3BBB16117533019002A01207040000CC
:104A2A000000CFEBCF22BB1507753302CFEBCF22A5
:034A3A007F0022D8
:1046CF007F027E00124B469002ACE53BF0124B2D61
:1046DF00EF600122E533C3940450037F83227E4BA6
:1046EF007FB5120FFF9002ABE0900005F0E4FDFFE5
:1046FF00FE124C398F3BBF1601229002A5E0540FDA
:10470F00FF124C429002A4E0540F4480FF124C421F
:0A471F009002ACE0FFF53BE4F0224D
:1048F300900009EDF0A3E4F0A3F0A3F0ED60047ED3
:104903008080027E0090000DEEF090029FE0900008
:104913000EF0A37406F0A3EFF0A3E4F0A3F0A3F06A
:0F492300A3EDF0A3E4F0A3F0A3F0A3F0A3F02220
:072A4C001248F37E007F2316
:102A53008E478F489000017455F0A37453F0A3740C
:102A630042F0A304F075D71F9002A5E0FF9002ACDB
:102A7300E0FD7BE87AFD124C368F3BBF160122EF57
:102A830060397E007F237C007D017B1B7A00124A24
:102A93003D1246CF7E007F017C007D237B1B7A00A5
:102AA300124A3D9002A5E0FF9002ACE0FD7BE87A7C
:102AB300FD124C368F3BEF600281799002ACE064EB
:102AC30040F0900009E0FDA3E0FF4D7002813EEF6E
:102AD300F545EDF54690000DE020E7026197D20041
:102AE300E54645457002618FE5457007E546C394A9
:102AF300404009AF488547E58FE48008C20075E58B
:102B03000075E4009002A4E0FF9002ACE0FD7BE8D6
:102B13007AFD124C368F3BEF601A75E50075E400C1
:102B2300EF642E6001229002A4E0540F4480FF1250
:102B33004C4280589002ACE06480F030001FE5DB2B
:102B43006440704874C02546F54674FF3545F54525
:102B530074402548F548E43547F5478083AFDBAE3D
:102B630046EEC39F5003CFEECFE4FEEE6F601D74BD
:102B7300002EF582E43400F583E08548828547839F
:102B8300F00548E548700205470E80DF75E50075DE
:102B9300E400813EE546454570028138E54570080D
:102BA300AF46EFC394404023AD488547E78DE674B5
:102BB300C02546F54674FF3545F54574402548F56F
:102BC30048E43547F54775D740803375E70075E628
:102BD300018FD7E4FFE5466F601F854882854783F1
:102BE300E0FE74012FF582E43400F583EEF005482E
:102BF300E548700205470F80DCE4F545F546900291
:102C0300A5E0FF9002ACE0FD7BE87AFD124C368F25
:102C13003BEF601875E70075E601EF642E60012253
:102C23009002A5E0540FFF124C4280099002ACE0E1
:102C33006440F0619775E70075E6019002A4E0FF38
:102C43009002ACE0FD7BE87AFD124C368F3BEF60DF
:102C530001229002ACE06480F0753B1FE5DB640D5C
:102C63006003AF3B2290000CE0FE7004F53BFF22B3
:0C2C7300EEC3940240030246CFAF3B22A8
:104A9C007F0A7E00124B467D127F03122A4C7F0543
:0F4AAC007E00124B46E53B7002FF22124A1A228F
:10430200754409753C0F7D087F251248F390000F14
:10431200740AF0900014E4F0122A4FAF3BEF7017CA
:10432200900029E0FEBE040575440A8037EE640859
:10433200703275440B802DEF64166028EF641560AF
:1043420023EF6413601E8F3D124A9C853D3BE53C82
:104352007E0030E3047F4080027FC8124B46153C4A
:10436200E53C70A2E54424F8FF7401C8EFC8088058
:0A43720002C333D8FCF522AF3D2250
:10393D00124B2DEF600122E533C3940450037F83B6
:10394D0022753304124C3C8F3BEF60012290000F27
:10395D00E06408705FC20AA3E0B40602D20A9000C8
:10396D000CE09002ABF0E4F53CE53C600790001CE8
:10397D00E0FF8005900015E0FF8F3DE53C6007906E
:10398D00001EE0FF8005900017E0FFEF64407024FB
:10399D00E53D30E70CE53D540F44909002A4F080D6
:1039AD000AE53D540F44109002A5F0053CE53CB4EA
:1039BD0002B78006753B1FAF3B22900006E0FF1259
:1039CD004C3F8F3BEF600122E4F53C7E4B7FBD12F7
:1039DD000FFF9002ABE0900005F07D3DAF39AE38A2
:1039ED00124C398F3BEF7010E53DB4011A853982C9
:1039FD00853883E0F53C800FE53BB42E07E4FF12DC
:103A0D004C428003AF3B227F057E00124B46124B8A
:103A1D0074E49002ACF090029FF07D247F12124866
:103A2D00F3AF39AE38122A53E53B7023E53C6018ED
:103A3D0090029FE07012853982853883E0B40508C5
:103A4D0090029F7401F080D27D057F040249FBE551
:103A5D003C600E90029FE0C394035005E004F0809B
:0C3A6D00B9E490029FF07F0112477E2216
:1046150078611206EB00000000124B2DEF600122BD
:10462500E533C39405503012393DEF600E7F407E6F
:1046350000124B4612393DEF600122124302EF6032
:1046450003AF3B22900023E0FCA3E0FDA3E0FEA323
:10465500E0FF78611206D3E4FDFF122A4CE53B70BA
:0E46650002FF22853B3C124A9CAF3C8F3B2259
:10477E00E4FDFCE4F5A10DBD00010CBC01F5BDF49A
:10478E00F2EFC394024013AE33BE120575330580AB
:10479E0009EED394104003753310AE3BEF6014EE68
:1047AE006416600FEE6415600A124A9CCEEFCEEED0
:0E47BE007001227F027E00124B46124A1A2220
:10180000E533C39405500A12393DEF6001221243BB
:1018100002124B749002A0E0FCA3E0FDA3E0FEA343
:10182000E054F0FFEC7B707A5679347812C31206DC
:101830004E700A9002A3E0540FF5298003E4F529C5
:10184000E4F523F52EE4F537F536F535F534F52DC9
:10185000F52CF52BF52A124391EF600D1246CF12AD
:101860004302124391EF600122E529700F8539820E
:10187000853883E054FD64E97002217AE53924FE5D
:10188000F582E5383401F583E0FEA3E064AA700335
:10189000EE645560037F9122852328E5286440701B
:1018A00002216AE53924BEFFE5383401FE7C00EFF1
:1018B0002528FFEC3ECF2408CF3400FE124BC58F05
:1018C0002D8E2C8D2B8C2AE53924BEFFE538340172
:1018D000FE7C00EF2528FFEC3EF583EF2404F58223
:1018E000E43583F583E0F53CE53C64056005E53CC3
:1018F000B40F32E52D2537F52DE52C3536F52CE5E1
:101900002B3535F52BE52A3534F52AE52E60020115
:1019100056E5282410F52E852D37852C36852B3558
:10192000852A340156E53C30E703533C3FE53C60F3
:1019300031E53CC3940F502AE529940150229002CE
:101940009BE0FCA3E0FDA3E0FEA3E0252DF52DEE3A
:10195000352CF52CED352BF52BEC352AF52A801A94
:10196000152974102528F528019BE52E6009E5232B
:101970007005852E2301457F9222AF2DAE2CAD2B15
:10198000AC2A9002A01206DF124391EF600122857B
:101990003982853883E054FD64E960037FA122E544
:1019A0003924FEF582E5383401F583E0FEA3E064D6
:1019B000AA7003EE645560037FA122E539240DF57A
:1019C00082E43538F583E0FFF5239002867407F052
:1019D000EF20E710EF25E0FF900286E014F0E070C2
:1019E000EF752301E5392416FFE43538FE124C0764
:1019F000E4FCFD9002931206DF900295E0FEA3E066
:101A00004E7012E5392424FFE43538FE124BC590A0
:101A100002931206DFE5392413FFE43538FE124C39
:101A200007E48F438E42F541F540EF4E7014E539DF
:101A30002420FFE43538FE124BC58F438E428D4182
:101A40008C40E5392411FFE43538FE124C07E522BD
:101A500033333354F8147C002FFFEC3EFEE544246E
:101A6000FBFDEFC8EDC8088005CEC313CE13D8F92F
:101A7000FFE4FCFD9002B11206DFE539240EFFE41D
:101A80003538FE124C07E4FCFD9002A71206DF90E9
:101A900002B4E0FF7E009002A9E0FCA3E02FFFEE7D
:101AA0003CFEE4FCFD900293E0F8A3E0F9A3E0FA29
:101AB000A3E02FF53FEA3EF53EED39F53DEC38F574
:101AC0003CE5392410F582E43538F583E090029343
:101AD000B4021FE0FCA3E0FDA3E0FEA3E0253FF578
:101AE0003FEE353EF53EED353DF53DEC353CF53C04
:101AF000800712070400000000E52D253FFFE52CBC
:101B0000353EFEE52B353DFDE52A353CFC90028F48
:101B10001206DFC3E543953FFFE542953EFEE541F2
:101B2000953DFDE540953CFC900286E0F9F81206F3
:101B30005F9002821206DFE47FF57EFFFDFC9002DB
:101B400082E0F8A3E0F9A3E0FAA3E0FBC312064E9B
:101B50005023E490028BF0A3F0900284E0FEA3E017
:101B6000C394F5EE940F9002A650057401F08031F5
:101B70007402F0802CE5392430FFE43538FE124C35
:101B80000790028BEEF0A3EFF0E539242CFFE4354B
:101B900038FE124BC59002B11206DF9002A6740304
:101BA000F09002A9E0FEA3E04E60579002B1E0FC85
:101BB000A3E0FDA3E0FEA3E0FFEC4D4E4F6043E544
:101BC000392410F582E43538F583E064016014901F
:101BD0000293E0FCA3E0FDA3E0FEA3E0FFEC4D4E8A
:101BE0004F601FE539240BF582E43538F583E0704A
:101BF00011E539240CF582E43538F583E0C394020D
:101C0000500CE529700575290101407FA32290023F
:101C1000A7E0FCA3E0FDA3E0FEA3E0252DFFEE3549
:101C20002CFEED352BFDEC352AFC9002A71206DFC9
:081C30007D107F051249FB2223
:10420100900297E0FCA3E0FDA3E0FEA3E0F52D8E74
:104211002C8D2B8C2A1248ADEF600122900293E085
:10422100FCA3E0FDA3E0FEA3E0FFEC4D4E4F605088
:10423100EF252DF52DEE352CF52CED352BF52BEC51
:10424100352AF52A900280E0FCA3E0FD7F011249A6
:10425100688F3B900293E0F8A3E0F9A3E0FAA3E0B2
:10426100FBC3E52D9BF52DE52C9AF52CE52B99F556
:104271002BE52A98F52AE53B6006124B74AF3B22E9
:05428100C20B7F0022CA
:1045460012340BEF600564B1600122EF600712348C
:1045560002EF600122124201EF600122AF32AE315A
:10456600AD30AC2F9002871206DF12437CEF60015C
:104576002290028EE02539F52990028DE03538F536
:1045860028F583E529241CF582E43583F583120793
:104596000401000000900287E0FCA3E0FDA3E0FE1A
:0A45A600A3E0FF124C1A1244D822C1
:084286007FFF7EFF7DFF7CFF3E
:10428E008F3F8E3E8D3D8C3C90028BE0FCA3E0FD7B
:10429E004C7002FF22CFEDCFCEECCEE4FCFD9002AF
:1042AE00A0E0F8A3E0F9A3E0FAA3E02FF52DEA3E93
:1042BE00F52CED39F52BEC38F52A124391EF600110
:1042CE0022E53924E8FFE5383401FE124BC5EF250F
:1042DE003FFFEE353EFEED353DFDEC353CFC124C20
:1042EE001AE53924E8F582E5383401F5831206DF44
:0442FE00124504223F
:103FB000C209E533C39414404412437CEF600122EC
:103FC00090028EE02539F52990028DE03538F528EC
:103FD000F583E529240BF582E43583F583E020E4BD
:103FE0001CAF37AE36AD35AC34124C1AE529241C63
:103FF000F582E43528F5831206DF0245047F0022AE
:10446600AF33EFC3941250037FB422BF12449002BD
:10447600A6E06403603C900286E0FF7401C8EFC8C2
:10448600088002C333D8FCF52390028FE0F8A3E03E
:10449600F9A3E0FAA3E0FB9002B4E0FFE4FCFDFE22
:1044A600EB2FFFEE3AFEED39FDEC38FC90028F1251
:1044B60006DFAF33EFD394134008BF14077861E6E5
:1044C6007002C209300907123FB0EF60012212499B
:0244D600F722CB
:10400000E533C394135007121000EF6001221249E8
:10401000F7EF60012212437CEF60012290028DE0F5
:10402000FEA3E02539F582E5383EF58374E5F0120C
:104030004504EF600122900287E0F53CA3E0F53DE6
:10404000A3E0F53EA3E0F53FE53C453D453E453F59
:10405000606A900287E0FCA3E0FDA3E0FEA3E024F9
:10406000FFFFEE34FFFEED34FFFDEC34FFFC900269
:10407000871206DFE4F532F531F530F52F853C2463
:10408000853D25853E26853F277F01120D06EF6081
:104090000122E5322401F532E43531F531E43530E1
:1040A000F530E4352FF52F300CD3124201EF6001CB
:0F40B00022AF32AE31AD30AC2F02428E7F0022F4
:102800001210008F2EEF7009124000EF700221416C
:1028100022E52E64426003AF2E22E522FEC3900221
:102820008EE0940090028DE09E500221419002873C
:10283000E0700EA3E0700AA3E07006A3E07002014E
:10284000EC120CEFEF600122200C02214190028774
:10285000E0FCA3E0FDA3E0FEA3E0F5328E318D3075
:102860008C2F124BE4EF600122900287E0FCA3E082
:10287000FDA3E0FEA3E0F5278E268D258C247F02A4
:10288000120D06EF600122124201EF60012285392C
:1028900082853883AF22EF600AE4FEE4F0A3DEFB1A
:1028A0001F80F3E4F52E124819E490028DF0A3F096
:1028B000AF2DAE2CAD2BAC2A9002AD1206DF8523D6
:1028C0003CE53C6020124504EF600122E52D240127
:1028D000F52DE4352CF52CE4352BF52BE4352AF5D4
:1028E0002A153C80DC124286EF6056229002B4E04A
:1028F000F52E9002AD74FF1206A08F2D12438BEFC0
:10290000600122E490028DF0A3F0E522FE90028D9A
:10291000E0FCA3E0FDC39400EC9E501FE5392DF5CB
:1029200082E5383CF583E064E5601690028EE02491
:1029300020F090028DE03400F080CFD52EB47FB22D
:1029400022900287E0FCA3E0FDA3E0FEA3E0F532C5
:102950008E318D308C2FE5B15492648060037F11ED
:1029600022124BE4EF600122124201EF600122AF1C
:1029700032AE31AD30AC2F9002871206DF124286A4
:10298000EF60012212437CEF60012290028EE0256D
:1029900039F52990028DE03538F528E4FFEFC3942E
:1029A0000B50047E2080027E00E5292FF582E4355D
:1029B00028F583EEF00FBF20E4E5292418F582E422
:1029C0003528F5837421F0A37430F0E529241CF533
:1029D00082E43528F5837401F0E4FFEFC3940B50D3
:1029E00023A83AE6FE601DEEB42E047F08053AA83F
:1029F0003AE6FEE5292FF582E43528F583EEF00F5F
:102A0000053A80D7900287E0FCA3E0FDA3E0FEA397
:102A1000E0FF124C1A1244D8EF600122900287E0C6
:102A2000FCA3E0FDA3E0FEA3E0F5328E318D308CF7
:102A30002FE4F537F536F535F534F543F542F54134
:0C2A4000F540F52E7D147F101249FB229A
:1025AD00D209E522FE900286E0FBE4C8EBC8088064
:1025BD0005C333CE33CED8F924FFFFEE34FFFEEF43
:1025CD002537FFEE3536FEE43535FDE43534FCE5D3
:1025DD00442BF9F812065F9000701206DFAF43AE80
:1025ED0042AD41AC40C8E9C812065F8F278E268DDB
:1025FD00258C24900070E0F8A3E0F9A3E0FAA3E0A5
:10260D00FBD312064E4024900070E0FCA3E0FDA326
:10261D00E0FEA3E09527FFEE9526FEED9525FDEC5A
:10262D009524FC9000701206DF8015900287E0FC67
:10263D00A3E0FDA3E0FEA3E0F5328E318D308C2FAB
:10264D00900287E0701FA3E0701BA3E07017A3E05A
:10265D007013E5344535453645377002FF22124576
:10266D0046EF601522E534453545364537700A90FD
:10267D00007012070400000001AF32AE31AD30AC76
:10268D002F78611206D3900070E0FCA3E0FDA3E06B
:10269D00FEA3E024FFFFEE34FFFEED34FFFDEC342E
:1026AD00FFFC9000701206DFAF32AE31AD30AC2FB3
:1026BD008F278E268D258C2478651206D3E4FF1284
:1026CD000D06EF600122200C02E167900070E070B2
:1026DD000CA3E07008A3E07004A3E060067E007F09
:1026ED000180047E007F00EF4E7010786112068528
:1026FD008F328E318D308C2F7F0022900070E0FC58
:10270D00A3E0FDA3E0FEA3E0FF12064012428EEF10
:10271D00600122AF32AE31AD30AC2F78651206D3E9
:10272D00124BE4EF60012278651206858F278E2605
:10273D008D258C247F02120D06EF60012290007012
:10274D0074FF1206A0EC4D4E4F70C87861120685CD
:10275D008F328E318D308C2FE1FA900070E0600257
:10276D00C193A3E06002C193A3E06002C193A3E013
:10277D006002C19378651206858F3F8E3E8D3D8C2C
:10278D003C853C24853D25853E26853F277F0112CE
:10279D000D06EF600122900070E0FCA3E0FDA3E0C8
:1027AD00FEA3E02401FFE43EFEE43DFDE43CFC908D
:1027BD0000701206DF300CC9900070E0FCA3E0FD44
:1027CD00A3E0FEA3E0FF12428EEF6001229002878C
:1027DD00E0FCA3E0FDA3E0FEA3E0F5328E318D30E9
:1027ED008C2FE4F543F542F541F540F52E124201EB
:0127FD0022B9
:103BA700E533C3941350037FB42212437CEF6001C3
:103BB70022C20D90028EE02539F52990028DE0355D
:103BC70038F5287869E6FFE529240BF582E43528DE
:103BD700F583E0F6EFF4600FE529240BF582E43571
:103BE70028F583EFF0D20D7967E7F53D7868E6F5BC
:103BF7003CE5292416FFE43528FE124C077867EECA
:103C0700F608EFF6E53DF47003E53CF46014E529AA
:103C17002416F582E43528F583E53CF0A3E53DF06D
:103C2700D20D7965E7F53D7866E6F53CE529241878
:103C3700FFE43528FE124C077865EEF608EFF6E547
:103C47003DF47003E53CF46014E5292418F582E49B
:103C57003528F583E53CF0A3E53DF0D20D786112F8
:103C670006858F3F8E3E8D3D8C3CE529241CFFE465
:103C77003528FE124BC578611206D3E53C553D55F4
:103C87003E553FF46025AF3FAE3EAD3DAC3C8F3770
:103C97008E368D358C34124C1AE529241CF582E4B6
:103CA7003528F5831206DFD20DC209300D03024510
:043CB700047F002264
:100FEE00E4FF74612FF876FF0FBF0AF6123BA722BB
:10486400E533641460037FB422900287E0FCA3E084
:10487400FDA3E0FEA3E0F5328E318D308C2FE4F5FC
:1048840043F542F541F540900287E0700CA3E070D7
:1048940008A3E07004A3E06005E4F52E8003752E00
:0948A400FF7D157F141249FB226F
:10472900E53364156007124864EF600122AF43AEB8
:1047390042AD41AC4078651206D378611206858F87
:10474900438E428D418C40AB37AA36A935A834C374
:1047590012064E500C8537438536428535418534DE
:1047690040AF43AE42AD41AC40124AD9786112061E
:05477900D3123EBF2237
:10300000E53364156007124864EF6001227861E6D9
:10301000FF08E67865CFF608EFF6E47861F608F683
:10302000E52EB4FF037F00227866E6184670022181
:10303000FFC3E5379543F53FE5369542F53EE53567
:103040009541F53DE5349540F53CE53C453D453E33
:10305000453F700221FFE53CF4700221FF12481940
:10306000E53C453D600674FFF53EF53FD3E53F780E
:103070006696E53E18964007E6F53E08E6F53FE51C
:1030800022FEC3E53F9400E53E9E50022138E54311
:1030900060022138E52214554260022138E53EFFE6
:1030A000E54424F8FEEFC8EEC8088002C313D8FC3C
:1030B000FF753E008F3FC3E523952EFFAE3FEED355
:1030C0009F4005753E008F3FAF3F7964E7786226E9
:1030D000FD19E71836FC124932EF600122AF3FEFCD
:1030E000252EF52EAF3FE54424F8FEEFC8EEC808C4
:1030F0008002C333D8FC753F00F53EAE3EAF3FE4DF
:10310000FCFDE5432FF543E5423EF542ED3541F543
:1031100041EC3540F540C37866E6953FF618E695F4
:103120003EF67862E53F26F618E53E36F6E52EC314
:1031300095235002012821D1E52224FFFFEF5542BB
:10314000FCE522FEC3E49543FFEE9CFED3E53F9FE2
:10315000E53E9E40048E3E8F3F124391EF60012278
:10316000E52224FFFFEF5542FEE5432539FFEE350A
:1031700038FE7964E7786226FD19E71836FCAB3F24
:10318000AA3E124A3DAE3EAF3FE4FCFDE5432FF5BB
:1031900043E5423EF542ED3541F541EC3540F54021
:1031A000C37866E6953FF618E6953EF67862E53F09
:1031B00026F618E53E36F6E54360020128E52214BE
:1031C000554260020128052EE52EC39523500201C9
:1031D00028853227853126853025852F24E4FF1266
:1031E0000D06EF600122300C11752EFF85433785E7
:1031F00042368541358540348005E4F52E01287F2F
:023200000022AA
:10200000E53364156007124864EF6001227861E6E9
:10201000FE08E6FF7865EEF6FE08EFF64E70063035
:102020000903023FB0E47861F608F67866E61846E0
:10203000700241E3E52EF4600201BF900287E07078
:102040000CA3E07008A3E07004A3E0604DE533B496
:10205000120B9002A6E0640360037FB12285324335
:10206000853142853041852F40124BE4EF600122DB
:102070008543278542268541258540247F02120D10
:1020800006EF600122900280E065387004A3E065ED
:1020900039700E124201EF600822124546EF6001CE
:1020A000227FFF7EFF7DFF7CFF12428EEF600122C8
:1020B000853743853642853541853440E4F52E1217
:1020C0004819E52224FFFFEFAD435542FCC3E52349
:1020D000952EFF7E00E54424F8FBEFC8EBC808808E
:1020E00005C333CE33CED8F9FEC3E49DF53DEE9C57
:1020F000F53CD3E53D786696E53C18964007E6F555
:102100003C08E6F53DE522FEC3E53D9400E53C9E36
:10211000500221D0E543600221D0E52214554260EF
:102120000221D0E53CFFE54424F8FEEFC8EEC808E4
:102130008002C313D8FCFF753C008F3DAF3D79642E
:10214000E7786226FD19E71836FC124968EF60014E
:1021500022AF3DEF252EF52EAF3DE54424F8FEEFEE
:10216000C8EEC8088002C333D8FC753D00F53CAE0C
:102170003CAF3DE4FCFDE5432FF543E5423EF5422F
:10218000ED3541F541EC3540F540C37866E6953DC7
:10219000F618E6953CF67862E53D26F618E53C36FD
:1021A000F6AF43AE42AD41AC40AB37AA36A935A835
:1021B00034C312064E500E8543378542368541356D
:1021C000854034D209E52EC395235002012B41C12D
:1021D000E52224FFFFEF5542FCE522FEC3E49543D0
:1021E000FFEE9CFED3E53D9FE53C9E40048E3C8F78
:1021F0003DE543701DE5221455427016AF43AE42D3
:10220000AD41AC40AB37AA36A935A834D312064E3F
:102210004007124391EF6001227964E7786226FF5C
:1022200019E71836FEEEC0E0EFC0E0E52224FFFF1C
:10223000EF5542FEE5432539FDEE3538FCD0E0FF91
:10224000D0E0FEAB3DAA3C124A3DAE3CAF3DE4FCC3
:10225000FDE5432FF543E5423EF542ED3541F541BD
:10226000EC3540F540C37866E6953DF618E6953CBA
:10227000F67862E53D26F618E53C36F6124504EFA1
:10228000600122AF43AE42AD41AC40AB37AA36A9A4
:1022900035A834C312064E500E8543378542368525
:1022A0004135854034D209E5436002012BE5221413
:1022B00055426002012B052EE52EC39523500201E5
:1022C0002B853227853126853025852F24E4FF1282
:1022D0000D06EF600122300C05752EFF012BE4F591
:1022E0002E012B300B07124201EF6001227F0022EA
:104BC5008F828E83E0FFA3E0FEA3E0FDA3E0FC223D
:0A4C07008F828E83E0FFA3E0FE22FF
:074C1A00EFCCFFEECDFE22FE
:104AD900C3E4CC13CD13CE13FFE54424F7600DF8DE
:0D4AE900C3ED13FDEE13FEEF13FFD8F42212
:104AF600C3E4CF33CE33CD33FCE54424F7600DF861
:0D4B0600C3EE33FEED33FDEC33FCD8F4229A
:104A3D0005A28D828C8315A28F828E837F00EA6002
:104A4D0007E0A3A5DFFBDAF9EB6005E0A3A5DBFB2F
:014A5D002236
:10000300020120EC5D046005E85904700302011647
:100013001200E1580460F6EC4860F2EC7004FDFE57
:10002300FF22C860DB2481C85009C39860025006D0
:1000330002011D9850CAF582E9294B4A7005AB822B
:1000430002010C75F0007C1A7880C3EF9BEE9AEDE9
:1000530099400DC3EF9BFFEE9AFEED99FDE842F048
:10006300DC23ACF0D0E0FFD0E0FED0E0FDAB82209B
:10007300E7101BEB60BAEC2CFCEF33FFEE33FEED25
:1000830033FD0200F8E803F830E705C0F075F0002F
:10009300EF2FFFEE33FEED33FD40B830E7C280AA09
:1000A30075F020800E75F010800575F0087D007ED8
:1000B300007F003392D530D503120640EC33401055
:1000C300EF33FFEE33FEED33FDEC33FCD5F0ED22E1
:0E00D300E5F0247EA2D513CC92E7CDCEFF221D
:10088000E55C2448F8E6055C2278453007027848A4
:10089000E475F0011207350204CB2000EB7F2ED265
:1008A000008018EF540F2490D43440D4FF30040B50
:1008B000EF24BFB41A0050032461FFE55D60021508
:1008C0005D0560E5607002055F30070D7845E475F1
:1008D000F001120735EF0205110249D07403D20767
:1008E0008003E4C207F55C8B458A468947E4F55DE1
:1008F000F55FF560E55D60077F201208BB80F57548
:100900005EFFC201C200C202C203C205C206C20823
:10091000120889FF700D3007057F001208CCAF6008
:10092000AE5F22B4255FC2D5C204120889FF24D06D
:10093000B40A00501A75F00A785D30D50508B6FF84
:100940000106C6A426F620D5047002D20380D9245D
:10095000CFB41A00EF5004C2E5D204020BB9D201A1
:1009600080C6D20080C0D20280BCD2D580BAD20567
:1009700080B47F201208BB2002077401B55D0040DF
:10098000F1120880FF1208BB0208F4D208D20680D8
:1009900095120880FB120880FA120880F94A4B7001
:1009A0000679B07A0C7BFF20022EE55D602A7E007E
:1009B0008E827583001204E460060EEE655E70F0B0
:1009C000C2D5EBC0E0EAC0E0E9C0E0EE120C19D0FD
:1009D000E0F9D0E0FAD0E0FB1204CBFF60AAEBC054
:1009E000E0EAC0E0E9C0E01208BBD0E02401F9D0A1
:1009F000E03400FAD0E0FBE55E0460DCD55ED9802F
:100A000087D20280A2120BFC60F7E55E700104122F
:100A1000012BA95E600DE55E600914F55E120CA362
:100A2000EF60F3EA30E702F404C3995077EAF42563
:100A30005E0430E701E404F55E800D120BFC60C13A
:100A4000EA055E255E12012BEA785BF630E701E4E9
:100A5000255E04D55E0420050114120C19E4C0E0E3
:100A6000120CA3785BE6601320E70714F61208A3C4
:100A7000802204F6D0E014C0E07F001208A3E55EF7
:100A8000600712089A155E800B30050312089AD091
:100A9000E00208F4D0E00480C5120BFC60A0E55E23
:100AA0000412012B785BEAF6E55E20050260010482
:050AB0002404120C19E2
:100AB50074FF04C0E0120CA31208A3E55E20050232
:100AC500600312089AD0E0B55EE87F451208AD785C
:100AD5005BE67F2B30E7047F2DF404C0E01208BBF2
:100AE500D0E075F00A84C0F01208A4D0E01208A482
:100AF5000208F4791080027908C206C2088008D27B
:100B0500D5790A8004790AC2D5E55E047002F55EDE
:100B1500E4FAFDFEFF120880FC7B08200113120891
:100B250080FD7B1030000A120880FE120880FF7BD2
:100B350020EC3382D592D55013C3E43000069FFFD5
:100B4500E49EFEE42001039DFDE49CFCE4CBF8C299
:100B550001EC700CCFCECDCCE824F8F870F38017FB
:100B6500C3EF33FFEE33FEED33FDEC33FCEB33FB2C
:100B7500994002FB0FD8E9EB300105F8D0E0C448F5
:100B8500B201C0E00AEC4D4E4F78207B0070C2EAFE
:100B9500B55E0040BCC0E0120C1BD0F0D0E02001D7
:100BA50004C4C0E0C4B201C0F01208A4D0F0D5F06E
:100BB500EB0208F41207450991530AF85809624CEB
:100BC500095E420AFC4F0B04440B04490977430BA9
:100BD5000A550A3B460A99450A05470CD05009664D
:100BE5002D096A2E098D2B096E23098B200CB92A34
:100BF50009264800000985E55EB4FF03755E061207
:100C05000880FC120880FD120880FE120880FF781B
:100C15005402015A790AA2D5200314300509B910E6
:100C2500020404B9080104A2D520060250010420DB
:100C350002689202B55D005034C0E07F2030031990
:100C45007F30A20272067205500F120C72C202C2E8
:100C550006C205C2087F30800F300503E9C0E012E7
:100C650008BB300503D0E0F9D0E0B55DCC30051701
:100C75007F30B9100C1208BB7F583004077F78808D
:100C850003B908031208BB3002057F2D0208BB7F9C
:100C9500202008F87F2B2006F322920280CF7F00C8
:100CA500B4070050052454F8E6FF22286E756C6CD5
:100CB5002900D2011208803001F8C201785D30D5D3
:100CC5000108F60209262D504349581208802403CD
:100CD500B405004001E4900CCB931208AC743A12B1
:0A0CE50008ACD203755D04020AF8A2
:1000E100E9D2E7C933E833F892D5EDD2E7CD33EC65
:0700F10033FC5002B2D522DE
:1000F800EC30E7100FBF000C0EBE00080DBD000469
:100108000BEB6014A2D5EB13FCED92E7FD2274FF14
:10011800FCFDFEFF22E480F8A2D574FF13FC7D806D
:03012800E480EF81
:10012B00F920E72824F950037907E4F42402FB189B
:10013B00DBFDE624FB5014E9600DE4F618E604F64B
:0F014B00B40A08E4F6D9F57401F60A22C2D522E7
:10015A00ED33EC3392D5FA602AB4FF33EDC2E77B74
:10016A00FF60067A01797FE4227A01798820D50432
:10017A007A017983224E614E002B494E46002D4961
:10018A004E4600E47A08F608DAFC7B00740722E897
:10019A00C0E0ECC0E0EDC0E0EEC0E0EFC0E0EA7520
:1001AA00F010A4CAABF075F04DA42BFBE435F0FCBB
:1001BA00EA2410FAEB34C5FBEC34D9FCEDC2E7FFB4
:1001CA0075F056A4F42411C5F0F434C58FF0A42AAE
:1001DA00E5F03BE43CF620E71412048BD0E0FFD0B4
:1001EA00E0FED0E0FDD0E0FC1200068014F4041218
:1001FA00048BD0E0FFD0E0FED0E0FDD0E0FC12039B
:10020A0055D0E0F8E6FAEDD2E7CD33EC332482FBA1
:10021A00E4C3CF33CFCE33CECD33CD33DBF37B073D
:10022A0075F00A846004F6081B0AE5F0F6088FF0F8
:10023A00740AA4FFACF08EF0740AA42CFEACF05041
:10024A00010C8DF0740AA42CFDE435F0F608DBDE0F
:03025A0074072204
:10025D00020116E86480F8E933E83360110460F0B8
:10026D00ED33EC337009E8FCE9FDEAFEEBFF220407
:10027D0060DED3EB9FEA9EE99DE8C2E78CF0C2F702
:10028D0095F0400CE8CCF8E9CDF9EACEFAEBCFFBCE
:10029D001200E185D0F05804700320D5B3E8047046
:1002AD00075002B2D502012092D5EC0460F7E4CCE0
:1002BD00C0E0C398F8603B94186008400DD0E0FB97
:1002CD000200F8E4FBFAC9FC8028E830E406E4C932
:1002DD00FBE4CAFCE830E305E4C9CACBFCE85407EB
:1002ED006010F8C3E913F9EA13FAEB13FBEC13FCF6
:1002FD00D8F130F52FC3E49CFCEF9BFFEE9AFEED99
:10030D0099FDD0E0FBEF4E4D4C701222DB03020144
:10031D001DEC2CFCEF33FFEE33FEED33FDED30E73E
:10032D00EB0200F8EF2BFFEE3AFEED39FDD0E0FBCE
:10033D0050130BBB0003020120ED13FDEE13FEEF76
:08034D0013FFEC13FC0200F8A1
:10035500EC4D6011E8497017ED33EC3304600DE4A2
:10036500FCFFFEFD22E933E8330470F802011612A2
:1003750000E158046009E4CC2481500628500902A4
:10038500012028400302011DC0E0EB4A7044B980FA
:1003950006D0E0FB02010CEF4E701CBD8008EBFFA0
:1003A500EAFEE9FD80EBE98DF0A4FEE5F002043EEE
:1003B500E9CDF9EAFEEBFFEF89F0A4FCE5F0CE8983
:1003C500F0A42EFFE435F0CD89F0A42DFEE435F040
:1003D5008067EF4E7005BD80D780C3EF8BF0A4AC6E
:1003E500F0EE8BF0A42CFCE435F0F8EF8AF0A42CA9
:1003F500E5F038FCE433CB8DF0A42CFCE5F03BF8BC
:10040500EE8AF0A42CFCE5F038F8E433CF89F0A4AB
:100415002CFCE5F038CF3400CE89F0A42FFFE5F0B1
:100425003EFEE433C98DF0A42EFEE5F039CD8AF009
:10043500A42FFFE5F03EFEE43DFD33D0E0FB500781
:100445000BBB000F020120EC2CFCEF33FFEE33FE5B
:06045500ED33FD0200F88A
:10045B003F8000004120000042C80000447A0000A9
:10046B00461C400047C35000497424004B1896802B
:10047B004CBEBC205A0E1BCA6753C21C749DC5AE22
:10048B00FB60065407601C23231204B9EB5438603D
:10049B00091204A51204B4120355ECF8EDF9EEFAA7
:1004AB00EFCB22EB1204B480F1543803241C9004DC
:1004BB005BFE93FC0EEE93FD0EEE930ECE93FF229E
:03000000024BF1BF
:0C4BF100787FE4F6D8FD758180023A79E7
:1004CB00BB010689828A83E0225002E722BBFE022F
:0904DB00E32289828A83E4932262
:1004E400BB010CE58229F582E5833AF583E02250CD
:1004F40006E92582F8E622BBFE06E92582F8E22217
:0D050400E58229F582E5833AF583E4932230
:10051100BB010689828A83F0225002F722BBFE01C9
:02052100F322C3
:10052300E88FF0A4CC8BF0A42CFCE98EF0A42CFC77
:100533008AF0EDA42CFCEA8EF0A4CDA8F08BF0A4F5
:100543002DCC3825F0FDE98FF0A42CCD35F0FCEB54
:100553008EF0A4FEA9F0EB8FF0A4CFC5F02ECD3919
:0F056300FEE43CFCEAA42DCE35F0FDE43CFC2286
:1005720075F008758200EF2FFFEE33FECD33CDCC40
:1005820033CCC58233C5829BED9AEC99E5829840C3
:100592000CF582EE9BFEED9AFDEC99FC0FD5F0D6A0
:1005A200E4CEFBE4CDFAE4CCF9A88222B800C1B9CA
:1005B2000059BA002DEC8BF084CFCECDFCE5F0CB08
:1005C200F97818EF2FFFEE33FEED33FDEC33FCEB41
:1005D20033FB10D703994004EB99FB0FD8E5E4F9FC
:1005E200FA227818EF2FFFEE33FEED33FDEC33FCE9
:1005F200C933C910D7059BE99A4007EC9BFCE99ADD
:10060200F90FD8E0E4C9FAE4CCFB2275F010EF2F21
:10061200FFEE33FEED33FDCC33CCC833C810D70721
:100622009BEC9AE899400AED9BFDEC9AFCE899F85C
:0E0632000FD5F0DAE4CDFBE4CCFAE4C8F922EF
:0E064000C3E49FFFE49EFEE49DFDE49CFC22CB
:10064E00EB9FF5F0EA9E42F0E99D42F0E89C45F002
:01065E002279
:10065F00E8600FECC313FCED13FDEE13FEEF13FF79
:03066F00D8F1229D
:10067200E8600FEFC333FFEE33FEED33FDEC33FCE6
:03068200D8F1228A
:0C068500E6FC08E6FD08E6FE08E6FF22A1
:0D069100E6FB08E6F908E6FA08E6CBF822D9
:10069E007401FF3395E0FEFDFCA3A3A3E02FFFF052
:1006AE00E582158270021583E03EFEF0E58215822A
:1006BE0070021583E03DFDF0E58215827002158310
:0506CE00E03CFCF022FD
:0C06D300ECF608EDF608EEF608EFF62253
:0C06DF00ECF0A3EDF0A3EEF0A3EFF0228E
:1006EB00D083D082E493F608740193F608740293D6
:0906FB00F608740393F67404730D
:10070400A8828583F0D083D08212071B12071B12A4
:10071400071B12071BE473E493A3C583C5F0C583C9
:10072400C8C582C8F0A3C583C5F0C583C8C582C83F
:0107340022A2
:10073500FAE6FB0808E6F925F0F618E6CA3AF622C5
:10074500D083D082F8E4937012740193700DA3A343
:1007550093F8740193F5828883E473740293686057
:06076500EFA3A3A380DF57
:1049D000EFB40A07740D1249DB740A309811A899D4
:1049E000B8130CC2983098FDA899C298B811F63047
:0749F00099FDC299F599221F
:10076B00E709F60870FA8046E709F20870FA803E4E
:10077B0088828C83E709F0A370FA807EE309F60880
:10078B0070FA8076E309F20870FA806E88828C83A7
:10079B00E309F0A370FA806289828A83E0A3F608EA
:1007AB0070FA805689828A83E0A3F20870FA804A35
:1007BB0080D280FA80C680D4806580F28031801030
:1007CB0080A680EA809A80A880DA80E280CA803195
:1007DB0089828A83ECFAE493A3C8C582C8CCC5830B
:1007EB00CCF0A3C8C582C8CCC583CC70E9800D8979
:1007FB00828A83E493A3F60870F9ECFAA9F0EDFB77
:10080B002289828A83ECFAE0A3C8C582C8CCC5834F
:10081B00CCF0A3C8C582C8CCC583CC70EA80DD8977
:10082B00828A83E493A3F20870F980CE88F0ED24DA
:10083B0002B4040050C4F582EB2402B4040050BA95
:09084B0023234582239007BB73AF
:10085400EF4E6012EF60010EEDBB010B89828A83BB
:10086400F0A3DFFCDEFA2289F05007F709DFFCA9C8
:0C087400F022BBFEFCF309DFFCA9F0221F
:00000001FF
