:1005A90075A15575A1AA43B98053B9BF75A15575F0
:0E05B900A1AAE5B954F84405F5B9E4F5A1226C
:10002F00EF4E601505A105A105A105A105A105A12B
:0A003F0005A1EF1F70EA1E80E72202
:1005F900AD07AC06ED4C600E7FE87E0312002FEDCF
:070609001D70F11C80EE22C0
:0A06C50043C40C43C50C43AA1022E5
:10050E00C29FD29EC29DC2CDC2CC438780E47526C7
:10051E0082F525F524F5237B0AFAF9F8AF26AE25E8
:10052E00AD24AC231203EEAF038F27AF26AE25AD5D
:10053E0024AC23E47B0AFAF9F81203EE8F268E25FB
:10054E008D248C23E527C394054011EF2401F52655
:10055E00E43EF525E43DF524E43CF523E589540F0E
:10056E004420F58943C9A0E526F404F58DD28ED238
:03057E0099D29C73
:010581002257
:0A06CF0075A15575A1AA43B11022D0
:1006100075A15575A1AAEF600543B101800353B1DF
:07062000FEE4F5A1F5FF2245
:03004E008FFF22FF
:10063E00554152542064656D6F207374617274203D
:05064E002E2E2E0A0013
:100003001205A97F147E001205F912050E7BFF7AF3
:1000130006793E1200B81206531206D912062712A9
:0C00230006671206AF8F221206BA80F6A4
:1006530053BC7F43BC2043BC1075BEF375BF02D2AD
:04066300ECD2AF2204
:0A06D9004392C04393C043AA2022BD
:0B068300E5BF30E0FB75BF01AFBD22FA
:0B068E008FBDE5BF30E1FB75BF02220D
:030053000205C7DC
:0705C700C0E0C0D075D008B0
:0D05CE00E5BF30E00875BF01AFBD12068E1D
:0505DB00D0D0D0E03299
:1006270053B47F43B42043B41075B6F375B7024390
:07063700B440D2EBD2AF2268
:0B069900E5B730E0FB75B701AFB522FC
:0B06A4008FB5E5B730E1FB75B702220F
:03004B000205E0CB
:0705E000C0E0C0D075D00897
:0D05E700E5B730E00875B701AFB51206A406
:0505F400D0D0D0E03280
:1006670053AC7F43AC2043AC1075AEF375AF022299
:0B06AF00E5AF30E0FB75AF01AFAD22FE
:0B06BA008FADE5AF30E1FB75AF022211
:030000000206777E
:0C067700787FE4F6D8FD758136020003A0
:1003B20075F008758200EF2FFFEE33FECD33CDCC02
:1003C20033CCC58233C5829BED9AEC99E582984085
:1003D2000CF582EE9BFEED9AFDEC99FC0FD5F0D662
:1003E200E4CEFBE4CDFAE4CCF9A88222B800C1B98C
:1003F2000059BA002DEC8BF084CFCECDFCE5F0CBCA
:10040200F97818EF2FFFEE33FEED33FDEC33FCEB02
:1004120033FB10D703994004EB99FB0FD8E5E4F9BD
:10042200FA227818EF2FFFEE33FEED33FDEC33FCAA
:10043200C933C910D7059BE99A4007EC9BFCE99A9E
:10044200F90FD8E0E4C9FAE4CCFB2275F010EF2FE3
:10045200FFEE33FEED33FDCC33CCC833C810D707E3
:100462009BEC9AE899400AED9BFDEC9AFCE899F81E
:0E0472000FD5F0DAE4CDFBE4CCFAE4C8F922B1
:10005600E5322426F8E60532227823300702782690
:10006600E475F0011204D80204802000EB7F2ED242
:10007600008018EF540F2490D43440D4FF30040B82
:10008600EF24BFB41A0050032461FFE53360021564
:10009600330536E5367002053530070D7823E475ED
:1000A600F0011204D8EF0204C60205827403D207D7
:1000B6008003E4C207F5328B238A248925E4F533CD
:1000C600F535F536E53360077F2012009180F5752A
:1000D60034FFC201C200C202C203C205C206C20880
:1000E60012005FFF700D3007057F001200A2AF36C9
:1000F600AE3522B4255FC2D5C20412005FFF24D0FC
:10010600B40A00501A75F00A783330D50508B6FFE0
:100116000106C6A426F620D5047002D20380D9248F
:10012600CFB41A00EF5004C2E5D2040202A2D201F3
:1001360080C6D20080C0D20280BCD2D580BAD20599
:1001460080B47F201200912002077401B53300406D
:10015600F1120056FF1200910200CAD208D20680A0
:1001660095120056FB120056FA120056F94A4B70C9
:100176000679737A037BFF20022EE533602A7E0020
:100186008E8275830012049960060EEE653470F057
:10019600C2D5EBC0E0EAC0E0E9C0E0EE1202E9D069
:1001A600E0F9D0E0FAD0E0FB120480FF60AAEBC0D1
:1001B600E0EAC0E0E9C0E0120091D0E02401F9D005
:1001C600E03400FAD0E0FBE5340460DCD534D980B5
:1001D600877BFF7A0279E5D202809C7910800279CA
:1001E60008C206C2088008D2D5790A8004790AC2F4
:1001F600D5E534047002F534E4FAFDFEFF1200562C
:10020600FC7B08200113120056FD7B1030000A12F9
:100216000056FE120056FF7B20EC3382D592D55055
:1002260013C3E43000069FFFE49EFEE42001039D15
:10023600FDE49CFCE4CBF8C201EC700CCFCECDCC37
:10024600E824F8F870F38017C3EF33FFEE33FEEDC2
:1002560033FDEC33FCEB33FB994002FB0FD8E9EBA3
:10026600300105F8D0E0C448B201C0E00AEC4D4EBA
:100276004F78207B0070C2EAB5340040BCC0E01263
:1002860002EBD0F0D0E0200104C4C0E0C4B201C04B
:10029600F012007AD0F0D5F0EB0200CA1204E801A1
:1002A600675301E15801384C01344201E54F01ED35
:0F02B6004401ED49014D4301F35501D74601D7EE
:1002C5004501D747039350013C2D01402E01632B77
:1002D500014423016120037C2A00FC480000015BE6
:1002E5003F3F3F00790AA2D5200314300509B91014
:1002F500020404B9080104A2D52006025001042015
:1003050002689202B533005034C0E07F20300319F3
:100315007F30A20272067205500F120342C202C25A
:1003250006C205C2087F30800F300503E9C0E01220
:100335000091300503D0E0F9D0E0B533CC30051796
:100345007F30B9100C1200917F583004077F7880F8
:1003550003B908031200913002057F2D0200917F39
:10036500202008F87F2B2006F322920280CF286EEA
:10037500756C6C2900D2011200563001F8C2017863
:100385003330D50108F60200FC2D504349581200C0
:10039500562403B405004001E490038E93120082B5
:0D03A500743A120082D2037533040201E1A4
:10048000BB010689828A83E0225002E722BBFE027A
:09049000E32289828A83E49322AD
:10049900BB010CE58229F582E5833AF583E0225018
:1004A90006E92582F8E622BBFE06E92582F8E22262
:0D04B900E58229F582E5833AF583E493227C
:1004C600BB010689828A83F0225002F722BBFE0115
:0204D600F3220F
:1004D800FAE6FB0808E6F925F0F618E6CA3AF62225
:1004E800D083D082F8E4937012740193700DA3A3A3
:1004F80093F8740193F5828883E4737402936860B7
:06050800EFA3A3A380DFB6
:10058200EFB40A07740D12058D740A309811A899F8
:10059200B8130CC2983098FDA899C298B811F630D9
:0705A20099FDC299F59922B1
:00000001FF
