:10072D0075A15575A1AA43B98053B9BF75A155756A
:0E073D00A1AAE5B954F84405F5B9E4F5A122E6
:10074B00EF4E601505A105A105A105A105A105A108
:0A075B0005A1EF1F70EA1E80E722DF
:10076500AD07AC06ED4C600E7FE87E0312074BED3E
:070775001D70F11C80EE2253
:0A07B00043C40C43C50C43AA1022F9
:1005DA00C29FD29EC29DC2CDC2CC438780E47527FA
:1005EA0082F526F525F5247B0AFAF9F8AF27AE2617
:1005FA00AD25AC2412039BAF038F28AF27AE26ADDF
:10060A0025AC24E47B0AFAF9F812039B8F278E267D
:10061A008D258C24E528C394054011EF2401F52784
:10062A00E43EF526E43DF525E43CF524E589540F3E
:10063A004420F58943C9A0E527F404F58DD28ED26A
:03064A0099D29CA6
:01064D00228A
:0A07BA0075A15575A1AA43B11022E4
:10077C0075A15575A1AAEF600543B101800353B172
:07078C00FEE4F5A1F5FF22D8
:0307C4008FFF2282
:10064E00547970652D432044656D6F20737461720B
:10065E0074202E2E2E0A0055465020646973636F47
:10066E006E6E6563742E2E2E0A005546502043433F
:10067E003120696E73657274696F6E2E2E2E0A00AC
:10068E005546502043433220696E73657274696F0C
:10069E006E2E2E2E0A0055465020636F6E6E6563C9
:0606AE00742E2E2E0A003E
:10056200E4F522F52312072D7F147E00120765128F
:1005720005DA7BFF7A06794E1200657F031206B414
:100582001204BB7522008F23E5234522700AD296FE
:100592007BFF7A0679658034E52364014522700A7F
:1005A200C2967BFF7A0679788022E523640245228F
:1005B200700AC2967BFF7A06798E8010E523640367
:1005C2004522700BC2967BFF7A0679A41200657FE2
:0805D200F47E0112076580A808
:10079300554343313A256420554343323A25640A8D
:0107A3000055
:1006B4005392CF5393CFD2915392FD439302EF7051
:1006C400087591FC7591CF8029BF0112E59154FD05
:1006D4004401F591E59154DF4410F5918014BF0273
:1006E400084391024391208009BF030643910343C9
:1006F400913043F32853F3FC75F2207F027E00020D
:02070400074BA1
:1004BB0075F60475F210E5F230E5FB75F220E5F503
:1004CB00540FF52485F42575F60575F210E5F23019
:1004DB00E5FB75F220E5F5540FF52685F4277BFF38
:1004EB007A07799385242B85252CF52D85272E12BC
:1004FB000065D3E5259487E5249406500DE52794F4
:10050B0087E526940650037F0322D3E5259487E5E0
:10051B00249406500EC3E5279487E52694064003E2
:10052B007F0122C3E5259487E5249406400ED3E58D
:10053B00279487E526940650037F0222C3E5259472
:10054B0087E5249406400DE5279487E5269406401D
:06055B00037F00227F0077
:010561002277
:030000000207A450
:0C07A400787FE4F6D8FD75813B02056209
:10035F0075F008758200EF2FFFEE33FECD33CDCC55
:10036F0033CCC58233C5829BED9AEC99E5829840D8
:10037F000CF582EE9BFEED9AFDEC99FC0FD5F0D6B5
:10038F00E4CEFBE4CDFAE4CCF9A88222B800C1B9DF
:10039F000059BA002DEC8BF084CFCECDFCE5F0CB1D
:1003AF00F97818EF2FFFEE33FEED33FDEC33FCEB56
:1003BF0033FB10D703994004EB99FB0FD8E5E4F911
:1003CF00FA227818EF2FFFEE33FEED33FDEC33FCFE
:1003DF00C933C910D7059BE99A4007EC9BFCE99AF2
:1003EF00F90FD8E0E4C9FAE4CCFB2275F010EF2F37
:1003FF00FFEE33FEED33FDCC33CCC833C810D70737
:10040F009BEC9AE899400AED9BFDEC9AFCE899F871
:0E041F000FD5F0DAE4CDFBE4CCFAE4C8F92204
:10000300E537242BF8E60537227828300702782BCA
:10001300E475F00112048502042D2000EB7F2ED23B
:10002300008018EF540F2490D43440D4FF30040BD5
:10003300EF24BFB41A0050032461FFE538600215B2
:1000430038053BE53B7002053A30070D7828E47527
:10005300F001120485EF0204730207067403D2074A
:100063008003E4C207F5378B288A29892AE4F53807
:10007300F53AF53BE53860077F2012003E80F575C1
:1000830039FFC201C200C202C203C205C206C208CE
:1000930012000CFF700D3007057F0012004FAF3BBD
:1000A300AE3A22B4255FC2D5C20412000CFF24D09D
:1000B300B40A00501A75F00A783830D50508B6FF2F
:1000C3000106C6A426F620D5047002D20380D924E3
:1000D300CFB41A00EF5004C2E5D20402024FD2019A
:1000E30080C6D20080C0D20280BCD2D580BAD205ED
:1000F30080B47F2012003E2002077401B53800400F
:10010300F1120003FF12003E020077D208D20680EC
:1001130095120003FB120003FA120003F94A4B7015
:100123000679207A037BFF20022EE538602A7E00C1
:100133008E8275830012044660060EEE653970F0F8
:10014300C2D5EBC0E0EAC0E0E9C0E0EE120296D00F
:10015300E0F9D0E0FAD0E0FB12042DFF60AAEBC077
:10016300E0EAC0E0E9C0E012003ED0E02401F9D0AB
:10017300E03400FAD0E0FBE5390460DCD539D980FE
:10018300877BFF7A027992D202809C791080027970
:1001930008C206C2088008D2D5790A8004790AC247
:1001A300D5E539047002F539E4FAFDFEFF120003C8
:1001B300FC7B08200113120003FD7B1030000A12A0
:1001C3000003FE120003FF7B20EC3382D592D5504F
:1001D30013C3E43000069FFFE49EFEE42001039D69
:1001E300FDE49CFCE4CBF8C201EC700CCFCECDCC8B
:1001F300E824F8F870F38017C3EF33FFEE33FEED16
:1002030033FDEC33FCEB33FB994002FB0FD8E9EBF6
:10021300300105F8D0E0C448B201C0E00AEC4D4E0D
:100223004F78207B0070C2EAB5390040BCC0E012B1
:100233000298D0F0D0E0200104C4C0E0C4B201C0F1
:10024300F0120027D0F0D5F0EB02007712049501ED
:100253001453018E5800E54C00E14201924F019A7C
:0F02630044019A4900FA4301A0550184460184E1
:100272004501844703405000E92D00ED2E01102B6B
:1002820000F123010E2003292A00A94800000108D9
:100292003F3F3F00790AA2D5200314300509B91067
:1002A200020404B9080104A2D52006025001042068
:1002B20002689202B538005034C0E07F2030031942
:1002C2007F30A20272067205500F1202EFC202C202
:1002D20006C205C2087F30800F300503E9C0E01274
:1002E200003E300503D0E0F9D0E0B538CC30051738
:1002F2007F30B9100C12003E7F583004077F78809F
:1003020003B9080312003E3002057F2D02003E7F32
:10031200202008F87F2B2006F322920280CF286E3D
:10032200756C6C2900D2011200033001F8C2017809
:100332003830D50108F60200A92D50434958120061
:10034200032403B405004001E490033B9312002F01
:0D035200743A12002FD20375380402018E98
:10042D00BB010689828A83E0225002E722BBFE02CD
:09043D00E32289828A83E4932200
:10044600BB010CE58229F582E5833AF583E022506B
:1004560006E92582F8E622BBFE06E92582F8E222B5
:0D046600E58229F582E5833AF583E49322CF
:10047300BB010689828A83F0225002F722BBFE0168
:02048300F32262
:10048500FAE6FB0808E6F925F0F618E6CA3AF62278
:10049500D083D082F8E4937012740193700DA3A3F6
:1004A50093F8740193F5828883E47374029368600A
:0604B500EFA3A3A380DF0A
:10070600EFB40A07740D120711740A309811A899EC
:10071600B8130CC2983098FDA899C298B811F63053
:0707260099FDC299F599222B
:00000001FF
