:100B220075A15575A1AA43B98053B9BF75A1557571
:0E0B3200A1AAE5B954F84405F5B9E4F5A122ED
:100B4000EF4E601505A105A105A105A105A105A10F
:0A0B500005A1EF1F70EA1E80E722E6
:100B5A00AD07AC06ED4C600E7FE87E03120B40ED4C
:070B6A001D70F11C80EE225A
:0A0B940043C40C43C50C43AA102211
:10091400C29FD29EC29DC2CDC2CC438780E4750ED5
:1009240082F50DF50CF50B7B0AFAF9F8AF0EAE0D56
:10093400AD0CAC0B12062FAF038F0FAF0EAE0DAD87
:100944000CAC0BE47B0AFAF9F812062F8F0E8E0D0D
:100954008D0C8C0BE50FC394054011EF2401F50EAB
:10096400E43EF50DE43DF50CE43CF50BE589540F4C
:100974004420F58943C9A0E50EF404F58DD28ED246
:0309840099D29C69
:01098700224D
:0A0B9E0075A15575A1AA43B11022FC
:100B710075A15575A1AAEF600543B101800353B179
:070B8100FEE4F5A1F5FF22DF
:030BA8008FFF229A
:10098800A2AF9200C2AFCF54C0CFC3EE94F04009DB
:10099800EE94F450047C0480027C0875A15575A17E
:1009A800AAEC42B18E858F84758F80E4F58EE5863A
:1009B80030E6107586A6E58630E1047D028006E4FF
:1009C800FD80027D0175A15575A1AAECF452B1A272
:0609D8000092AFCFEDCF4D
:0109DE0022F6
:1009DF00A2AF9209C2AFC3EE94F04009EE94F45067
:1009EF00047B0480027B0875A15575A1AAEB42B167
:1009FF008E858F84758F808D8EE58630E610758697
:100A0F009AE58630E1047C028006E4FC80027C01DA
:100A1F0075A15575A1AAEBF452B1A20992AFCFEC13
:010A2F00CFF7
:010A300022A3
:060892008B0B8F828E83A8
:10089800A2AF9200C2AFC3E58394F0400AE5839407
:1008A800F4500479048002790875A15575A1AAE964
:1008B80042B1AF82EF543FFFC374409FFEE50BD3B4
:1008C8009E40037FFC22CEEDCEEE543F6F60037F47
:1008D800FB22858385858284E50B2F14F58F8E8214
:1008E800ECF583E58630E61075869AE58630E104F6
:1008F8007A028006E4FA80027A0175A15575A1AAE8
:0B090800E9F452B1A20092AFCFEACF99
:0109130022C1
:0A0A31008E0B8F0C8B0D8A0E890FBF
:100A3B00E4FFFEEF65117003EE65106034850C82E8
:100A4B00850B83E493AB0DAA0EA90F8F828E8312B5
:100A5B0005D1E50CF47003E50BF470060FBF000035
:100A6B00800F050CE50C7002050B0FBF00010E800B
:010A7B00C2B8
:010A7C002257
:100AC100A2AF920AC2AF75A15575A1AA43B104EFB5
:100AD100FB7585008B84758F808D8E758699E58673
:100AE10030E1047E028002E4FE75A15575A1AA538E
:090AF100B1FBA20A92AFCFEECFD7
:010AFA0022D9
:100A7D007585008F8475868DAF8EAE8FE48F0E8E4B
:100A8D000DF50CF50BAD0CAC0B78101206C18F0EDD
:100A9D008E0D8D0C8C0BAF84AE85E50E4FF50EE5EE
:100AAD000D4EF50DE50CF50CE50BF50BAF0EAE0D82
:030ABD00AD0CFC81
:010AC0002213
:10078E00466C617368526F6D2064656D6F20737473
:10079E00617274202E2E2E0A0044617461466C61C3
:1007AE0073682045726173652E2E2E0A0025303235
:1007BE0078200A0044617461466C61736820577238
:1007CE006974652E2E2E0A0044617461466C617345
:1007DE006820526561642E2E2E0A007265616C20AF
:1007EE006C656E3A25640A00253032782000457219
:1007FE0072204F66667365743A253032780A000AA5
:10080E000A00436F6465466C6173682045726173BC
:10081E00652E2E2E0A00436F6465466C6173682048
:10082E0057726974652E2E2E0A00436F6465466CEE
:10083E0061736820526561642E2E2E0A00436F6E1E
:10084E0066696720496E666F726D6174696F6E209E
:10085E00526561642E2E2E0A006366673A25303289
:10086E007820253032780A00556E697175652049F9
:10087E00442E2E2E0A003078256C782000307825F4
:04088E006C780A0078
:10035F00120B227F147E00120B5A1209147BFF7AA4
:10036F0007798E120065E4F50974002509F582E41A
:10037F003400F583E509F00509E509B440EB7E008B
:10038F007F407D007B017A0079401206D47BFF7A93
:10039F000779A71200657F007EF01209888F08E5A4
:1003AF0008600E7BFF7A0779BB750E00F50F120000
:1003BF00657BFF7A0779C21200657C007D007B4068
:1003CF007F007EF01208928F08E508600E7BFF7A9F
:1003DF000779BB750E00F50F1200657BFF7A077961
:1003EF00D61200657B017A007940751000751140B7
:1003FF007F007EF0120A318F0A7BFF7A0779E97549
:10040F000E008F0F120065E4F509E509650A6048D3
:10041F007BFF7A0779F674402509F582E43400F5FD
:10042F0083E0750E00F50F12006574002509F58243
:10043F00E43400F583E0FF74402509F582E43400CD
:10044F00F583E06F600E7BFF7A0779FC85090E124A
:10045F00006580FE050980B27BFF7A08790D1200D6
:10046F00657E007F407D007B017A0079401206D4C3
:10047F007BFF7A0879101200657FC07EEF12098822
:10048F008F08E508600E7BFF7A0779BB750E00F5C4
:10049F000F1200657BFF7A0879241200657C007DBE
:1004AF00007B407FC07EEF1208928F08E508600E38
:1004BF007BFF7A0779BB750E00F50F1200657BFF86
:1004CF007A0879381200657B017A0079407510003F
:1004DF007511407FC07EEF120A318F0A7BFF7A07BA
:1004EF0079E9750E008F0F120065E4F509E50965CE
:1004FF000A60487BFF7A0779F674402509F582E494
:10050F003400F583E0750E00F50F120065740025B9
:10051F0009F582E43400F583E0FF74402509F58284
:10052F00E43400F583E06F600E7BFF7A0779FC857A
:10053F00090E12006580FE050980B27BFF7A0879EB
:10054F000D1200657BFF7A08794B1200657B017AEB
:10055F000079407510007511027FFE7EFF120A317F
:10056F008F0A7BFF7A0779E9750E008F0F120065EE
:10057F007BFF7A087967900041E0750E00F50F90C8
:10058F000040E0751000F5111200657BFF7A0879C5
:10059F00761200657F14120A7D8F118E108D0F8CCD
:1005AF000E7BFF7A0879841200657F10120A7D8F07
:1005BF00118E108D0F8C0E7BFF7A08798B120065D0
:0205CF0080FEAC
:03000000020B8868
:0C0B8800787FE4F6D8FD75812102035F40
:1005D100F8BB010DE58229F582E5833AF583E8F060
:1005E100225006E92582C8F622BBFE05E92582C80C
:0205F100F222F4
:1005F30075F008758200EF2FFFEE33FECD33CDCCBF
:1006030033CCC58233C5829BED9AEC99E582984041
:100613000CF582EE9BFEED9AFDEC99FC0FD5F0D61E
:10062300E4CEFBE4CDFAE4CCF9A88222B800C1B948
:100633000059BA002DEC8BF084CFCECDFCE5F0CB86
:10064300F97818EF2FFFEE33FEED33FDEC33FCEBBF
:1006530033FB10D703994004EB99FB0FD8E5E4F97A
:10066300FA227818EF2FFFEE33FEED33FDEC33FC67
:10067300C933C910D7059BE99A4007EC9BFCE99A5B
:10068300F90FD8E0E4C9FAE4CCFB2275F010EF2FA0
:10069300FFEE33FEED33FDCC33CCC833C810D707A0
:1006A3009BEC9AE899400AED9BFDEC9AFCE899F8DB
:0E06B3000FD5F0DAE4CDFBE4CCFAE4C8F9226E
:1006C100E8600FEFC333FFEE33FEED33FDEC33FC97
:0306D100D8F1223B
:10000300E51A240EF8E6051A22780B300702780E5B
:10001300E475F0011207580207002000EB7F2ED28F
:10002300008018EF540F2490D43440D4FF30040BD5
:10003300EF24BFB41A0050032461FFE51B600215CF
:100043001B051EE51E7002051D30070D780BE475B8
:10005300F001120758EF020746020AFB7403D207A6
:100063008003E4C207F51A8B0B8A0C890DE4F51B98
:10007300F51DF51EE51B60077F2012003E80F57518
:100083001CFFC201C200C202C203C205C206C208EB
:1000930012000CFF700D3007057F0012004FAF1EDA
:1000A300AE1D22B4255FC2D5C20412000CFF24D0BA
:1000B300B40A00501A75F00A781B30D50508B6FF4C
:1000C3000106C6A426F620D5047002D20380D924E3
:1000D300CFB41A00EF5004C2E5D20402024FD2019A
:1000E30080C6D20080C0D20280BCD2D580BAD205ED
:1000F30080B47F2012003E2002077401B51B00402C
:10010300F1120003FF12003E020077D208D20680EC
:1001130095120003FB120003FA120003F94A4B7015
:100123000679207A037BFF20022EE51B602A7E00DE
:100133008E8275830012071960060EEE651C70F03F
:10014300C2D5EBC0E0EAC0E0E9C0E0EE120296D00F
:10015300E0F9D0E0FAD0E0FB120700FF60AAEBC0A1
:10016300E0EAC0E0E9C0E012003ED0E02401F9D0AB
:10017300E03400FAD0E0FBE51C0460DCD51CD98038
:10018300877BFF7A027992D202809C791080027970
:1001930008C206C2088008D2D5790A8004790AC247
:1001A300D5E51C047002F51CE4FAFDFEFF12000302
:1001B300FC7B08200113120003FD7B1030000A12A0
:1001C3000003FE120003FF7B20EC3382D592D5504F
:1001D30013C3E43000069FFFE49EFEE42001039D69
:1001E300FDE49CFCE4CBF8C201EC700CCFCECDCC8B
:1001F300E824F8F870F38017C3EF33FFEE33FEED16
:1002030033FDEC33FCEB33FB994002FB0FD8E9EBF6
:10021300300105F8D0E0C448B201C0E00AEC4D4E0D
:100223004F78207B0070C2EAB51C0040BCC0E012CE
:100233000298D0F0D0E0200104C4C0E0C4B201C0F1
:10024300F0120027D0F0D5F0EB0200771207680117
:100253001453018E5800E54C00E14201924F019A7C
:0F02630044019A4900FA4301A0550184460184E1
:100272004501844703405000E92D00ED2E01102B6B
:1002820000F123010E2003292A00A94800000108D9
:100292003F3F3F00790AA2D5200314300509B91067
:1002A200020404B9080104A2D52006025001042068
:1002B20002689202B51B005034C0E07F203003195F
:1002C2007F30A20272067205500F1202EFC202C202
:1002D20006C205C2087F30800F300503E9C0E01274
:1002E200003E300503D0E0F9D0E0B51BCC30051755
:1002F2007F30B9100C12003E7F583004077F78809F
:1003020003B9080312003E3002057F2D02003E7F32
:10031200202008F87F2B2006F322920280CF286E3D
:10032200756C6C2900D2011200033001F8C2017809
:100332001B30D50108F60200A92D5043495812007E
:10034200032403B405004001E490033B9312002F01
:0D035200743A12002FD203751B0402018EB5
:1006D400EF4E6012EF60010EEDBB010B89828A833D
:1006E400F0A3DFFCDEFA2289F05007F709DFFCA94A
:0C06F400F022BBFEFCF309DFFCA9F022A1
:10070000BB010689828A83E0225002E722BBFE02F7
:09071000E32289828A83E493222A
:10071900BB010CE58229F582E5833AF583E0225095
:1007290006E92582F8E622BBFE06E92582F8E222DF
:0D073900E58229F582E5833AF583E49322F9
:10074600BB010689828A83F0225002F722BBFE0192
:02075600F3228C
:10075800FAE6FB0808E6F925F0F618E6CA3AF622A2
:10076800D083D082F8E4937012740193700DA3A320
:1007780093F8740193F5828883E473740293686034
:06078800EFA3A3A380DF34
:100AFB00EFB40A07740D120B06740A309811A899FB
:100B0B00B8130CC2983098FDA899C298B811F6305A
:070B1B0099FDC299F5992232
:00000001FF
