:1007CF0075A15575A1AA43B98053B9BF75A15575C8
:0E07DF00A1AAE5B954F84405F5B9E4F5A12244
:10000E00EF4E601505A105A105A105A105A105A14C
:0A001E0005A1EF1F70EA1E80E72223
:10080500AD07AC06ED4C600E7FE87E0312000EEDE1
:070815001D70F11C80EE22B2
:0A08820043C40C43C50C43AA102226
:10067F00C29FD29EC29DC2CDC2CC438780E4753A41
:10068F0082F539F538F5377B0AFAF9F8AF3AAE3912
:10069F00AD38AC371203C6AF038F3BAF3AAE39ADAF
:1006AF0038AC37E47B0AFAF9F81203C68F3A8E3961
:1006BF008D388C37E53BC394054011EF2401F53A93
:1006CF00E43EF539E43DF538E43CF537E589540F60
:1006DF004420F58943C9A0E53AF404F58DD28ED2B2
:0306EF0099D29C01
:0106F20022E5
:0A088C0075A15575A1AA43B1102211
:10081C0075A15575A1AAEF600543B101800353B1D1
:07082C00FEE4F5A1F5FF2237
:030003008FFF224A
:1006F30054696D65722044656D6F20737461727403
:10070300202E2E2E0A0054302054657374202E2E72
:100713002E0A0054325F4341502054657374202ED7
:040723002E2E0A006C
:100602001207CF7F057E0012080512067F7BFF7A54
:100612000679F312009053927F4393807BFF7A070F
:10062200790912009053C9EF7D01E4FF1207597D49
:10063200D07C07E4FF120727D28CD2A9D2AF7BFF6E
:100642007A0779161200905392FD5393FD5392FE4E
:100652005393FE5396BF5397BF53C9BFC2C9E4FD1C
:10066200FC7F021207277F011208707F011207ED3B
:0D0672007F0112084AD2CAD2ADD2AF80FE7D
:1007AE004341503220253034780A004341503120E5
:1007BE00253034780A004341503020253034780AF1
:0107CE00002A
:10085D00045300000000044F00000000044B000092
:02086D00000089
:10075900EF7009E58954F04DF589801FBF010EED51
:10076900C454F0FFE589540F4FF589800EBF020884
:0E077900C2CDC2CCC2C880037F00227F012205
:10072700C3E49DFDE49CFCEF700AEDF58ACFECCFA6
:10073700EFF58C22BF0107EDF58BECF58D22BF029B
:1007470010CFEDCFEDF5CC8FCACFECCFECF5CD8F39
:01075700CBD6
:01075800227E
:10087000C2CDC2CCC2C9D2CBD2C8EF25E025E0425E
:02088000C9228B
:1007ED00C2CDC2CCD2C8C2C9EF25E025E0FFE5C914
:0807FD0054FD4F4401F5C9222F
:10084A00C2CDC2CCD2C8C2C9EF25E025E042C975E3
:03085A00C10122B7
:03000B00020833B5
:10083300C0E0C0D075D0087DD07C07E4FF12072745
:07084300B297D0D0D0E032E3
:03002B000204E6E6
:1004E600C0E0C0F0C083C082C0D075D01830CE2422
:1004F60085CB5385CA547BFF7A0779AEC3E55495FD
:1005060056F53BE5539555F53A12009085535585BA
:100516005456C2CE30CF2485CF4F85CE507BFF7A3E
:100526000779B9C3E5509552F53BE54F9551F53A34
:10053600120090854F51855052C2CFE5C130E32558
:1005460085C74B85C64C7BFF7A0779C4C3E54C95B6
:100556004EF53BE54B954DF53A120090854B4D8592
:100566004C4E53C1F7D0D0D082D083D0F0D0E032F9
:0300000002057680
:0C057600787FE4F6D8FD7581560205BDC3
:10038A0075F008758200EF2FFFEE33FECD33CDCC2A
:10039A0033CCC58233C5829BED9AEC99E5829840AD
:1003AA000CF582EE9BFEED9AFDEC99FC0FD5F0D68A
:1003BA00E4CEFBE4CDFAE4CCF9A88222B800C1B9B4
:1003CA000059BA002DEC8BF084CFCECDFCE5F0CBF2
:1003DA00F97818EF2FFFEE33FEED33FDEC33FCEB2B
:1003EA0033FB10D703994004EB99FB0FD8E5E4F9E6
:1003FA00FA227818EF2FFFEE33FEED33FDEC33FCD3
:10040A00C933C910D7059BE99A4007EC9BFCE99AC6
:10041A00F90FD8E0E4C9FAE4CCFB2275F010EF2F0B
:10042A00FFEE33FEED33FDCC33CCC833C810D7070B
:10043A009BEC9AE899400AED9BFDEC9AFCE899F846
:0E044A000FD5F0DAE4CDFBE4CCFAE4C8F922D9
:10002E00E546243AF8E60546227837301002783A4B
:10003E00E475F0011204B00204582009EB7F2ED2B1
:10004E00098018EF540F2490D43440D4FF300D0B98
:10005E00EF24BFB41A0050032461FFE54760021578
:10006E0047054AE54A7002054930100D7837E475A8
:10007E00F0011204B0EF02049E0207877403D2103F
:10008E008003E4C210F5468B378A388939E4F54788
:10009E00F549F54AE54760077F2012006980F5753E
:1000AE0048FFC20AC209C20BC20CC20EC20FC21155
:1000BE00120037FF700D3010057F0012007AAF4A24
:1000CE00AE4922B4255FC2D5C20D120037FF24D02F
:1000DE00B40A00501A75F00A784730D50508B6FFF5
:1000EE000106C6A426F620D5047002D20C80D924AF
:1000FE00CFB41A00EF5004C2E5D20D02027AD20A32
:10010E0080C6D20980C0D20B80BCD2D580BAD20EA6
:10011E0080B47F20120069200B077401B5470040A0
:10012E00F112002EFF1200690200A2D211D20F802E
:10013E009512002EFB12002EFA12002EF94A4B7069
:10014E0006794B7A037BFF200B2EE547602A7E0053
:10015E008E8275830012047160060EEE654870F093
:10016E00C2D5EBC0E0EAC0E0E9C0E0EE1202C1D0B9
:10017E00E0F9D0E0FAD0E0FB120458FF60AAEBC021
:10018E00E0EAC0E0E9C0E0120069D0E02401F9D055
:10019E00E03400FAD0E0FBE5480460DCD548D980B5
:1001AE00877BFF7A0279BDD20B809C791080027911
:1001BE0008C20FC2118008D2D5790A8004790AC20A
:1001CE00D5E548047002F548E4FAFDFEFF12002E54
:1001DE00FC7B08200A1312002EFD7B1030090A1238
:1001EE00002EFE12002EFF7B20EC3382D592D550CE
:1001FE0013C3E43009069FFFE49EFEE4200A039D2C
:10020E00FDE49CFCE4CBF8C20AEC700CCFCECDCC56
:10021E00E824F8F870F38017C3EF33FFEE33FEEDEA
:10022E0033FDEC33FCEB33FB994002FB0FD8E9EBCB
:10023E00300A05F8D0E0C448B20AC0E00AEC4D4ED0
:10024E004F78207B0070C2EAB5480040BCC0E01277
:10025E0002C3D0F0D0E0200A04C4C0E0C4B20AC089
:10026E00F0120052D0F0D5F0EB0200A21204C00141
:10027E003F5301B95801104C010C4201BD4F01C54D
:0F028E004401C54901254301CB5501AF4601AFDE
:10029D004501AF47036B5001142D01182E013B2B67
:1002AD00011C2301392003542A00D44800000133D6
:1002BD003F3F3F00790AA2D5200C14300E09B9102A
:1002CD00020404B9080104A2D5200F025001042034
:1002DD000B68920BB547005034C0E07F20300C19ED
:1002ED007F30A20B720F720E500F12031AC20BC287
:1002FD000FC20EC2117F30800F300E03E9C0E01225
:10030D000069300E03D0E0F9D0E0B547CC300E17C0
:10031D007F30B9100C1200697F58300D077F78803F
:10032D0003B90803120069300B057F2D0200697FA8
:10033D00202011F87F2B200FF322920B80CF286EF7
:10034D00756C6C2900D20A12002E300AF8C20A7898
:10035D004730D50108F60200D42D504349581200FC
:10036D002E2403B405004001E49003669312005A55
:0D037D00743A12005AD20C7547040201B9FF
:10058200020602E493A3F8E493A34003F68001F287
:1005920008DFF48029E493A3F85407240CC8C3337A
:1005A200C4540F4420C8834004F456800146F6DF49
:1005B200E4800B010204081020408090085DE47E74
:1005C200019360BCA3FF543F30E509541FFEE4933E
:1005D200A360010ECF54C025E060A840B8E493A305
:1005E200FAE493A3F8E493A3C8C582C8CAC583CA30
:1005F200F0A3C8C582C8CAC583CADFE9DEE780BEE8
:01086F000088
:10045800BB010689828A83E0225002E722BBFE02A2
:09046800E32289828A83E49322D5
:10047100BB010CE58229F582E5833AF583E0225040
:1004810006E92582F8E622BBFE06E92582F8E2228A
:0D049100E58229F582E5833AF583E49322A4
:10049E00BB010689828A83F0225002F722BBFE013D
:0204AE00F32237
:1004B000FAE6FB0808E6F925F0F618E6CA3AF6224D
:1004C000D083D082F8E4937012740193700DA3A3CB
:1004D00093F8740193F5828883E4737402936860DF
:0604E000EFA3A3A380DFDF
:10078700EFB40A07740D120792740A309811A899EA
:10079700B8130CC2983098FDA899C298B811F630D2
:0707A70099FDC299F59922AA
:00000001FF
