:1026220075A15575A1AA43B98053B9BF75A1557556
:0E263200A1AAE5B954F84405F5B9E4F5A122D2
:10265B00EF4E601505A105A105A105A105A105A1D9
:0A266B0005A1EF1F70EA1E80E722B0
:10268F00AD07AC06ED4C600E7FE87E0312265BEDC6
:07269F001D70F11C80EE220A
:0A27300043C40C43C50C43AA102259
:10223800C29FD29EC29DC2CDC2CC438780E4752C7A
:1022480082F52BF52AF5297B0AFAF9F8AF2CAE2B83
:10225800AD2AAC29121677AF038F2DAF2CAE2BAD5C
:102268002AAC29E47B0AFAF9F81216778F2C8E2B00
:102278008D2A8C29E52DC394054011EF2401F52CF6
:10228800E43EF52BE43DF52AE43CF529E589540FB5
:102298004420F58943C9A0E52CF404F58DD28ED2EB
:0322A80099D29C2C
:0122AB002210
:0A273A0075A15575A1AA43B1102244
:1026A60075A15575A1AAEF600543B101800353B129
:0726B600FEE4F5A1F5FF228F
:032750008FFF22D6
:1019A800537461727420404368697049443D25301E
:1019B80032580A0057616974204465766963652066
:1019C800496E0A00456E756D416C6C526F6F7444B8
:1019D800657620657272203D20253032580A004510
:1019E8006E756D416C6C487562506F7274206572CB
:1019F80072203D20253032580A004D6F75736520DE
:101A0800646174613A2000782530325820000A0059
:101A18004D6F757365206572726F7220253032784C
:101A28000A004D6F757365206E6F20696E7465725C
:101A38007275707420656E64706F696E740A002523
:101A48003032582020006B6579626F6172642064BF
:101A58006174613A20006B6579626F617264206518
:101A680072726F7220253032780A006B6579626F66
:101A7800617264206E6F20696E746572727570741D
:101A880020656E64706F696E740A005072696E74B6
:101A98006572206572726F7220253032780A00658F
:101AA8006E64703A20253032580A0073656E6420DF
:101AB8006261636B0A007472616E736D697420658C
:101AC80072726F7220253032780A00800600010099
:101AD8000012008006000200000400000502000059
:101AE8000000000009000000000000010B000000D9
:101AF8000000000201000000000000A0060029000C
:101B0800000900210A0000000000008106002200F0
:101B180000FF00A10000000000F103C03300000036
:101B280000020040350000000000000004102327D8
:101B38003543574348005743485541525444656D0F
:101B48006F00574348204163636573736F72792050
:101B58005465737400312E3000687474703A2F2FF6
:101B68007763682E636E00574348416363657373F8
:101B78006F727931004034000000000400403400E6
:101B88000001000C00403400000200130040340043
:101B980000030004004034000004000E004034003C
:051BA8000005000E0025
:03274C0001080081
:100585001226227F327E0012268F1222387BFF7AB6
:100595001979A8AFA1753F008F40120ED41224FC23
:1005A500C2097BFF7A1979BC120ED4E4F52330D841
:1005B5000EC2D81223668F23E523B41502D2093063
:1005C5000919C2091226038F23E523600E7BFF7AE2
:1005D5001979CC753F00F540120ED41224CB8F2328
:1005E500E523600E7BFF7A1979E7753F00F5401228
:1005F5000ED47F331222AC8E278F28E528F47003A2
:10060500E527F470030206DAE527F522852825AFEC
:1006150025122313E525601175F00CA424FDF58240
:10062500E43400F583E0FF8005900139E0FF8F2673
:10063500E526540F70030206CCE526547F4490FF4F
:10064500E52630E7047DC080027D00E4FBFA121F39
:10065500B98F23E523705C632680E525600F75F06F
:100665000CA424FDF582E43400F583800390013960
:10067500E526F085DB25E52560567BFF7A1A7902AC
:10068500120ED4E4F522E522C39525501E7BFF7A90
:100695001A790F74002522F582E43400F583E0759C
:1006A5003F00F540120ED4052280DB7BFF7A1A79D4
:1006B50016801AE523642A60177BFF7A1A79187564
:1006C5003F0085234080067BFF7A1A792A120ED4D3
:1006D5007F011227167F231222AC8E278F28E5284B
:1006E500F47003E527F470030207D2E527F52285A8
:1006F5002825AF25122313E525601175F00CA424D8
:10070500FDF582E43400F583E0FF8005900139E0D2
:10071500FF8F267BFF7A1A794785263F120ED4E58F
:1007250026540F70030207C4E526547F4490FFE565
:100735002630E7047DC080027D00E4FBFA121FB974
:100745008F23E5237065632680E525600F75F00C22
:10075500A424FDF582E43400F5838003900139E596
:1007650026F085DB25E525605F7B017A007900129F
:1007750020837BFF7A1A794E120ED4E4F522E52206
:10078500C39525501E7BFF7A1A790F74002522F533
:1007950082E43400F583E0753F00F540120ED40580
:1007A5002280DB7BFF7A1A7916801AE523642A609A
:1007B500177BFF7A1A795E753F0085234080067B9B
:1007C500FF7A1A7973120ED47F011227163090031F
:1007D5000208D67E007F407D007B017A00794012B9
:1007E5001709900040741BF0A37440F0A3741DF02A
:1007F500A37455F0A37442F0A37402F0A37418F027
:10080500A3741DF0A37476F0A37430F0E4A3F0A3F1
:100815007430F0E4A3F0A37418F07F071222AC8EB5
:10082500278F28E528F47003E527F470030208D61E
:10083500E527F522852825AF25122313E525601127
:1008450075F00CA424FDF582E43400F583E0FF8007
:1008550005900139E0FF8F267BFF7A1A79478526B7
:100865003F120ED4E526540F606775D740E5265430
:100875007F4410FFE52630E7047DC080027D0074CB
:10088500FFFBFA121FB98F23E5237030632680FE24
:100895007F40FD7B017A00794012170975D740E545
:1008A50026547F4410FFE52630E7047DC080027D95
:1008B5000074FFFBFA121FB98F238015E523642A04
:1008C500600F7BFF7A1A7993753F00852340120EDE
:1008D500D47F031222AC8E278F28E528F47003E518
:1008E50027F470030209F47527008F28E4F524E541
:1008F500284527601AE52875F00CA424FDF582E447
:100905003400F583E5822524F582E4358380097476
:10091500392524F582E43401F583E0FF8F26E526A9
:10092500540F70030209EF7BFF7A1A79A7753F0010
:10093500852640120ED4AF28122313E526547F4492
:1009450090FFE52630E7047DC080027D00E4FBFAD8
:10095500121FB98F23E5237071632680E52845278B
:10096500601AE52875F00CA424FDF582E43400F541
:1009750083E5822524F582E43583800974392524AD
:10098500F582E43401F583E526F085DB25E5256070
:100995004E7BFF7A1A794E120ED4E4F522E522C376
:1009A5009525501E7BFF7A1A790F74002522F58252
:1009B500E43400F583E0753F00F540120ED40522BE
:1009C50080DB7BFF7A1A79168012E523642A600F93
:1009D5007BFF7A1A795E753F00852340120ED40598
:1009E50024E524640460030208F47F011227167FBE
:1009F500F01222AC8E278F28E528F47003E527F442
:100A050070030205B07527008F28900139E0F5269F
:100A1500E526540F7003020AE5E4FF122313E526C9
:100A2500547F4490FFE52630E7047DC080027D00B9
:100A3500E4FBFA121FB98F23E5236003020AD06392
:100A45002680900139E526F085DB25E4F522E522AF
:100A5500C39525501E7BFF7A1A790F74002522F560
:100A650082E43400F583E0753F00F540120ED405AD
:100A75002280DB7BFF7A1A7916120ED4E525606099
:100A8500FF7E0078407C007D017B017A00790012B1
:100A9500158590013BE0F5268525D7E526547F444D
:100AA50010FFE52630E7047DC080027D0074FFFB62
:100AB500FA121FB98F23E523702663268090013B28
:100AC500E526F07BFF7A1A79B38012E523642A6064
:100AD5000F7BFF7A1A79BE753F00852340120ED42D
:080AE5007F011227160205B083
:1011CE005553422064657620696E0A0055534220BD
:1011DE00646576206F75740A005345545F504F5204
:1011EE00542020253032582020253032582000251A
:1011FE0030327820000A00526573657420555342D0
:10120E0020506F72740A0044697361626C652075B8
:10121E00736220706F7274206265636175736520EE
:10122E006F6620646973636F6E6E6563740A004740
:10123E00657444657644657363723A200078253090
:10124E003258200047657443666744657363723A8B
:10125E0020005553422D4469736B205265616479A9
:10126E000A005553422D5072696E74204F4B0A007E
:10127E005553422D5072696E742052656164790A1D
:10128E0000416E616C797A65486964496E74456E89
:10129E00647020253032780A004374726C53657482
:1012AE00557362436F6E66696720253032780A0087
:1012BE004765744849445265706F72743A20005500
:1012CE0053425F4445565F434C4153535F48494434
:1012DE002052656164790A005553422D4B6579623F
:1012EE006F6172642052656164790A005553422D14
:1012FE004D6F7573652052656164790A0047657498
:10130E0048756244657363723A20004578742D48BF
:10131E00554220506F72745F2531642320706F77B1
:10132E006572206F6E206572726F720A0064765F4E
:10133E00636C7320253032780A0069665F636C73C4
:10134E0020253032780A0069665F737562636C73AC
:10135E0020253032780A0025303278202530327838
:10136E000A00414F41204D6F64650A00496E697451
:10137E00526F6F7444657620457272203D20253081
:10138E0032580A00456E756D5553424465760A0013
:10139E00496E69742064657620404578744875629C
:1013AE002D706F72745F253164200054686973204C
:1013BE0070726F6772616D20646F6E277420737523
:1013CE0070706F7274204C6576656C2032204855B3
:1013DE00420A00496E69744465764F6E4875622004
:1013EE00457272203D20253032580A00466F756EC8
:1013FE00642066756C6C2073706565642064657618
:10140E00696365206F6E20706F7274202531640AD7
:10141E0000466F756E64206C6F772073706565641F
:10142E0020646576696365206F6E20706F7274201C
:10143E002531640A00526573657420706F727420D2
:10144E00616E64207468656E207761697420696EC0
:10145E000A00446576696365206F6E20706F727442
:10146E00206572726F720A00446576696365206F3B
:10147E006E20706F7274202531642072656D6F76E8
:10148E0065640A00456E756D416C6C487562506FEF
:10149E00727420657272203D20253032580A002168
:0714AE00090002000001002B
:08274400E4900131F0A3F02242
:10236600E4F53BE5DA30E022900131E06005E5D1A5
:1023760020E0331227449001317401F07BFF7A117B
:1023860079CE120ED4753B15801C900131E0C394B2
:102396000140131227447BFF7A1179DA120ED4E535
:0823A6003B7003753B16AF3BD1
:0123AE00220C
:0C272400EF547FFFE5E354804FF5E32203
:0E271600EF600753E2BF53D27F2243E240221E
:1023AF009001007408F07E007F0D7D007B017A01A3
:1023BF007931121709E4FF12272453D1FE7F01123E
:1023CF002716E5D154FB4402F5D17F147E00122667
:1023DF008F53D1FDE5DA30E0FB7F017E0012268FAF
:0323EF00C2D8222F
:1023F200900131E0C3940150037401F0E5DA30E05A
:1024020026E5D120E015E5DA30E1047F0080027F85
:1024120001900133EFF0700343D10443E20175D21E
:0A2422004043D1017F00227F162203
:10231300AE07EE603F75F00CA424F6F582E43400BA
:10232300F583E0FF122724EE75F00CA424F7F58261
:10233300E43400F583E0FF122716EE75F00CA424B5
:10234300F7F582E43400F583E0701743D2807F64AD
:10235300FE02265B900132E0FF122724A3E0FF1266
:0323630027162218
:102675007F907E0120D909EF1F70011EEF4E70F487
:0926850030D9047F0080027FFEC1
:01268E002229
:061FB9008F388A398B3AD3
:101FBF00AF058FD68FD4E4F5DD8538D5C2D97F90A4
:101FCF007E0120D909EF1F70011EEF4E70F4E4F56A
:101FDF00D520D9037FFE2230D822C2D8122366BF64
:101FEF001502D209900131E0FE70037F1622EEB484
:101FFF0001037F15227FC87E0012265B30D95B302C
:10200F00DE037F0022E5D9540FFFBF0E028037BFDA
:10201F000A20E53A45397003EF8038C3E53A94FF5B
:10202F00E53994FF5008E53A153A7002153915DD78
:10203F00802BE538C4540F24F7600D24FC60042472
:10204F000C7014EF6017800BBF0305EF640B600D6E
:10205F00EF600A4420FF227FFE2275D8FF7F0F7E9C
:10206F000012265B05DDAFDDEFC394035003021FA3
:03207F00C87F20F7
:01208200223B
:0F176B001225E4900044E532F07E007F807D334C
:10177A00E4F535F536AA06A9077B0190013E04F087
:10178A00A3EAF0A3E9F0AF05A9071BA3EBF0A3F0C6
:10179A00A3E9F07FC87E0012265B900141E0FBA31B
:1017AA00E0FAA3E0F9EA494B6004E412161375D78C
:1017BA00087B107A27E4FD7FD0121FB98F37E537EF
:1017CA0060012275D6D075D4D075D701900047E054
:1017DA00FE900046E0FDEEF535EDF536E536453589
:1017EA00700302197890013EE0FBA3E0FAA3E0F946
:1017FA00EA494B7003021978900040E020E703029F
:10180A0018A5E5364535700302189F7FC87E001279
:10181A00265B7B107A27ADD47F90121FB98F37E5EC
:10182A0037600122AFDBC3EF9536E495355004AF3C
:10183A00DB8002AF36EFFDC3E5369DF536E535941C
:10184A0000F535900141E0FBA3E0FAA3E0F9EA498B
:10185A004B6004EF1215F1E4FEEE6F602874002E5F
:10186A00F582E43400F583E0FD90013EE0FBA3E05D
:10187A00FAA3E0F9ED12161390013FE475F0011294
:10188A0016250E80D4E5DB600C900100E01455DBD0
:10189A00700302180CE4F5D7021978E5364535705D
:1018AA00030219787FC87E0012265B900100E0FFD0
:1018BA00FDC3E5369DE535940040028002AF368FC0
:1018CA00D790013EE0FBA3E0FAA3E0F990000112F1
:1018DA0015C4B4092A630801E50812161390013EDB
:1018EA00E0FBA3E0FAA3E0F91215AB753F00F5405F
:1018FA007541008508427BFF7A1179E7120ED4E41C
:10190A00FFEF65D7602890013EE0FBA3E0FAA3E071
:10191A00F91215ABFE74402FF582E43400F583EE1C
:10192A00F090013FE475F0011216250F80D37B1069
:10193A007A27ADD67F10121FB98F37E5376001229B
:10194A00AFD7C3E5369FF536E5359400F5359001F6
:10195A0041E0FBA3E0FAA3E0F9EA494B700302185D
:10196A00A5900141A3A3E5D71215F10218A57FC8D6
:10197A007E0012265BE5D760047F9080027F107B91
:10198A00107A277DC0121FB98F37E537600122E52B
:0D199A00D77002FF22E5DB7002FF227F17ED
:0119A700221D
:1025E400E4FD8F828E83E493FC74402DF582E43401
:0E25F40000F583ECF00FBF00010E0DBD08E4F2
:0126020022B5
:102463009001007408F07E1A7FD31225E47E007F6A
:10247300807D3212177AEF600122900087E090018D
:1024830000F0901AD9E493FFE532C39F50037F17FE
:03249300227F00A5
:012496002223
:10242C007E1A7FDB1225E47E007F807D3212177AC4
:10243C00EF600122900082E0F5327E1A7FDB1225DC
:10244C00E4900046E532F07E007F807D3212177AF0
:06245C00EF6001227F0089
:012462002257
:02252C008F32EC
:10252E007E1A7FE31225E4900042E532F0E4FDFFCF
:10253E00FE12177AEF600122AF321227247F0A7E35
:06254E000012268F7F0041
:012554002264
:1026D400AB077E1A7FEB1225E4900042EBF0E4FD99
:0626E400FFFE12177A222E
:1026EA00AB077E1A7FFB1225E4900044EBF0E4FD71
:0626FA00FFFE12177A2218
:10270000AB077E1A7FF31225E4900042EBF0E4FD64
:06271000FFFE12177A2201
:022640008F32D7
:102642007E1B7F0B12176BEF6001227E1B7F131222
:08265200176BEF6001227F000D
:01265A00225D
:10257C007E1B7F031225E47E007F807D3112177A4B
:10258C00EF600122901B09E493FFE531C39F5003D8
:05259C007F17227F0003
:0125A1002217
:1024970090004074A3F0A3E4F0A3F0A3F0A3EFF03F
:1024A700A3E4F0A37404F0A3E4F07E007F807D2B07
:1024B70012177AEF600122E52BC3940450037F17AC
:0324C700227F0071
:0124CA0022EF
:1025A2009000407423F0A37403F0A3EDF0A3E4F0D1
:1025B200A3EFF0A3E4F0A3F0A3F0FDFFFE12177A5D
:0125C20022F6
:1025C3009000407423F0A37401F0A3EDF0A3E4F0B2
:1025D300A3EFF0A3E4F0A3F0A3F0FDFFFE12177A3C
:0125E30022D5
:1026BD007E1B7F1B1225E47E007F807D3112177AF1
:0626CD00EF6001227F0016
:0126D30022E4
:061EA8008E328F338D34F1
:101EAE00E4F536E53460199000047D0075F00CA45D
:101EBE0024FDF9740035F0FA7B01AE83AF82800CFD
:101ECE007E007F047D007B017A017939121709E4C7
:101EDE00F535853382853283A3A3E0FFE535C39FB5
:101EEE004003021FADE5332535F582E43532F58327
:101EFE00A3E064056003021F91E5332535F582E406
:101F0E003532F583A3A3A3E0540364037075E53360
:101F1E002535F582E43532F583A3A3E0FF30E76380
:101F2E00E534601EEF540FFFE53475F00CA424FD6C
:101F3E00F582E43400F583E5822536F582E43583B7
:101F4E00801AE5332535F582E43532F583A3A3E017
:101F5E00540FFF74392536F582E43401F583EFF022
:101F6E007BFF7A1179FD74392536F582E43401F55B
:101F7E0083E0753F00F540120ED40536E536C39466
:101F8E0004501CE5332535F582E43532F583E0F552
:101F9E0037D394105009E5372535F535021EE07B11
:0A1FAE00FF7A127903120ED4AF3649
:011FB8002206
:061D7D007E007F80AD2B0B
:061D83008E328F338D3417
:101D8900E4F535753602E53460199000047D007577
:101D9900F00CA424FDF9740035F0FA7B01AE83AF91
:101DA90082800C7E007F047D007B017A01793912E3
:101DB9001709E4FF853382853283A3A3E0FEEFC3CD
:101DC9009E4003021EA5E5332FF582E43532F583E3
:101DD900A3E064056003021E8CE5332FF582E43528
:101DE90032F583A3A3A3E0540364026003021E8CAB
:101DF900E5346046E5332FF582E43532F583A3A354
:101E0900E030E709540FFEAD3505358014E5332F71
:101E1900F582E43532F583A3A3E0540FFEAD360510
:101E290036E53475F00CA424FDF582E43400F5831D
:101E3900E5822DF582E435838035E5332FF582E49B
:101E49003532F583A3A3E030E709540FFEAD35051C
:101E5900358014E5332FF582E43532F583A3A3E009
:101E6900540FFEAD36053674392DF582E43401F58B
:101E790083EEF0E535B40203753501E536B40403A4
:101E8900753603E5332FF582E43532F583E0F5370E
:0E1E9900D394105007E5372FFF021DBD7F00C8
:011EA7002218
:102120007E1B7F231225E47E007F807D3112177A8B
:10213000EF600122900080E0C3940250037F4122AF
:10214000E4F532E532901B3393FB75F008E532A4D9
:10215000247DF582E5F0341BAF82FE1225E4900069
:1021600047E0FE900046E0FDEDFF7C00743A2BF95D
:10217000EC341BFA7BFF78807C007D011215857E94
:10218000007F807D3112177AEF6001220532E5323F
:10219000C3940640AE7E1B7F2B1225E47E007F8019
:0B21A0007D3112177AEF6001227F00F2
:0121AB002211
:10000300E4F530F5297BFF7A127905120ED4E4F575
:100013002AE52AC3952950157F647E0012268FE5B1
:1000230029D3940A4003AF2B22052A80E41223AF7D
:10003300E4F52AF52B7F017E0012268F1223F2EFBF
:100043007019F52A052BE5292414FFE433FED3E5C3
:100053002B9FEE6480F87480985009052AE52AC323
:10006300946440D1E52A600C1227447BFF7A12790D
:1000730015120ED4E4FF1223137BFF7A12793D127B
:100083000ED41224638F2BE52B6003020566F52A39
:10009300901AD9E493FFE52AC39F501E7BFF7A127F
:1000A300794B7480252AF582E43400F583E0753FAB
:1000B30000F540120ED4052A80D67BFF7A1279030D
:1000C300120ED4900089E0FE900088E07C002400AA
:1000D300FFEC3E900135F0A3EFF090008BE0FE9033
:1000E300008AE02400FFEC3E900137F0A3EFF0908C
:1000F3000084E0F52D901AE5E493FF12252C8F2B55
:10010300E52B6003020566901AE593900132F07BBC
:10011300FF7A127952120ED412242C8F2BE52B6006
:1001230003020566900085E0F52C900084E0F52F2E
:10013300E4F52A900082E0FFE52AC39F501E7BFF6F
:100143007A12794B7480252AF582E43400F583E032
:10015300753F00F540120ED4052A80D77BFF7A1233
:100163007903120ED490008EE0F52EE52D705EE536
:100173002E640870587E007F80FD121D83E4F52AEB
:100183007BFF7A1179FD7439252AF582E43401F570
:1001930083E0753F00F540120ED4052AE52AB40426
:1001A300DF7BFF7A127903120ED4AF2C1226D48F81
:1001B3002BE52B60030205669001317403F0900177
:1001C300347408F07BFF7A12796002038FE52D60A7
:1001D3000302028FE52E6407600302028F90008FF3
:1001E300E06401600302028F7BFF7A127970120EC2
:1001F300D4900093E0FFB4050BA3E0FE60069001EA
:1002030039F0801CEFB40518900094E0FF7C006087
:10021300047D0180027D00ED4C700590013AEFF002
:1002230090009AE0FFB40510900094E0600A9000FB
:100233009BE0900139F0801EEFB4051A900094E022
:100243007E0060047F0180027F00EF4E7008900003
:100253009BE090013AF0AF2C1226D48F2BE52B6054
:1002630003020566AF2C1227008F2B1226BD8F2B9E
:10027300E52B60030205669001317403F0900134AD
:100283007407F07BFF7A12797E02038FE52D6003FA
:1002930002039BE52E6403600302039B90008FE03F
:1002A300D39401400302039B7E007F80E4FD121E72
:1002B300A88F2B7BFF7A12798F753F008F40120E28
:1002C300D4900090E0F52E7BFF7A1279A7753F005A
:1002D300852C40120ED4AF2C1226D48F2BE52B6025
:1002E300030205667BFF7A1279BE120ED4E4F52D64
:1002F300E52DC3952F503DAF2D1226408F2BE52BB7
:10030300702EF52A7BFF7A12794B7480252AF582A9
:10031300E43400F583E0753F00F540120ED4052A5E
:10032300E52AC3944040DD7BFF7A127903120ED491
:10033300052D80BC9001317403F0E52E6401702417
:100343009001347423F0E52FD39401400F7BFF7A9F
:100353001279CD120ED49001347403F07BFF7A121C
:1003630079E68028E52E640270289001347433F016
:10037300E52FD39401400F7BFF7A1279CD120ED46F
:100383009001347403F07BFF7A1279FA120ED402CF
:10039300055F752BFB020566E52D64096003020406
:1003A300717E007F80FD121EA88F2B7BFF7A12794E
:1003B3008F753F008F40120ED47BFF7A13790B1297
:1003C3000ED412257C8F2BE52B6003020566F52ADC
:1003D300900080E0FFE52AC39F501E7BFF7A1279CD
:1003E3004B7480252AF582E43400F583E0753F00E1
:1003F300F540120ED4052A80D77BFF7A12790312B7
:100403000ED4900082E090013DF0D3940440037435
:1004130004F0AF2C1226D48F2BE52B600302056664
:100423009001317403F09001347409F0752A01903E
:10043300013DE0FFE52AD39F5031E52A75F00CA476
:1004430024F5F582E43400F583E4F07D08AF2A1245
:1004530025A28F2BE52B600F7BFF7A137919753F4C
:1004630000852A40120ED4052A80C402055F7BFF53
:100473007A13793B753F00852D40120ED47BFF7AAA
:10048300137948753F00852E40120ED47BFF7A13F3
:10049300795590008FE0753F00F540120ED47E0031
:1004A3007F80E4FD121D83E4F52A7BFF7A1179FD39
:1004B3007439252AF582E43401F583E0753F00F5AC
:1004C30040120ED4052AE52AB404DF7BFF7A1279A1
:1004D30003120ED4AF2C1226D48F2BE52B6003020C
:1004E30005667BFF7A137965900135E0F53FA3E05C
:1004F300F540A3E0F541A3E0F542120ED490013597
:10050300E064187004A3E064D17021900137E0FE29
:10051300A3EEB42D177BFF7A137970120ED49001DA
:10052300317403F090013474F0F080301221208F85
:100533002BE52B702EE530C39403500C05307FF46C
:100543007E0112268F020011E52D6003FF8002AFAA
:100553002E900134EFF09001317403F07F011227E4
:10056300161F227BFF7A13797A753F00852B401281
:100573000ED49001317402F07F011227160529026F
:02058300001165
:102603007BFF7A137992120ED4900131E0B4010C5E
:0E2613001200037809EFF66003E6FF227F0055
:012621002296
:020AED008F2B4D
:100AEF007BFF7A13799E753F008F40120ED4E52B52
:100AFF0070037FFE22AF2B1223137BFF7A12793DF7
:100B0F00120ED41224638F2DE52D600122900089DF
:100B1F00E0FE900088E07C002400FFEC3EFEE52B19
:100B2F0075F00CA424F9F582E43400F583EEF0A3FC
:100B3F00EFF090008BE0FE90008AE02400FFEC3E87
:100B4F00FEE52B75F00CA424FBF582E43400F5834D
:100B5F00EEF0A3EFF0900084E0F52FE52B2410F5D5
:100B6F002EFF12252C8F2DE52D600122E52B75F020
:100B7F000CA424F6F582E43400F583E52EF07BFF18
:100B8F007A127952120ED412242C8F2DE52D60017A
:100B9F0022900085E0F52EE4F52C900082E0FFE531
:100BAF002CC39F501E7BFF7A12794B7480252CF536
:100BBF0082E43400F583E0753F00F540120ED40552
:100BCF002C80D77BFF7A127903120ED490008EE01F
:100BDF00F530E52F6003020C68E5306408707A1277
:100BEF001D7DE4F52C7BFF7A1179FDE52B75F00C5B
:100BFF00A424FDF582E43400F583E582252CF582EB
:100C0F00E43583F583E0753F00F540120ED4052CD3
:100C1F00E52CB404D07BFF7A127903120ED4AF2ED9
:100C2F001226D48F2DE52D6003020E49E52B75F0AA
:100C3F000CA424F5F582E43400F5837403F0E52B5E
:100C4F0075F00CA424F8F582E43400F5837408F0F1
:100C5F007BFF7A127960020D91E52F6003020D97E9
:100C6F00E53064036003020D9790008FE0D3940189
:100C7F004003020D97900084E0F5317E007F80AD38
:100C8F002B121EA88F2D7BFF7A12798F753F008F45
:100C9F0040120ED4900090E0F530AF2E1226D48F74
:100CAF002DE52D6003020E49F52FE52FC395315029
:100CBF003DAF2F1226408F2DE52D702EF52C7BFF8B
:100CCF007A12794B7480252CF582E43400F583E099
:100CDF00753F00F540120ED4052CE52CC39440400F
:100CEF00DD7BFF7A127903120ED4052F80BCE52B22
:100CFF0075F00CA424F5F582E43400F5837403F049
:100D0F00E5306401703CE52B75F00CA424F8F582F6
:100D1F00E43400F5837423F0E531D39401401B7B59
:100D2F00FF7A1279CD120ED4E52B75F00CA424F8AE
:100D3F00F582E43400F5837403F07BFF7A1279E6D1
:100D4F008040E5306402706FE52B75F00CA424F839
:100D5F00F582E43400F5837433F0E531D394014028
:100D6F001B7BFF7A1279CD120ED4E52B75F00CA4F4
:100D7F0024F8F582E43400F5837403F07BFF7A12D4
:100D8F0079FA120ED4020E42E52F6409702FE52B6B
:100D9F0075F00CA424F8F582E43400F5837409F09F
:100DAF007BFF7A1379B9120ED47D01AF2C1225C3B4
:100DBF008F2DE52D600122752DFB020E49121D7D31
:100DCF00E4F52C7BFF7A1179FDE52B75F00CA4244B
:100DDF00FDF582E43400F583E582252CF582E435B8
:100DEF0083F583E0753F00F540120ED4052CE52CFA
:100DFF00B404D07BFF7A127903120ED4AF2E1226D1
:100E0F00D48F2DE52D7033E52B75F00CA424F5F55B
:100E1F0082E43400F5837403F0E52F6003FF800252
:100E2F00AF30E52B75F00CA424F8F582E43400F50F
:100E3F0083EFF07F011227161F227BFF7A1379E1D0
:100E4F00753F00852D40120ED4E52B75F00CA424B0
:100E5F00F5F582E43400F5837402F07F0112271652
:020E6F00AF2DA5
:010E7100225E
:101BAD0075290190013DE0FFE529D39F4003021DFA
:101BBD007AE4FF122313AF291224978F2AE52A60A6
:101BCD000122900080E030E007900082E020E00BE1
:101BDD00900082E064106003021CEAE52975F00CA8
:101BED00A424F5F582E43400F5837401F0E529753C
:101BFD00F00CA424F6F582E43400F583E4F0AF296B
:101C0D001224978F2AE52A600122900081E030E1AD
:101C1D00047F0080027F01E52975F00CA424F7F5FF
:101C2D0082E43400F583EFF0E52975F00CA424F778
:101C3D00F582E43400F583E07BFF60067A1379FAD0
:101C4D0080047A14791F753F00852940120ED47FC8
:101C5D00C87E0012268F7D04AF291225A28F2AE59A
:101C6D002A6001227BFF7A147943120ED47F017E04
:101C7D000012268FAF291224978F2AE52A600122A0
:101C8D00900080E020E4E67F647E0012268F7D14B4
:101C9D00AF291225C38F2A7D10AF291225C38F2A94
:101CAD00E52A600122AF291224978F2AE52A6001C7
:101CBD0022900080E020E011E52975F00CA424F5B8
:101CCD00F582E43400F583E4F0AF29120AED8F2A92
:101CDD00E52A6001227F01122716021D75900082F0
:101CED00E030E13A7D11AF291225C37BFF7A1479DB
:101CFD0060120ED47D04AF291225A28F2AE52A6029
:101D0D0001227F017E0012268FAF291224978F2A80
:101D1D00E52A600122900080E020E4E6804A9000F0
:101D2D0080E020E043E52975F00CA424F5F582E46C
:101D3D003400F583E0C39401400F7BFF7A1479766C
:101D4D00753F00852940120ED4E52975F00CA424A9
:101D5D00F5F582E43400F583E4F0900082E030E0A4
:0F1D6D00077D10AF291225C30529021BB07F0087
:011D7C002244
:1024CB00900131E0C394034025900134E06409701E
:1024DB001DFF122313121BADEF600E7BFF7A1479D5
:1024EB0092753F00F540120ED47F011227167F0024
:0124FB0022BE
:1022AC00E4F9900134E064097043900131E0C39487
:1022BC0003403A7D0190013DE0FEEDD39E502EEDA2
:1022CC0075F00CA424F8F582E43400F583E06F700B
:1022DC0019ED75F00CA424F5F582E43400F583E0D7
:1022EC00C394034005E9FEEDFF220D80C890013434
:1022FC00E0B5070E900131E0C394034005E97F007F
:06230C00FE227EFF7FFFB0
:0123120022A8
:062083008B298A2A892B3B
:10208900782C7C007D007BFF7A1479AD7E007F0877
:10209900121585AB29AA2AA92B9000011215C4FF94
:1020A9001215AB4FFF9000031215C44FFF900004A7
:1020B9001215C44FFF9000051215C44FFF9000067A
:1020C9001215C44FFF9000071215C470047E0180D9
:1020D900027E00EE4FFFAB29AA2AA92B900002121B
:1020E90015C4B453047E0180027E00EE5F6025E4CE
:1020F900FF742C2FF8E6FE74402FF582E43400F5C6
:1021090083EEF00FBF08EA7E007F807D3412177AD4
:06211900EF6001227F00CF
:01211F00229D
:1024FC00C2EA75E28053D17FE4F5E375EB4875E5EC
:10250C000075E40075E70075E640F5D4F5D675E284
:0F251C008875D8FFFF1227440FBF02F975E1033E
:01252B00228D
:030000000221AC2E
:0C21AC00787FE4F6D8FD75814F0221F326
:1014B500E709F608DFFA8046E709F208DFFA803E19
:1014C50088828C83E709F0A3DFFA8032E309F60806
:1014D500DFFA8078E309F208DFFA807088828C836E
:1014E500E309F0A3DFFA806489828A83E0A3F60822
:1014F500DFFA805889828A83E0A3F208DFFA804CFC
:1015050080D280FA80C680D4806980F280338010D2
:1015150080A680EA809A80A880DA80E280CA80333B
:1015250089828A83ECFAE493A3C8C582C8CCC583B3
:10153500CCF0A3C8C582C8CCC583CCDFE9DEE78083
:101545000D89828A83E493A3F608DFF9ECFAA9F002
:10155500EDFB2289828A83ECFAE0A3C8C582C8CC58
:10156500C583CCF0A3C8C582C8CCC583CCDFEADE71
:10157500E880DB89828A83E493A3F208DFF980CCD3
:1015850088F0EF60010E4E60C388F0ED2402B404CC
:101595000050B9F582EB2402B4040050AF23234573
:0615A5008223901505737E
:1015AB00BB010689828A83E0225002E722BBFE023E
:0915BB00E32289828A83E4932271
:1015C400BB010CE58229F582E5833AF583E02250DC
:1015D40006E92582F8E622BBFE06E92582F8E22226
:0D15E400E58229F582E5833AF583E4932240
:1015F100BB010989828A83F8E028F022500327F78A
:1016010022BBFE05F8E328F3228A838982F8E4935A
:0216110028228D
:10161300BB010689828A83F0225002F722BBFE01B6
:02162300F322B0
:10162500C5F0F8A3E028F0C5F0F8E5821582700250
:061635001583E038F022ED
:10163B0075F008758200EF2FFFEE33FECD33CDCC66
:10164B0033CCC58233C5829BED9AEC99E5829840E9
:10165B000CF582EE9BFEED9AFDEC99FC0FD5F0D6C6
:10166B00E4CEFBE4CDFAE4CCF9A88222B800C1B9F0
:10167B000059BA002DEC8BF084CFCECDFCE5F0CB2E
:10168B00F97818EF2FFFEE33FEED33FDEC33FCEB67
:10169B0033FB10D703994004EB99FB0FD8E5E4F922
:1016AB00FA227818EF2FFFEE33FEED33FDEC33FC0F
:1016BB00C933C910D7059BE99A4007EC9BFCE99A03
:1016CB00F90FD8E0E4C9FAE4CCFB2275F010EF2F48
:1016DB00FFEE33FEED33FDCC33CCC833C810D70748
:1016EB009BEC9AE899400AED9BFDEC9AFCE899F883
:0E16FB000FD5F0DAE4CDFBE4CCFAE4C8F92216
:100E7200E54B243FF8E6054B22783C300702783FE9
:100E8200E475F0011217350215AB2000EB7F2ED26C
:100E9200008018EF540F2490D43440D4FF30040B58
:100EA200EF24BFB41A0050032461FFE54C60021521
:100EB2004C054FE54F7002054E30070D783CE47546
:100EC200F001121735EF0216130225557403D207EB
:100ED2008003E4C207F54B8B3C8A3D893EE4F54C26
:100EE200F54EF54FE54C60077F20120EAD80F5758B
:100EF2004DFFC201C200C202C203C205C206C2083D
:100F0200120E7BFF700D3007057F00120EBEAF4F31
:100F1200AE4E22B4255FC2D5C204120E7BFF24D08E
:100F2200B40A00501A75F00A784C30D50508B6FF9D
:100F32000106C6A426F620D5047002D20380D92465
:100F4200CFB41A00EF5004C2E5D2040210BED2019F
:100F520080C6D20080C0D20280BCD2D580BAD2056F
:100F620080B47F20120EAD2002077401B54C004000
:100F7200F1120E72FF120EAD020EE6D208D20680F8
:100F820095120E72FB120E72FA120E72F94A4B7021
:100F920006798F7A117BFF20022EE54C602A7E00B3
:100FA2008E827583001215C460060EEE654D70F0D8
:100FB200C2D5EBC0E0EAC0E0E9C0E0EE121105D014
:100FC200E0F9D0E0FAD0E0FB1215ABFF60AAEBC06B
:100FD200E0EAC0E0E9C0E0120EADD0E02401F9D0B1
:100FE200E03400FAD0E0FBE54D0460DCD54DD98059
:100FF200877BFF7A117901D202809C791080027975
:1010020008C206C2088008D2D5790A8004790AC2C9
:10101200D5E54D047002F54DE4FAFDFEFF120E72A5
:10102200FC7B08200113120E72FD7B1030000A12A5
:101032000E72FE120E72FF7B20EC3382D592D550D7
:1010420013C3E43000069FFFE49EFEE42001039DEB
:10105200FDE49CFCE4CBF8C201EC700CCFCECDCC0D
:10106200E824F8F870F38017C3EF33FFEE33FEED98
:1010720033FDEC33FCEB33FB994002FB0FD8E9EB79
:10108200300105F8D0E0C448B201C0E00AEC4D4E90
:101092004F78207B0070C2EAB54D0040BCC0E01220
:1010A2001107D0F0D0E0200104C4C0E0C4B201C0F6
:1010B200F0120E96D0F0D5F0EB020EE61217450FA5
:1010C20083530FFD580F544C0F504210014F10091B
:0F10D200441009490F6943100F550FF3460FF3F0
:1010E100450FF34711AF500F582D0F5C2E0F7F2B7B
:1010F1000F60230F7D2011982A0F184800000F77E9
:101101003F3F3F00790AA2D5200314300509B910E9
:10111100020404B9080104A2D520060250010420EA
:1011210002689202B54C005034C0E07F20300319B0
:101131007F30A20272067205500F12115EC202C206
:1011410006C205C2087F30800F300503E9C0E012F6
:101151000EAD300503D0E0F9D0E0B54CCC30051729
:101161007F30B9100C120EAD7F583004077F7880A4
:1011710003B90803120EAD3002057F2D020EAD7FBB
:10118100202008F87F2B2006F322920280CF286EC0
:10119100756C6C2900D201120E723001F8C201780F
:1011A1004C30D50108F6020F182D50434958120E44
:1011B100722403B405004001E49011AA93120E9E1B
:0D11C100743A120E9ED203754C04020FFD0D
:10170900EF4E6012EF60010EEDBB010B89828A83F7
:10171900F0A3DFFCDEFA2289F05007F709DFFCA904
:0C172900F022BBFEFCF309DFFCA9F0225B
:1021B800020585E493A3F8E493A34003F68001F2B3
:1021C80008DFF48029E493A3F85407240CC8C33328
:1021D800C4540F4420C8834004F456800146F6DFF7
:1021E800E4800B010204081020408090274CE47E14
:1021F800019360BCA3FF543F30E509541FFEE493EC
:10220800A360010ECF54C025E060A840B8E493A3B2
:10221800FAE493A3F8E493A3C8C582C8CAC583CADD
:10222800F0A3C8C582C8CAC583CADFE9DEE780BE95
:01274F000089
:10173500FAE6FB0808E6F925F0F618E6CA3AF622B5
:10174500D083D082F8E4937012740193700DA3A333
:1017550093F8740193F5828883E473740293686047
:06176500EFA3A3A380DF47
:10255500EFB40A07740D122560740A309811A89912
:10256500B8130CC2983098FDA899C298B811F630E6
:0725750099FDC299F59922BE
:00000001FF
