:100C3E0075A15575A1AA43B98053B9BF75A1557554
:0E0C4E00A1AAE5B954F84405F5B9E4F5A122D0
:100C5C00EF4E601505A105A105A105A105A105A1F2
:0A0C6C0005A1EF1F70EA1E80E722C9
:100C7600AD07AC06ED4C600E7FE87E03120C5CED12
:070C86001D70F11C80EE223D
:0A0CBA0043C40C43C50C43AA1022EA
:100B5400C29FD29EC29DC2CDC2CC438780E4753C65
:100B640082F53BF53AF5397B0AFAF9F8AF3CAE3B2E
:100B7400AD3AAC39120910AF038F3DAF3CAE3BAD7B
:100B84003AAC39E47B0AFAF9F81209108F3C8E3B2F
:100B94008D3A8C39E53DC394054011EF2401F53CB1
:100BA400E43EF53BE43DF53AE43CF539E589540F80
:100BB4004420F58943C9A0E53CF404F58DD28ED2D6
:030BC40099D29C27
:010BC700220B
:0A0CC40075A15575A1AA43B11022D5
:100C8D0075A15575A1AAEF600543B101800353B15C
:070C9D00FEE4F5A1F5FF22C2
:030CCE008FFF2273
:100A30007A007700556E6B6E6F776E496E7420206A
:100A40000A007374617274202E2E2E0A0012011097
:100A50000100000040861AE0E600000102000109E2
:100A6000022900010104A023090400000203000080
:100A70000509210001000122220007058203400030
:100A800001070502034000010600FF0901A1010959
:100A90000215002600FF7508954081060902150021
:100AA0002600FF750895409106C0040309040E0353
:100AB0007700630068002E0063006E000C034300A3
:080AC000480035003400390044
:03003F0001590064
:10000300C2EAE4F5E275D18053D1FB53E2BFF5D5E3
:1000130075E50075E44243EB0C53EBFE75D41275A2
:10002300ED0075EC0053EAF375DC02F5E343E229D6
:0C00330043D10175D8FF75E107D2EA2225
:100CA4008D39AF397E0078827C007D011208AE85D3
:060CB40039D553D4FC22E7
:0300430002004672
:0D004600C0E0C0F0C083C082C0D075D008FB
:1000530020D903020439E5D9543F700302042B2449
:10006300FE602324E270030203C324F06055240ED0
:10007300600302043575D500755900E5D454FC447A
:1000830002F5D402043520DE03020435AFDB752309
:10009300008F24E4FFEFC39524E49523501C74429E
:1000A3002FF582E43400F583E0F4FE74822FF582A9
:1000B300E43400F583EEF00F80DB8524D553D4FCC4
:1000C300020435E5DC54FC4402F5DCAFDB752300A8
:1000D3008F24E524640845236003020392900007FC
:1000E300E0FE900006E07C002400F54FEC3EF54E68
:1000F300752300752400900001E0F550900000E0A6
:1001030054606067E55024FE603714603424FA2499
:10011300FD502E240B7024755A01755B00755CC667
:10012300C3E54F9440E54E940040087523007524C1
:1001330040800E854E23854F2480067523FF75244A
:10014300FFD3E54F9524E54E9523400685234E8541
:10015300244FC3E54F9440E54E940040077E007F53
:1001630040020252AE4EAF4F020252E550B40B00B2
:10017300400302039090017FF828287302036E0264
:1001830002BD0203900202F5020390020281020102
:10019300A002039002028D0202AA020398900003B8
:1001A300E024FE601C14602A24E16066242170733D
:1001B300755AFF755B0A755C4D75230075241280B3
:1001C30068755AFF755B0A755C5F75230075242992
:1001D3008057900002E0602924FE60140470447587
:1001E3005AFF755B0A755CAE75230075240E803962
:1001F300755AFF755B0A755CBC75230075240C800A
:1002030028755AFF755B0A755CAA7523007524046B
:100213008017755AFF755B0A755C88752300752412
:100223002280067523FF7524FFD3E54F9524E54E01
:100233009523400685234E85244FC3E54F9440E51F
:100243004E940040067E007F408004AE4EAF4F8E3A
:10025300238F2478007C007D01AB5AAA5BA95C1232
:1002630008AEC3E54F9524F54FE54E9523F54EE5CE
:1002730024255CF55CE523355BF55B020398900070
:1002830002E0754E00F54F020398900000E54DF033
:10029300C3E54F9401E54E94005003020398752380
:1002A30000752401020398900002E0F54DE54D70BE
:1002B30003020398755D01020398900000E0541F48
:1002C3006402702B900004E024FE601D2481600E04
:1002D300147044E5D454BC4402F5D4020398E5D227
:1002E30054BC4402F5D202039853D4730203980218
:1002F3000392900000E0541FFD701E900003E0FE87
:10030300900002E0FBEB64014E700C900A669330A0
:10031300E50302039880788076ED6402704B9000C9
:1003230003E0FE900002E0FDED4E703B900005E01F
:10033300FE900004E0FDEDFFEE702AEF24FE601155
:100343002481601714701EE5D454BF4403F5D48090
:1003530044E5D4547F440CF5D4803AE5D254BF44E9
:1003630003F5D28030802880268024900000E4F0BA
:10037300A3F0C3E54F9402E54E94004008752300B3
:100383007524028010854E23854F248008800075D4
:1003930023FF7524FFE524F47003E523F470097546
:1003A30050FF75DCCF020435D3E5249440E5239454
:1003B3000050058524DD800375DD0075DCC0807287
:1003C300E55024FB605014600424057053C3E54FCB
:1003D3009440E54E940040067E007F408004AE4E7C
:1003E300AF4F8E238F2478007C007D01AB5AAA5B2C
:1003F300A95C1208AEC3E54F9524F54FE54E95234E
:10040300F54EE524255CF55CE523355BF55B85243A
:10041300DD63DC40801CE5E35480454FF5E3800356
:1004230075DD0075DC02800AAFDB7523008F246362
:10043300DC80C2D9803E30D81775DC0275D41275C2
:10044300E300C2DAC2D9755900755D00C2D88024B1
:1004530030DA15C2DAE5DA7BFF30E2067A0A793060
:10046300800F7A0A7932800975D8FF7BFF7A0A797F
:04047300341204E457
:0B047700D0D0D082D083D0F0D0E03293
:100BC800120C3E7F147E00120C76120B547BFF7AB7
:100BD8000A79421204E4E4FF74C62FF582E4340073
:100BE800F583EFF00FBF40F0120003D2AFE55D6070
:100BF80015209512E55970FC7559017B017A007929
:0F0C0800C67D40120CA47F647E00120C7680DE45
:03000000020AC829
:0C0AC800787FE4F6D8FD75815D020B0F0D
:1007DE00E709F608DFFA8046E709F208DFFA803EFD
:1007EE0088828C83E709F0A3DFFA8032E309F608EA
:1007FE00DFFA8078E309F208DFFA807088828C8352
:10080E00E309F0A3DFFA806489828A83E0A3F60805
:10081E00DFFA805889828A83E0A3F208DFFA804CDF
:10082E0080D280FA80C680D4806980F280338010B6
:10083E0080A680EA809A80A880DA80E280CA80331F
:10084E0089828A83ECFAE493A3C8C582C8CCC58397
:10085E00CCF0A3C8C582C8CCC583CCDFE9DEE78067
:10086E000D89828A83E493A3F608DFF9ECFAA9F0E6
:10087E00EDFB2289828A83ECFAE0A3C8C582C8CC3C
:10088E00C583CCF0A3C8C582C8CCC583CCDFEADE55
:10089E00E880DB89828A83E493A3F208DFF980CCB7
:1008AE0088F0EF60010E4E60C388F0ED2402B404B0
:1008BE000050B9F582EB2402B4040050AF23234557
:0608CE00822390082E7346
:1008D40075F008758200EF2FFFEE33FECD33CDCCDB
:1008E40033CCC58233C5829BED9AEC99E58298405E
:1008F4000CF582EE9BFEED9AFDEC99FC0FD5F0D63B
:10090400E4CEFBE4CDFAE4CCF9A88222B800C1B964
:100914000059BA002DEC8BF084CFCECDFCE5F0CBA2
:10092400F97818EF2FFFEE33FEED33FDEC33FCEBDB
:1009340033FB10D703994004EB99FB0FD8E5E4F996
:10094400FA227818EF2FFFEE33FEED33FDEC33FC83
:10095400C933C910D7059BE99A4007EC9BFCE99A77
:10096400F90FD8E0E4C9FAE4CCFB2275F010EF2FBC
:10097400FFEE33FEED33FDCC33CCC833C810D707BC
:100984009BEC9AE899400AED9BFDEC9AFCE899F8F7
:0E0994000FD5F0DAE4CDFBE4CCFAE4C8F9228A
:10048200E548243CF8E60548227839301002783CE9
:10049200E475F0011209FA0209A22009EB7F2ED2BB
:1004A200098018EF540F2490D43440D4FF300D0B40
:1004B200EF24BFB41A0050032461FFE5496002151E
:1004C20049054CE54C7002054B30100D7839E47546
:1004D200F0011209FAEF0209E8020C177403D210B4
:1004E2008003E4C210F5488B398A3A893BE4F54926
:1004F200F54BF54CE54960077F201204BD80F57588
:100502004AFFC20AC209C20BC20CC20EC20FC211FA
:1005120012048BFF700D3010057F001204CEAF4C19
:10052200AE4B22B4255FC2D5C20D12048BFF24D07C
:10053200B40A00501A75F00A784930D50508B6FF9A
:100542000106C6A426F620D5047002D20C80D92456
:10055200CFB41A00EF5004C2E5D20D0206CED20A81
:1005620080C6D20980C0D20B80BCD2D580BAD20E4E
:1005720080B47F201204BD200B077401B5490040EE
:10058200F1120482FF1204BD0204F6D211D20F80CE
:1005920095120482FB120482FA120482F94A4B7009
:1005A20006799F7A077BFF200B2EE549602A7E00A1
:1005B2008E827583001209BB60060EEE654A70F0EA
:1005C200C2D5EBC0E0EAC0E0E9C0E0EE120715D008
:1005D200E0F9D0E0FAD0E0FB1209A2FF60AAEBC07A
:1005E200E0EAC0E0E9C0E01204BDD0E02401F9D0A5
:1005F200E03400FAD0E0FBE54A0460DCD54AD98059
:10060200877BFF7A077911D20B809C79108002795F
:1006120008C20FC2118008D2D5790A8004790AC2B1
:10062200D5E54A047002F54AE4FAFDFEFF1204829F
:10063200FC7B08200A13120482FD7B1030090A1287
:100642000482FE120482FF7B20EC3382D592D550C5
:1006520013C3E43009069FFFE49EFEE4200A039DD3
:10066200FDE49CFCE4CBF8C20AEC700CCFCECDCCFE
:10067200E824F8F870F38017C3EF33FFEE33FEED92
:1006820033FDEC33FCEB33FB994002FB0FD8E9EB73
:10069200300A05F8D0E0C448B20AC0E00AEC4D4E78
:1006A2004F78207B0070C2EAB54A0040BCC0E0121D
:1006B2000717D0F0D0E0200A04C4C0E0C4B20AC0D8
:1006C200F01204A6D0F0D5F0EB0204F6120A0A05E5
:1006D2009353060D5805644C05604206114F0619E6
:0F06E20044061949057943061F550603460603CA
:1006F1004506034707BF5005682D056C2E058F2B56
:10070100057023058D2007A82A05284800000587C4
:100711003F3F3F00790AA2D5200C14300E09B910D1
:10072100020404B9080104A2D5200F0250010420DB
:100731000B68920BB549005034C0E07F20300C1992
:100741007F30A20B720F720E500F12076EC20BC2D6
:100751000FC20EC2117F30800F300E03E9C0E012CC
:1007610004BD300E03D0E0F9D0E0B549CC300E170E
:100771007F30B9100C1204BD7F58300D077F78808F
:1007810003B908031204BD300B057F2D0204BD7FA0
:10079100202011F87F2B200FF322920B80CF286E9F
:1007A100756C6C2900D20A120482300AF8C20A78E8
:1007B1004930D50108F60205282D50434958120445
:1007C100822403B405004001E49007BA931204AEF9
:0D07D100743A1204AED20C75490402060DF4
:100AD400020BC8E493A3F8E493A34003F68001F265
:100AE40008DFF48029E493A3F85407240CC8C33323
:100AF400C4540F4420C8834004F456800146F6DFF2
:100B0400E4800B010204081020408090003FE47E42
:100B1400019360BCA3FF543F30E509541FFEE493E6
:100B2400A360010ECF54C025E060A840B8E493A3AD
:100B3400FAE493A3F8E493A3C8C582C8CAC583CAD8
:100B4400F0A3C8C582C8CAC583CADFE9DEE780BE90
:0100420000BD
:1009A200BB010689828A83E0225002E722BBFE0253
:0909B200E32289828A83E4932286
:1009BB00BB010CE58229F582E5833AF583E02250F1
:1009CB0006E92582F8E622BBFE06E92582F8E2223B
:0D09DB00E58229F582E5833AF583E4932255
:1009E800BB010689828A83F0225002F722BBFE01EE
:0209F800F322E8
:1009FA00FAE6FB0808E6F925F0F618E6CA3AF622FE
:100A0A00D083D082F8E4937012740193700DA3A37B
:100A1A0093F8740193F5828883E47374029368608F
:060A2A00EFA3A3A380DF8F
:100C1700EFB40A07740D120C22740A309811A899C0
:100C2700B8130CC2983098FDA899C298B811F6303D
:070C370099FDC299F5992215
:00000001FF
