:100E330075A15575A1AA43B98053B9BF75A155755D
:0E0E4300A1AAE5B954F84405F5B9E4F5A122D9
:100E5100EF4E601505A105A105A105A105A105A1FB
:0A0E610005A1EF1F70EA1E80E722D2
:100E6B00AD07AC06ED4C600E7FE87E03120E51ED24
:070E7B001D70F11C80EE2246
:0A00380043C40C43C50C43AA102278
:100CCB00C29FD29EC29DC2CDC2CC438780E4753CED
:100CDB0082F53BF53AF5397B0AFAF9F8AF3CAE3BB6
:100CEB00AD3AAC3912090CAF038F3DAF3CAE3BAD07
:100CFB003AAC39E47B0AFAF9F812090C8F3C8E3BBB
:100D0B008D3A8C39C3E53D9405748094804011EF86
:100D1B002401F53CE43EF53BE43DF53AE43CF53982
:100D2B00E589540F4420F58943C9A0E53CF404F54B
:070D3B008DD28ED299D29CEB
:010D4200228E
:0A0EA70075A15575A1AA43B11022F0
:100E820075A15575A1AAEF600543B101800353B165
:070E9200FEE4F5A1F5FF22CB
:030EC5008FFF227A
:100A580053455420434F4E4649472E0A0057616B71
:100A6800652075700A00456E61626C652052656D7F
:100A78006F74652057616B6575702E0A004C696745
:100A88006874206F6E204E756D204C6F636B204C20
:100A98004544210A004C69676874206F6666204ED9
:100AA800756D204C6F636B204C4544210A007A0019
:100AB8007700556E6B6E6F776E496E7420200A0052
:100AC8002563004B4D204465766963652073746126
:100AD8007274202E2E2E0A00120110010000000848
:100AE800861AE1E6000101020001040309040E036D
:100AF8007700630068002E0063006E000C0343005B
:100B0800480035003400390005010906A101050730
:100B180019E029E71500250175019508810295015D
:100B280075088101950375010508190129039102CA
:100B38009505750191019506750826FF00050719A9
:100B48000029918100C005010902A1010901A10044
:100B5800050919012903150025017501950381026D
:100B6800750595018101050109300931093815819B
:100B7800257F750895038106C0C009023B00020164
:100B880000A032090400000103010100092111013C
:100B98000001223E000705810308000A090401003C
:100BA8000103010200092110010001223400070598
:050BB800820304000AA5
:090EB10001630001640001560018
:0E0E990053D1FB7F027E00120E6B43D1042268
:100D4300C2EAE4F5E275D18043D10443E240F5D32E
:100D5300F5D57400FE74148EE5F5E4E5EB54FE441A
:100D630004F5EB7400FE74008EEDF5EC53EAF374B6
:100D730000FE740A8EEFF5EEE5EA54EF4440F5EA1F
:100D8300E4F5E343E22943D10175D8FF75E107D2C6
:020D9300EA2252
:0A000300756301FB7A00794E7D0859
:10000D008D3AAF3A7E00EBC0E0EAC0E0E9C0E074A3
:10001D000AF87400FC7401FDD0E0F9D0E0FAD0E0EC
:0B002D00FB1208AA853AD353D2FC2234
:0A0DD700756401FB7A0079657D0464
:100DE1008D3AAF3A7E00EBC0E0EAC0E0E9C0E074C2
:100DF10014F87400FC7401FDD0E0F9D0E0FAD0E001
:0B0E0100FB1208AA853AD553D4FC224E
:0300430002004672
:0D004600C0E0C0F0C083C082C0D075D008FB
:1000530075230075240020D903020435E5D9543FE4
:10006300700302040424E0700302039D14601F2440
:10007300F1602F240E600302043175D50063D44070
:10008300756400E5D454FC4402F5D402043175D3FD
:100093000063D240756300E5D254FC4402F5D202FA
:1000A300043175DCC0AFDB7523008F24E5246408BD
:1000B30045236003020370900007E0FE900006E012
:1000C3007C002400F559EC3EF55875230075240097
:1000D300900001E0F55A900000E054606018E55A82
:1000E3001424FD400302037624FB24FD4003020392
:1000F300768000020370E55AB40B00400302036EDE
:1001030090010AF828287302034C02027802036E56
:100113000202C302036E02023302012B02036E02C8
:10012300023F02025C020376900003E024FE60209B
:1001330014602E24E1606A242160030201D57569ED
:10014300FF756A0A756BE07523007524120201DBE3
:100153007569FF756A0B756B8275230075243B8087
:1001630077900002E0602924FE60140470647569CE
:10017300FF756A0A756BF675230075240E80597531
:1001830069FF756A0B756B0475230075240C804831
:100193007569FF756A0A756BF2752300752404800F
:1001A30037900004E0FF7E0070107569FF756A0BDD
:1001B300756B10F52375243E801EEF64014E70109D
:1001C3007569FF756A0B756B4EF5237524348008CA
:1001D30080007523FF7524FFD3E5599524E55895D1
:1001E300234006852358852459C3E5599408E558C7
:1001F300940040067E007F088004AE58AF598E23DA
:100203008F247400F87400FC7401FDAB69AA6AA919
:100213006B1208AAC3E5599524F559E5589523F5BA
:1002230058E524256BF56BE523356AF56A020376F9
:10023300900002E0755800F559020376900000E53E
:1002430057F0C3E5599401E558940050030203762F
:10025300752300752401020376900002E0F557E54B
:100263005770030203767BFF7A0A79581204E0750C
:100273006C01020376900000E0541FFF7E006402CD
:10028300702D900004E014601B2480600D1470191D
:10029300E5D454BC4402F5D48015E5D254BC4402E1
:1002A300F5D2800B53D27380067523FF7524FFEFBD
:1002B3004E700AF5567BFF7A0A7965802B0203702C
:1002C300900000E0541F702A900003E0FE900002AB
:1002D300E0FDED64014E7018900B899330E50F75C6
:1002E30056017BFF7A0A796E1204E0020376807D61
:1002F300807B900000E0541F6402704B900003E089
:10030300FE900002E0FDED4E703B900005E0FE9094
:100313000004E0FDEDFFEE702AEF24FE601124815E
:10032300601714701EE5D454BF4403F5D48044E52C
:10033300D4547F440CF5D4803AE5D254BF4403F53A
:10034300D28030802880268024900000E4F0A3F03F
:10035300C3E5599402E558940040087523007524B9
:10036300028010855823855924800880007523FF57
:100373007524FFE524F47003E523F47009755AFF2F
:1003830075DCCF020431E524452360058524DD8037
:100393000375DD0075DCC0020431E55A24FB604FB0
:1003A300147056C3E5599408E558940040067E003E
:1003B3007F088004AE58AF598E238F247400F874DD
:1003C30000FC7401FDAB69AA6AA96B1208AAC3E514
:1003D300599524F559E5589523F558E524256BF5EA
:1003E3006BE523356AF56A8524DD63DC40803FE5F0
:1003F300E354804559F5E3800375DD0075DC028025
:100403002DAFDB7523008F24E55A6409701D90001E
:1004130000E060087BFF7A0A7985800C900000E099
:1004230070097BFF7A0A799D1204E063DC80C2D9EC
:10043300803E30D81775DC0275D20275D40275E39D
:1004430000C2DAC2D9756C00C2D8802430DA15C272
:10045300DAE5DA7BFF30E2067A0A79B6800F7A0AA8
:1004630079B8800975D8FF7BFF7A0A79BA1204E05C
:0B047300D0D0D082D083D0F0D0E03297
:100C4900120EBB8F397BFF7A0A79C885393D1204A8
:100C5900E0E5566003020E99E53924BF603C24F0B3
:100C6900604B14601724067058756501E56470FCC3
:100C7900120DD7E4F565E56470FC8011756502E530
:100C89006470FC120DD7E4F565E56470FC756401C8
:100C9900FB7A0079657D04020DE1755004E5637006
:100CA900FC120003E4F550E56370FC8011755039BE
:100CB900E56370FC120003E4F550E56370FC120073
:010CC9000327
:010CCA002207
:100D9500120E337F147E00120E6B120CCB7BFF7A82
:100DA5000A79CB1204E0120D43D2AF7E007F087D95
:100DB500007B007A00794E12099E7E007F047D003B
:100DC5007B007A00796512099EE56C60FC120C497E
:020DD50080F7A5
:03000000020BBD33
:0C0BBD00787FE4F6D8FD75816C020C0412
:1007DA00E709F608DFFA8046E709F208DFFA803E01
:1007EA0088828C83E709F0A3DFFA8032E309F608EE
:1007FA00DFFA8078E309F208DFFA807088828C8356
:10080A00E309F0A3DFFA806489828A83E0A3F60809
:10081A00DFFA805889828A83E0A3F208DFFA804CE3
:10082A0080D280FA80C680D4806980F280338010BA
:10083A0080A680EA809A80A880DA80E280CA803323
:10084A0089828A83ECFAE493A3C8C582C8CCC5839B
:10085A00CCF0A3C8C582C8CCC583CCDFE9DEE7806B
:10086A000D89828A83E493A3F608DFF9ECFAA9F0EA
:10087A00EDFB2289828A83ECFAE0A3C8C582C8CC40
:10088A00C583CCF0A3C8C582C8CCC583CCDFEADE59
:10089A00E880DB89828A83E493A3F208DFF980CCBB
:1008AA0088F0EF60010E4E60C388F0ED2402B404B4
:1008BA000050B9F582EB2402B4040050AF2323455B
:0608CA00822390082A734E
:1008D00075F008758200EF2FFFEE33FECD33CDCCDF
:1008E00033CCC58233C5829BED9AEC99E582984062
:1008F0000CF582EE9BFEED9AFDEC99FC0FD5F0D63F
:10090000E4CEFBE4CDFAE4CCF9A88222B800C1B968
:100910000059BA002DEC8BF084CFCECDFCE5F0CBA6
:10092000F97818EF2FFFEE33FEED33FDEC33FCEBDF
:1009300033FB10D703994004EB99FB0FD8E5E4F99A
:10094000FA227818EF2FFFEE33FEED33FDEC33FC87
:10095000C933C910D7059BE99A4007EC9BFCE99A7B
:10096000F90FD8E0E4C9FAE4CCFB2275F010EF2FC0
:10097000FFEE33FEED33FDCC33CCC833C810D707C0
:100980009BEC9AE899400AED9BFDEC9AFCE899F8FB
:0E0990000FD5F0DAE4CDFBE4CCFAE4C8F9228E
:10047E00E549243DF8E6054922783A301002783DE8
:10048E00E475F001120A220209CA2009EB7F2ED26E
:10049E00098018EF540F2490D43440D4FF300D0B44
:1004AE00EF24BFB41A0050032461FFE54A60021521
:1004BE004A054DE54D7002054C30100D783AE47545
:1004CE00F001120A22EF020A10020E0C7403D2106F
:1004DE008003E4C210F5498B3A8A3B893CE4F54A25
:1004EE00F54CF54DE54A60077F201204B980F5758D
:1004FE004BFFC20AC209C20BC20CC20EC20FC211FE
:10050E00120487FF700D3010057F001204CAAF4D24
:10051E00AE4C22B4255FC2D5C20D120487FF24D083
:10052E00B40A00501A75F00A784A30D50508B6FF9D
:10053E000106C6A426F620D5047002D20C80D9245A
:10054E00CFB41A00EF5004C2E5D20D0206CAD20A89
:10055E0080C6D20980C0D20B80BCD2D580BAD20E52
:10056E0080B47F201204B9200B077401B54A0040F5
:10057E00F112047EFF1204B90204F2D211D20F80DE
:10058E009512047EFB12047EFA12047EF94A4B7019
:10059E0006799B7A077BFF200B2EE54A602A7E00A8
:1005AE008E827583001209E360060EEE654B70F0C5
:1005BE00C2D5EBC0E0EAC0E0E9C0E0EE120711D010
:1005CE00E0F9D0E0FAD0E0FB1209CAFF60AAEBC056
:1005DE00E0EAC0E0E9C0E01204B9D0E02401F9D0AD
:1005EE00E03400FAD0E0FBE54B0460DCD54BD9805B
:1005FE00877BFF7A07790DD20B809C791080027968
:10060E0008C20FC2118008D2D5790A8004790AC2B5
:10061E00D5E54B047002F54BE4FAFDFEFF12047EA5
:10062E00FC7B08200A1312047EFD7B1030090A128F
:10063E00047EFE12047EFF7B20EC3382D592D550D1
:10064E0013C3E43009069FFFE49EFEE4200A039DD7
:10065E00FDE49CFCE4CBF8C20AEC700CCFCECDCC02
:10066E00E824F8F870F38017C3EF33FFEE33FEED96
:10067E0033FDEC33FCEB33FB994002FB0FD8E9EB77
:10068E00300A05F8D0E0C448B20AC0E00AEC4D4E7C
:10069E004F78207B0070C2EAB54B0040BCC0E01220
:1006AE000713D0F0D0E0200A04C4C0E0C4B20AC0E0
:1006BE00F01204A2D0F0D5F0EB0204F2120A3205C9
:1006CE008F5306095805604C055C42060D4F061502
:0F06DE0044061549057543061B5505FF4605FFE4
:1006ED004505FF4707BB5005642D05682E058B2B6F
:1006FD00056C2305892007A42A05244800000583DD
:10070D003F3F3F00790AA2D5200C14300E09B910D5
:10071D00020404B9080104A2D5200F0250010420DF
:10072D000B68920BB54A005034C0E07F20300C1995
:10073D007F30A20B720F720E500F12076AC20BC2DE
:10074D000FC20EC2117F30800F300E03E9C0E012D0
:10075D0004B9300E03D0E0F9D0E0B54ACC300E1715
:10076D007F30B9100C1204B97F58300D077F788097
:10077D0003B908031204B9300B057F2D0204B97FAC
:10078D00202011F87F2B200FF322920B80CF286EA3
:10079D00756C6C2900D20A12047E300AF8C20A78F0
:1007AD004A30D50108F60205242D5043495812044C
:1007BD007E2403B405004001E49007B6931204AA09
:0D07CD00743A1204AAD20C754A04020609FF
:0A0EBB003098FDAF99C2987E002226
:10099E00EF4E6012EF60010EEDBB010B89828A8370
:1009AE00F0A3DFFCDEFA2289F05007F709DFFCA97D
:0C09BE00F022BBFEFCF309DFFCA9F022D4
:100BC900020D95E493A3F8E493A34003F68001F2A0
:100BD90008DFF48029E493A3F85407240CC8C3332D
:100BE900C4540F4420C8834004F456800146F6DFFC
:100BF900E4800B0102040810204080900EB1E47ECD
:100C0900019360BCA3FF543F30E509541FFEE493F0
:100C1900A360010ECF54C025E060A840B8E493A3B7
:100C2900FAE493A3F8E493A3C8C582C8CAC583CAE2
:100C3900F0A3C8C582C8CAC583CADFE9DEE780BE9A
:010EBA000037
:1009CA00BB010689828A83E0225002E722BBFE022B
:0909DA00E32289828A83E493225E
:1009E300BB010CE58229F582E5833AF583E02250C9
:1009F30006E92582F8E622BBFE06E92582F8E22213
:0D0A0300E58229F582E5833AF583E493222C
:100A1000BB010689828A83F0225002F722BBFE01C5
:020A2000F322BF
:100A2200FAE6FB0808E6F925F0F618E6CA3AF622D5
:100A3200D083D082F8E4937012740193700DA3A353
:100A420093F8740193F5828883E473740293686067
:060A5200EFA3A3A380DF67
:100E0C00EFB40A07740D120E17740A309811A899D2
:100E1C00B8130CC2983098FDA899C298B811F63046
:070E2C0099FDC299F599221E
:00000001FF
