:100E080075A15575A1AA43B98053B9BF75A1557588
:0E0E1800A1AAE5B954F84405F5B9E4F5A12204
:100E2600EF4E601505A105A105A105A105A105A126
:0A0E360005A1EF1F70EA1E80E722FD
:10002A00AD07AC06ED4C600E7FE87E03120E26ED9E
:07003A001D70F11C80EE2295
:0A0E650043C40C43C50C43AA10223D
:100CBE00C29FD29EC29DC2CDC2CC438780E4753CFA
:100CCE0082F53BF53AF5397B0AFAF9F8AF3CAE3BC3
:100CDE00AD3AAC391208FEAF038F3DAF3CAE3BAD23
:100CEE003AAC39E47B0AFAF9F81208FE8F3C8E3BD7
:100CFE008D3A8C39E53DC394054011EF2401F53C46
:100D0E00E43EF53BE43DF53AE43CF539E589540F14
:100D1E004420F58943C9A0E53CF404F58DD28ED26A
:030D2E0099D29CBB
:010D3100229F
:0A0E6F0075A15575A1AA43B1102228
:100E400075A15575A1AAEF600543B101800353B1A7
:070E5000FEE4F5A1F5FF220D
:030E8D008FFF22B2
:100A4A0053455420434F4E4649472E0A0057616B7F
:100A5A00652075700A00456E61626C652052656D8D
:100A6A006F74652057616B6575702E0A004C696753
:100A7A006874206F6E204E756D204C6F636B204C2E
:100A8A004544210A004C69676874206F6666204EE7
:100A9A00756D204C6F636B204C4544210A007A0027
:100AAA007700556E6B6E6F776E496E7420200A0060
:100ABA002563004B4D204465766963652073746134
:100ACA007274202E2E2E0A00120110010000000856
:100ADA00861AE1E6000101020001040309040E037B
:100AEA007700630068002E0063006E000C03430069
:100AFA00480035003400390005010906A10105073F
:100B0A0019E029E71500250175019508810295016B
:100B1A0075088101950375010508190129039102D8
:100B2A009505750191019506750826FF00050719B7
:100B3A000029918100C005010902A1010901A10052
:100B4A00050919012903150025017501950381027B
:100B5A0075059501810105010930093109381581A9
:100B6A00257F750895038106C0C009023B00020172
:100B7A0000A032090400000103010100092111014A
:100B8A000001223E000705810308000A090401004A
:100B9A0001030102000921100100012234000705A6
:050BAA00820304000AB3
:090E790001630001640001560050
:0E0E570053D1FB7F027E0012002A43D10422F9
:100D3200C2EAE4F5E275D18043D10443E240F5D33F
:100D4200F5D575E50075E414E5EB54FE4404F5EBC6
:100D520075D41275ED0075EC0053EAF375DC02757B
:100D6200EF0075EE0AE5EA54EF4440F5EA75D21257
:100D7200E4F5E343E22943D10175D8FF75E107D2D7
:020D8200EA2263
:0B0DC6007563017B007A00794E7D0808
:100DD1008D3AAF3A7E00780A7C007D0112089C852D
:060DE1003AD353D2FC22BC
:0B0DE7007564017B007A0079657D04D3
:100DF2008D3AAF3A7E0078147C007D0112089C8502
:060E02003AD553D4FC2296
:0300430002004672
:0D004600C0E0C0F0C083C082C0D075D008FB
:1000530075230075240020D903020427E5D9543FF2
:1000630070030203F724E0700302039314601C245B
:10007300F16029240E600302042375D50075640022
:10008300E5D454FC4402F5D402042375D30075630C
:1000930000E5D254FC4402F5D2020423E5DC54FC0F
:1000A3004402F5DCAFDB7523008F24E524640845A7
:1000B300236003020366900007E0FE900006E07CE5
:1000C300002400F559EC3EF5587523007524009083
:1000D3000001E0F55A900000E054606018E55A14FE
:1000E30024FD400302036C24FB24FD400302036C44
:1000F3008000020366E55AB40B00400302036490D8
:100103000109F82828730203420202710203640200
:1001130002B902036402022C02012A0203640202EE
:100123003802025502036C900003E024FE602014A1
:10013300602E24E1606A242160030201D17569FF06
:10014300756A0A756BD27523007524120201D7757F
:1001530069FF756A0B756B7475230075243B807496
:10016300900002E0602924FE60140470617569FF49
:10017300756A0A756BE875230075240E80567569D8
:10018300FF756A0A756BF675230075240C80457537
:1001930069FF756A0A756BE475230075240480345E
:1001A300900004E0FF70107569FF756A0B756B02B0
:1001B300F52375243E801DEFB401117569FF756A3F
:1001C3000B756B40752300752434800880007523FC
:1001D300FF7524FFD3E5599524E5589523400685FB
:1001E3002358852459C3E5599408E55894004006DB
:1001F3007E007F088004AE58AF598E238F24780089
:100203007C007D01AB69AA6AA96B12089CC3E559FE
:100213009524F559E5589523F558E524256BF56B99
:10022300E523356AF56A02036C900002E075580015
:10023300F55902036C900000E557F0C3E5599401AA
:10024300E5589400500302036C75230075240102E2
:10025300036C900002E0F557E557700302036C7BD3
:10026300FF7A0A794A1204D2756C0102036C90007A
:1002730000E0541FFF6402702D900004E014601B23
:100283002480600D147019E5D454BC4402F5D48065
:1002930015E5D254BC4402F5D2800B53D2738006C9
:1002A3007523FF7524FFEF700AF5567BFF7A0A79F1
:1002B30057802B020366900000E0541F702A9000C1
:1002C30003E0FE900002E0FDED64014E7018900B18
:1002D3007B9330E50F7556017BFF7A0A7960120430
:1002E300D202036C807D807B900000E0541F640287
:1002F300704B900003E0FE900002E0FDED4E703B7A
:10030300900005E0FE900004E0FDEDFFEE702AEFA3
:1003130024FE60112481601714701EE5D454BF4479
:1003230003F5D48044E5D4547F440CF5D4803AE5F6
:10033300D254BF4403F5D280308028802680249095
:100343000000E4F0A3F0C3E5599402E5589400409B
:10035300087523007524028010855823855924804D
:100363000880007523FF7524FFE524F47003E5235B
:10037300F47009755AFF75DCCF020423E524452385
:1003830060058524DD800375DD0075DCC002042370
:10039300E55A24FB604C147053C3E5599408E5589F
:1003A300940040067E007F088004AE58AF598E2328
:1003B3008F2478007C007D01AB69AA6AA96B1208BF
:1003C3009CC3E5599524F559E5589523F558E5243B
:1003D300256BF56BE523356AF56A8524DD63DC401F
:1003E300803EE5E354804559F5E3800375DD0075F0
:1003F300DC02802CAFDB7523008F24E55AB4091D82
:10040300900000E060087BFF7A0A7977800C900007
:1004130000E070097BFF7A0A798F1204D263DC80D3
:10042300C2D9803E30D81775DC0275D21275D4124A
:1004330075E300C2DAC2D9756C00C2D8802430DA01
:1004430015C2DAE5DA7BFF30E2067A0A79A8800F73
:100453007A0A79AA800975D8FF7BFF7A0A79AC12E8
:0204630004D2C1
:0B046500D0D0D082D083D0F0D0E032A5
:100C3B00120E838F397BFF7A0A79BA85393D1204FC
:100C4B00D2E5566003020E57E53924BF603D24F010
:100C5B00604C14601724067059756501E56470FCCF
:100C6B00120DE7E4F565E56470FC8011756502E52E
:100C7B006470FC120DE7E4F565E56470FC756401C6
:100C8B007B007A0079657D04020DF2755004E563F3
:100C9B0070FC120DC6E4F550E56370FC80117550C5
:100CAB0039E56370FC120DC6E4F550E56370FC1278
:020CBB000DC664
:010CBD002214
:100D8400120E087F147E0012002A120CBE7BFF7A1A
:100D94000A79BD1204D2120D32D2AF7E007F087DD3
:100DA400007B007A00794E1209907E007F047D005A
:100DB4007B007A007965120990E56C60FC120C3BAB
:020DC40080F7B6
:03000000020BAF41
:0C0BAF00787FE4F6D8FD75816C020BF62F
:1007CC00E709F608DFFA8046E709F208DFFA803E0F
:1007DC0088828C83E709F0A3DFFA8032E309F608FC
:1007EC00DFFA8078E309F208DFFA807088828C8364
:1007FC00E309F0A3DFFA806489828A83E0A3F60818
:10080C00DFFA805889828A83E0A3F208DFFA804CF1
:10081C0080D280FA80C680D4806980F280338010C8
:10082C0080A680EA809A80A880DA80E280CA803331
:10083C0089828A83ECFAE493A3C8C582C8CCC583A9
:10084C00CCF0A3C8C582C8CCC583CCDFE9DEE78079
:10085C000D89828A83E493A3F608DFF9ECFAA9F0F8
:10086C00EDFB2289828A83ECFAE0A3C8C582C8CC4E
:10087C00C583CCF0A3C8C582C8CCC583CCDFEADE67
:10088C00E880DB89828A83E493A3F208DFF980CCC9
:10089C0088F0EF60010E4E60C388F0ED2402B404C2
:1008AC000050B9F582EB2402B4040050AF23234569
:0608BC00822390081C736A
:1008C20075F008758200EF2FFFEE33FECD33CDCCED
:1008D20033CCC58233C5829BED9AEC99E582984070
:1008E2000CF582EE9BFEED9AFDEC99FC0FD5F0D64D
:1008F200E4CEFBE4CDFAE4CCF9A88222B800C1B977
:100902000059BA002DEC8BF084CFCECDFCE5F0CBB4
:10091200F97818EF2FFFEE33FEED33FDEC33FCEBED
:1009220033FB10D703994004EB99FB0FD8E5E4F9A8
:10093200FA227818EF2FFFEE33FEED33FDEC33FC95
:10094200C933C910D7059BE99A4007EC9BFCE99A89
:10095200F90FD8E0E4C9FAE4CCFB2275F010EF2FCE
:10096200FFEE33FEED33FDCC33CCC833C810D707CE
:100972009BEC9AE899400AED9BFDEC9AFCE899F809
:0E0982000FD5F0DAE4CDFBE4CCFAE4C8F9229C
:10047000E549243DF8E6054922783A301002783DF6
:10048000E475F001120A140209BC2009EB7F2ED298
:10049000098018EF540F2490D43440D4FF300D0B52
:1004A000EF24BFB41A0050032461FFE54A6002152F
:1004B0004A054DE54D7002054C30100D783AE47553
:1004C000F001120A14EF020A020200037403D210B0
:1004D0008003E4C210F5498B3A8A3B893CE4F54A33
:1004E000F54CF54DE54A60077F201204AB80F575A9
:1004F0004BFFC20AC209C20BC20CC20EC20FC2110C
:10050000120479FF700D3010057F001204BCAF4D4E
:10051000AE4C22B4255FC2D5C20D120479FF24D09F
:10052000B40A00501A75F00A784A30D50508B6FFAB
:100530000106C6A426F620D5047002D20C80D92468
:10054000CFB41A00EF5004C2E5D20D0206BCD20AA5
:1005500080C6D20980C0D20B80BCD2D580BAD20E60
:1005600080B47F201204AB200B077401B54A004011
:10057000F1120470FF1204AB0204E4D211D20F8016
:1005800095120470FB120470FA120470F94A4B7051
:1005900006798D7A077BFF200B2EE54A602A7E00C4
:1005A0008E827583001209D560060EEE654B70F0E1
:1005B000C2D5EBC0E0EAC0E0E9C0E0EE120703D02C
:1005C000E0F9D0E0FAD0E0FB1209BCFF60AAEBC072
:1005D000E0EAC0E0E9C0E01204ABD0E02401F9D0C9
:1005E000E03400FAD0E0FBE54B0460DCD54BD98069
:1005F000877BFF7A0679FFD20B809C791080027985
:1006000008C20FC2118008D2D5790A8004790AC2C3
:10061000D5E54B047002F54BE4FAFDFEFF120470C1
:10062000FC7B08200A13120470FD7B1030090A12AB
:100630000470FE120470FF7B20EC3382D592D550FB
:1006400013C3E43009069FFFE49EFEE4200A039DE5
:10065000FDE49CFCE4CBF8C20AEC700CCFCECDCC10
:10066000E824F8F870F38017C3EF33FFEE33FEEDA4
:1006700033FDEC33FCEB33FB994002FB0FD8E9EB85
:10068000300A05F8D0E0C448B20AC0E00AEC4D4E8A
:100690004F78207B0070C2EAB54B0040BCC0E0122E
:1006A0000705D0F0D0E0200A04C4C0E0C4B20AC0FC
:1006B000F0120494D0F0D5F0EB0204E4120A240501
:1006C000815305FB5805524C054E4205FF4F060766
:0F06D00044060749056743060D5505F14605F138
:1006DF004505F14707AD5005562D055A2E057D2BC3
:1006EF00055E23057B2007962A0516480000057531
:1006FF003F3F3F00790AA2D5200C14300E09B910E4
:10070F00020404B9080104A2D5200F0250010420ED
:10071F000B68920BB54A005034C0E07F20300C19A3
:10072F007F30A20B720F720E500F12075CC20BC2FA
:10073F000FC20EC2117F30800F300E03E9C0E012DE
:10074F0004AB300E03D0E0F9D0E0B54ACC300E1731
:10075F007F30B9100C1204AB7F58300D077F7880B3
:10076F0003B908031204AB300B057F2D0204AB7FD6
:10077F00202011F87F2B200FF322920B80CF286EB1
:10078F00756C6C2900D20A120470300AF8C20A780C
:10079F004A30D50108F60205162D50434958120468
:1007AF00702403B405004001E49007A89312049C41
:0D07BF00743A12049CD20C754A040205FB2A
:0A0E83003098FDAF99C2987E00225E
:10099000EF4E6012EF60010EEDBB010B89828A837E
:1009A000F0A3DFFCDEFA2289F05007F709DFFCA98B
:0C09B000F022BBFEFCF309DFFCA9F022E2
:100BBB00020D84E493A3F8E493A34003F68001F2BF
:100BCB0008DFF48029E493A3F85407240CC8C3333B
:100BDB00C4540F4420C8834004F456800146F6DF0A
:100BEB00E4800B0102040810204080900E79E47E13
:100BFB00019360BCA3FF543F30E509541FFEE493FF
:100C0B00A360010ECF54C025E060A840B8E493A3C5
:100C1B00FAE493A3F8E493A3C8C582C8CAC583CAF0
:100C2B00F0A3C8C582C8CAC583CADFE9DEE780BEA8
:010E8200006F
:1009BC00BB010689828A83E0225002E722BBFE0239
:0909CC00E32289828A83E493226C
:1009D500BB010CE58229F582E5833AF583E02250D7
:1009E50006E92582F8E622BBFE06E92582F8E22221
:0D09F500E58229F582E5833AF583E493223B
:100A0200BB010689828A83F0225002F722BBFE01D3
:020A1200F322CD
:100A1400FAE6FB0808E6F925F0F618E6CA3AF622E3
:100A2400D083D082F8E4937012740193700DA3A361
:100A340093F8740193F5828883E473740293686075
:060A4400EFA3A3A380DF75
:10000300EFB40A07740D12000E740A309811A89900
:10001300B8130CC2983098FDA899C298B811F6305D
:0700230099FDC299F5992235
:00000001FF
