:100C800075A15575A1AA43B98053B9BF75A1557512
:0E0C9000A1AAE5B954F84405F5B9E4F5A1228E
:100C9E00EF4E601505A105A105A105A105A105A1B0
:0A0CAE0005A1EF1F70EA1E80E72287
:100CB800AD07AC06ED4C600E7FE87E03120C9EED8E
:070CC8001D70F11C80EE22FB
:0A0CE60043C40C43C50C43AA1022BE
:100B5E00C29FD29EC29DC2CDC2CC438780E4753C5B
:100B6E0082F53BF53AF5397B0AFAF9F8AF3CAE3B24
:100B7E00AD3AAC3912091AAF038F3DAF3CAE3BAD67
:100B8E003AAC39E47B0AFAF9F812091A8F3C8E3B1B
:100B9E008D3A8C39C3E53D9405748094804011EFF5
:100BAE002401F53CE43EF53BE43DF53AE43CF539F1
:100BBE00E589540F4420F58943C9A0E53CF404F5BA
:070BCE008DD28ED299D29C5A
:010BD50022FD
:0A0CF00075A15575A1AA43B11022A9
:100CCF0075A15575A1AAEF600543B101800353B11A
:070CDF00FEE4F5A1F5FF2280
:030040008FFF220D
:100A3A007A007700556E6B6E6F776E496E74202060
:100A4A000A007374617274202E2E2E0A001201108D
:100A5A000100000040861AE0E600000102000109D8
:100A6A00022900010104A023090400000203000076
:100A7A000509210001000122220007058203400026
:100A8A0001070502034000010600FF0901A101094F
:100A9A000215002600FF7508954081060902150017
:100AAA002600FF750895409106C0040309040E0349
:100ABA007700630068002E0063006E000C03430099
:080ACA0048003500340039003A
:030CFA000159009D
:10000300C2EAE4F5E275D18053D1FB53E2BFF5D5E3
:100013007400FE74408EE5F5E443EB0C53EBFE7481
:1000230000FE74008EEDF5EC53EAF3E4F5E343E2EE
:0D0033002943D10175D8FF75E107D2EA22FB
:100C2E008D39AF397E00EBC0E0EAC0E0E9C0E07478
:100C3E0080F87400FC7401FDD0E0F9D0E0FAD0E049
:0B0C4E00FB1208B88539D553D4FC22F6
:0300430002004672
:0D004600C0E0C0F0C083C082C0D075D008FB
:1000530020D903020443E5D9543F70030204352435
:10006300FE602624E270030203CA24F0605B240EC0
:10007300600302043F75D50063D440755900E5D48D
:1000830054FC4402F5D402043F20DE0302043F6320
:10009300D480AFDB7523008F24E4FFEFC39524E402
:1000A3009523501C74402FF582E43400F583E0F46B
:1000B300FE74802FF582E43400F583EEF00F80DBCD
:1000C3008524D553D4FC02043F75DCC0AFDB752314
:1000D300008F24E5246408452360030203999000FC
:1000E30007E0FE900006E07C002400F54FEC3EF5AF
:1000F3004E752300752400900001E0F55090000038
:10010300E054606067E55024FE603714603424FADD
:1001130024FD502E240B7024755A01755B00755C09
:10012300C0C3E54F9440E54E940040087523007525
:100133002440800E854E23854F2480067523FF754A
:1001430024FFD3E54F9524E54E9523400685234EA2
:1001530085244FC3E54F9440E54E940040077E004D
:100163007F40020253AE4EAF4F020253E550B40B31
:10017300004003020397900180F828287302037557
:100183000202C10203970202F902039702028502E7
:1001930001A10203970202910202AE02039F9000A3
:1001A30003E024FE601C14602A24E16066242170AD
:1001B30073755AFF755B0A755C57752300752412B6
:1001C3008068755AFF755B0A755C69752300752431
:1001D300298057900002E0602924FE6014047044D3
:1001E300755AFF755B0A755CB875230075240E801C
:1001F30039755AFF755B0A755CC675230075240C47
:100203008028755AFF755B0A755CB47523007524E5
:10021300048017755AFF755B0A755C927523007528
:10022300242280067523FF7524FFD3E54F9524E52B
:100233004E9523400685234E85244FC3E54F9440B6
:10024300E54E940040067E007F408004AE4EAF4FE3
:100253008E238F247400F87400FC7401FDAB5AAA3A
:100263005BA95C1208B8C3E54F9524F54FE54E959D
:1002730023F54EE524255CF55CE523355BF55B0250
:10028300039F900002E0754E00F54F02039F90001C
:1002930000E54DF0C3E54F9401E54E940050030291
:1002A300039F75230075240102039F900002E0F56C
:1002B3004DE54D700302039F755D0102039F90009E
:1002C30000E0541F6402702B900004E024FE601DC4
:1002D3002481600E147046E5D454BC4402F5D40264
:1002E300039FE5D254BC4402F5D202039F53D47357
:1002F30002039F020399900000E0541FFD7C0070ED
:100303001E900003E0FE900002E0FBEB64014E70E0
:100313000C900A709330E50302039F80798077ED98
:1003230064024C704B900003E0FE900002E0FDED90
:100333004E703B900005E0FE900004E0FDEDFFEE03
:10034300702AEF24FE60112481601714701EE5D417
:1003530054BF4403F5D48044E5D4547F440CF5D40E
:10036300803AE5D254BF4403F5D2803080288026FA
:100373008024900000E4F0A3F0C3E54F9402E54E1F
:10038300940040087523007524028010854E238550
:100393004F24800880007523FF7524FFE524F47043
:1003A30003E523F470097550FF75DCCF02043FD3D6
:1003B300E5249440E523940050058524DD800375EE
:1003C300DD0075DCC08075E55024FB6053146004C8
:1003D30024057056C3E54F9440E54E940040067ED5
:1003E300007F408004AE4EAF4F8E238F247400F8FD
:1003F3007400FC7401FDAB5AAA5BA95C1208B8C374
:10040300E54F9524F54FE54E9523F54EE524255C00
:10041300F55CE523355BF55B8524DD63DC40801CFF
:10042300E5E35480454FF5E3800375DD0075DC0299
:10043300800AAFDB7523008F2463DC80C2D9803E42
:1004430030D81775DC0275D40275E300C2DAC2D95D
:10045300755900755D00C2D8802430DA15C2DAE51B
:10046300DA7BFF30E2067A0A793A800F7A0A793C1E
:0E047300800975D8FF7BFF7A0A793E1204EEED
:0B048100D0D0D082D083D0F0D0E03289
:100BD600120C807F147E00120CB8120B5E7BFF7A1B
:100BE6000A794C1204EEE4FFEFC3944074809480BB
:100BF600500F74C02FF582E43400F583EFF00F80B8
:100C0600E7120003D2AFE55D6015209512E5597035
:100C1600FC7559017B017A0079C07D40120C2E7F4C
:080C2600647E00120CB880DEB0
:03000000020AD21F
:0C0AD200787FE4F6D8FD75815D020B19F9
:1007E800E709F608DFFA8046E709F208DFFA803EF3
:1007F80088828C83E709F0A3DFFA8032E309F608E0
:10080800DFFA8078E309F208DFFA807088828C8347
:10081800E309F0A3DFFA806489828A83E0A3F608FB
:10082800DFFA805889828A83E0A3F208DFFA804CD5
:1008380080D280FA80C680D4806980F280338010AC
:1008480080A680EA809A80A880DA80E280CA803315
:1008580089828A83ECFAE493A3C8C582C8CCC5838D
:10086800CCF0A3C8C582C8CCC583CCDFE9DEE7805D
:100878000D89828A83E493A3F608DFF9ECFAA9F0DC
:10088800EDFB2289828A83ECFAE0A3C8C582C8CC32
:10089800C583CCF0A3C8C582C8CCC583CCDFEADE4B
:1008A800E880DB89828A83E493A3F208DFF980CCAD
:1008B80088F0EF60010E4E60C388F0ED2402B404A6
:1008C8000050B9F582EB2402B4040050AF2323454D
:0608D80082239008387332
:1008DE0075F008758200EF2FFFEE33FECD33CDCCD1
:1008EE0033CCC58233C5829BED9AEC99E582984054
:1008FE000CF582EE9BFEED9AFDEC99FC0FD5F0D631
:10090E00E4CEFBE4CDFAE4CCF9A88222B800C1B95A
:10091E000059BA002DEC8BF084CFCECDFCE5F0CB98
:10092E00F97818EF2FFFEE33FEED33FDEC33FCEBD1
:10093E0033FB10D703994004EB99FB0FD8E5E4F98C
:10094E00FA227818EF2FFFEE33FEED33FDEC33FC79
:10095E00C933C910D7059BE99A4007EC9BFCE99A6D
:10096E00F90FD8E0E4C9FAE4CCFB2275F010EF2FB2
:10097E00FFEE33FEED33FDCC33CCC833C810D707B2
:10098E009BEC9AE899400AED9BFDEC9AFCE899F8ED
:0E099E000FD5F0DAE4CDFBE4CCFAE4C8F92280
:10048C00E548243CF8E60548227839301002783CDF
:10049C00E475F001120A040209AC2009EB7F2ED29C
:1004AC00098018EF540F2490D43440D4FF300D0B36
:1004BC00EF24BFB41A0050032461FFE54960021514
:1004CC0049054CE54C7002054B30100D7839E4753C
:1004DC00F001120A04EF0209F2020C597403D21053
:1004EC008003E4C210F5488B398A3A893BE4F5491C
:1004FC00F54BF54CE54960077F201204C780F57574
:10050C004AFFC20AC209C20BC20CC20EC20FC211F0
:10051C00120495FF700D3010057F001204D8AF4CFB
:10052C00AE4B22B4255FC2D5C20D120495FF24D068
:10053C00B40A00501A75F00A784930D50508B6FF90
:10054C000106C6A426F620D5047002D20C80D9244C
:10055C00CFB41A00EF5004C2E5D20D0206D8D20A6D
:10056C0080C6D20980C0D20B80BCD2D580BAD20E44
:10057C0080B47F201204C7200B077401B5490040DA
:10058C00F112048CFF1204C7020500D211D20F80A5
:10059C009512048CFB12048CFA12048CF94A4B70E1
:1005AC000679A97A077BFF200B2EE549602A7E008D
:1005BC008E827583001209C560060EEE654A70F0D6
:1005CC00C2D5EBC0E0EAC0E0E9C0E0EE12071FD0F4
:1005DC00E0F9D0E0FAD0E0FB1209ACFF60AAEBC066
:1005EC00E0EAC0E0E9C0E01204C7D0E02401F9D091
:1005FC00E03400FAD0E0FBE54A0460DCD54AD9804F
:10060C00877BFF7A07791BD20B809C79108002794B
:10061C0008C20FC2118008D2D5790A8004790AC2A7
:10062C00D5E54A047002F54AE4FAFDFEFF12048C8B
:10063C00FC7B08200A1312048CFD7B1030090A1273
:10064C00048CFE12048CFF7B20EC3382D592D550A7
:10065C0013C3E43009069FFFE49EFEE4200A039DC9
:10066C00FDE49CFCE4CBF8C20AEC700CCFCECDCCF4
:10067C00E824F8F870F38017C3EF33FFEE33FEED88
:10068C0033FDEC33FCEB33FB994002FB0FD8E9EB69
:10069C00300A05F8D0E0C448B20AC0E00AEC4D4E6E
:1006AC004F78207B0070C2EAB54A0040BCC0E01213
:1006BC000721D0F0D0E0200A04C4C0E0C4B20AC0C4
:1006CC00F01204B0D0F0D5F0EB020500120A1405BC
:1006DC009D53061758056E4C056A42061B4F0623A0
:0F06EC0044062349058343062955060D46060D8E
:1006FB0045060D4707C95005722D05762E05992B1A
:10070B00057A2305972007B22A0532480000059188
:10071B003F3F3F00790AA2D5200C14300E09B910C7
:10072B00020404B9080104A2D5200F0250010420D1
:10073B000B68920BB549005034C0E07F20300C1988
:10074B007F30A20B720F720E500F120778C20BC2C2
:10075B000FC20EC2117F30800F300E03E9C0E012C2
:10076B0004C7300E03D0E0F9D0E0B549CC300E17FA
:10077B007F30B9100C1204C77F58300D077F78807B
:10078B0003B908031204C7300B057F2D0204C77F82
:10079B00202011F87F2B200FF322920B80CF286E95
:1007AB00756C6C2900D20A12048C300AF8C20A78D4
:1007BB004930D50108F60205322D50434958120431
:1007CB008C2403B405004001E49007C4931204B8D1
:0D07DB00743A1204B8D20C754904020617D6
:100ADE00020BD6E493A3F8E493A34003F68001F24D
:100AEE0008DFF48029E493A3F85407240CC8C33319
:100AFE00C4540F4420C8834004F456800146F6DFE8
:100B0E00E4800B0102040810204080900CFAE47E71
:100B1E00019360BCA3FF543F30E509541FFEE493DC
:100B2E00A360010ECF54C025E060A840B8E493A3A3
:100B3E00FAE493A3F8E493A3C8C582C8CAC583CACE
:100B4E00F0A3C8C582C8CAC583CADFE9DEE780BE86
:010CFD0000F6
:1009AC00BB010689828A83E0225002E722BBFE0249
:0909BC00E32289828A83E493227C
:1009C500BB010CE58229F582E5833AF583E02250E7
:1009D50006E92582F8E622BBFE06E92582F8E22231
:0D09E500E58229F582E5833AF583E493224B
:1009F200BB010689828A83F0225002F722BBFE01E4
:020A0200F322DD
:100A0400FAE6FB0808E6F925F0F618E6CA3AF622F3
:100A1400D083D082F8E4937012740193700DA3A371
:100A240093F8740193F5828883E473740293686085
:060A3400EFA3A3A380DF85
:100C5900EFB40A07740D120C64740A309811A8993C
:100C6900B8130CC2983098FDA899C298B811F630FB
:070C790099FDC299F59922D3
:00000001FF
