:100ADF0075A15575A1AA43B98053B9BF75A15575B5
:0E0AEF00A1AAE5B954F84405F5B9E4F5A12231
:100AFD00EF4E601505A105A105A105A105A105A153
:0A0B0D0005A1EF1F70EA1E80E72229
:100B1700AD07AC06ED4C600E7FE87E03120AFDEDD3
:070B27001D70F11C80EE229D
:0A0B510043C40C43C50C43AA102254
:100A4000C29FD29EC29DC2CDC2CC438780E4753C7A
:100A500082F53BF53AF5397B0AFAF9F8AF3CAE3B43
:100A6000AD3AAC391207F9AF038F3DAF3CAE3BADA9
:100A70003AAC39E47B0AFAF9F81207F98F3C8E3B5D
:100A80008D3A8C39C3E53D9405748094804011EF14
:100A90002401F53CE43EF53BE43DF53AE43CF53910
:100AA000E589540F4420F58943C9A0E53CF404F5D9
:070AB0008DD28ED299D29C79
:010AB700221C
:0A0B5B0075A15575A1AA43B110223F
:100B2E0075A15575A1AAEF600543B101800353B1BC
:070B3E00FEE4F5A1F5FF2222
:03003E008FFF220F
:1009AD00457272457030526571436F64653D2530F7
:1009BD0032580A0045727245703052657153697A2A
:1009CD00650A007A0053746172742040436869703F
:1009DD0049443D253032580A0025630012011001AB
:1009ED00FF805508484337550001010200010902F7
:1009FD00270001010080320904000003FF8055002B
:100A0D0007058202400000070502024000000705AD
:100A1D008103400000040309040E0377006300689E
:100A2D00002E0063006E000C0343004800350034B7
:030A3D000039007D
:030043000203A213
:0D03A200C0E0C0F0C083C082C0D075D0089C
:1003AF0020D90302068D30DF03020689E5D9543FB9
:1003BF00700302068624E0700302062D14605514A4
:1003CF00604424F2605C242E600302068920DE0361
:1003DF0002068963D48085DB23E4FFEFC3952350A6
:1003EF001C744A2FF582E43400F583E0F4FE748A1E
:1003FF002FF582E43400F583EEF00F80DE8523D5F0
:10040F0053D4FC02068963D440E5D454FC4402F56E
:10041F00D402068963D240E5D254FC4402F5D202DD
:10042F00068975DCC085DB23E523640860030205BC
:10043F00F9900006E0F511A3E0700BD3E511947F5E
:10044F0074809480400375117F752300900001E044
:10045F00F512900000E0546060030205B2E51270DF
:10046F00030205CC14700302057724FC7003020508
:10047F004524FD700302054E1470030205641470C9
:10048F00030205B7240460030205E8900003E0248B
:10049F00FE6015146020240270537513FF75140944
:1004AF007515E975231280487513FF7514097515B5
:1004BF00FB752327803A900002E0602324FE601131
:1004CF0004702A7513FF75140A75152675230E808F
:1004DF001F7513FF75140A75153475230C8011756C
:1004EF0013FF75140A75152275230480037523FFF6
:1004FF00E511D395234003852311C3E511940874A7
:10050F0080948040047F088002AF118F237E007497
:10051F0000F87400FC7401FDAB13AA14A91512079F
:10052F0097C3E5119523F511E5232515F515E43549
:10053F0014F514020605900002E0F511020605906D
:10054F000000E510F0C3E51194017480948050030E
:10055F000206058063900002E0F510E510700302BB
:10056F000605751601020605900000E0541F64028F
:10057F007031900004E01460231460112481601224
:10058F0014701EE5D454BC4402F5D4806953D4735F
:10059F008064E5D254BC4402F5D2805A53D27380A2
:1005AF005580007523FF804E900000E4F0C3E511E5
:1005BF00940174809480403E75230180399000002F
:1005CF00E4F0A3F0C3E511940274809480400575A4
:1005DF0023028022851123801D7523FF7BFF7A095B
:1005EF0079AD753C0085123D80097523FF7BFF7A3D
:1005FF000979C11200A8AF237E00EFF470087512BD
:10060F00FF75DCCF8074D3EF9408EE648094805034
:10061F00058523DD800375DD0075DCC0805CE51288
:10062F0024FB604414704BC3E511940874809480CC
:10063F0040047F088002AF118F237E007400F8748E
:10064F0000FC7401FDAB13AA14A915120797C3E59B
:10065F00119523F511E5232515F515E43514F5143A
:10066F008523DD63DC408012E5E354804511F5E31B
:10067F00800575DD00800075DC02C2D9802F30D86F
:10068F001475DC0275D20275D40275E300C2DAC2AA
:10069F00D9C2D8801830DA12C2DAE5DA30E20E7B2E
:0D06AF00FF7A0979D01200A8800375D8FFEA
:0B06BC00D0D0D082D083D0F0D0E0324C
:10000300C2EAE4F5E275EA4075EB0C7400FE740095
:100013008EEDF5EC7400FE740A8EEFF5EE7400FEBF
:10002300744A8EE5F5E4E4F5E375D18075E229437E
:0B003300D10175D8FF75E107D2EA2269
:10091900120ADF7F147E00120B17120A407BFF7A3E
:100929000979D2AFA1753C008F3D1200A8120003CE
:10093900D2AF120B658F387BFF7A0979E685383C8F
:100949001200A8E538C3943040E8E538D3947A50CA
:10095900E1E53824D0FFE434FFFAEFF97BFFEBC07F
:10096900E0EAC0E0E9C0E0740AF87400FC7401FD33
:10097900D0E0F9D0E0FAD0E0FB7E007F4012079783
:10098900E53824D0FFE434FFFED3EF9408EE648009
:10099900948040047F088005E53824D0FF8FD35325
:0409A900D2FC808E6E
:03000000020B45AB
:0C0B4500787FE4F6D8FD75814C02091998
:1006C700E709F608DFFA8046E709F208DFFA803E15
:1006D70088828C83E709F0A3DFFA8032E309F60802
:1006E700DFFA8078E309F208DFFA807088828C836A
:1006F700E309F0A3DFFA806489828A83E0A3F6081E
:10070700DFFA805889828A83E0A3F208DFFA804CF7
:1007170080D280FA80C680D4806980F280338010CE
:1007270080A680EA809A80A880DA80E280CA803337
:1007370089828A83ECFAE493A3C8C582C8CCC583AF
:10074700CCF0A3C8C582C8CCC583CCDFE9DEE7807F
:100757000D89828A83E493A3F608DFF9ECFAA9F0FE
:10076700EDFB2289828A83ECFAE0A3C8C582C8CC54
:10077700C583CCF0A3C8C582C8CCC583CCDFEADE6D
:10078700E880DB89828A83E493A3F208DFF980CCCF
:1007970088F0EF60010E4E60C388F0ED2402B404C8
:1007A7000050B9F582EB2402B4040050AF2323456F
:0607B70082239007177376
:1007BD0075F008758200EF2FFFEE33FECD33CDCCF3
:1007CD0033CCC58233C5829BED9AEC99E582984076
:1007DD000CF582EE9BFEED9AFDEC99FC0FD5F0D653
:1007ED00E4CEFBE4CDFAE4CCF9A88222B800C1B97D
:1007FD000059BA002DEC8BF084CFCECDFCE5F0CBBB
:10080D00F97818EF2FFFEE33FEED33FDEC33FCEBF3
:10081D0033FB10D703994004EB99FB0FD8E5E4F9AE
:10082D00FA227818EF2FFFEE33FEED33FDEC33FC9B
:10083D00C933C910D7059BE99A4007EC9BFCE99A8F
:10084D00F90FD8E0E4C9FAE4CCFB2275F010EF2FD4
:10085D00FFEE33FEED33FDCC33CCC833C810D707D4
:10086D009BEC9AE899400AED9BFDEC9AFCE899F80F
:0E087D000FD5F0DAE4CDFBE4CCFAE4C8F922A2
:10004600E548243CF8E60548227839301002783C29
:10005600E475F0011208E302088B2009EB7F2ED22B
:10006600098018EF540F2490D43440D4FF300D0B80
:10007600EF24BFB41A0050032461FFE5496002155E
:1000860049054CE54C7002054B30100D7839E47586
:10009600F0011208E3EF0208D1020AB87403D21085
:1000A6008003E4C210F5488B398A3A893BE4F54966
:1000B600F54BF54CE54960077F2012008180F57508
:1000C6004AFFC20AC209C20BC20CC20EC20FC2113B
:1000D60012004FFF700D3010057F00120092AF4CDA
:1000E600AE4B22B4255FC2D5C20D12004FFF24D0FD
:1000F600B40A00501A75F00A784930D50508B6FFDB
:100106000106C6A426F620D5047002D20C80D92496
:10011600CFB41A00EF5004C2E5D20D020292D20A01
:1001260080C6D20980C0D20B80BCD2D580BAD20E8E
:1001360080B47F20120081200B077401B54900406E
:10014600F1120046FF1200810200BAD211D20F80CE
:1001560095120046FB120046FA120046F94A4B7009
:100166000679637A037BFF200B2EE549602A7E0021
:100176008E827583001208A460060EEE654A70F042
:10018600C2D5EBC0E0EAC0E0E9C0E0EE1202D9D089
:10019600E0F9D0E0FAD0E0FB12088BFF60AAEBC0D2
:1001A600E0EAC0E0E9C0E0120081D0E02401F9D025
:1001B600E03400FAD0E0FBE54A0460DCD54AD98099
:1001C600877BFF7A0279D5D20B809C7910800279E1
:1001D60008C20FC2118008D2D5790A8004790AC2F2
:1001E600D5E54A047002F54AE4FAFDFEFF12004620
:1001F600FC7B08200A13120046FD7B1030090A1208
:100206000046FE120046FF7B20EC3382D592D55085
:1002160013C3E43009069FFFE49EFEE4200A039D13
:10022600FDE49CFCE4CBF8C20AEC700CCFCECDCC3E
:10023600E824F8F870F38017C3EF33FFEE33FEEDD2
:1002460033FDEC33FCEB33FB994002FB0FD8E9EBB3
:10025600300A05F8D0E0C448B20AC0E00AEC4D4EB8
:100266004F78207B0070C2EAB54A0040BCC0E0125D
:1002760002DBD0F0D0E0200A04C4C0E0C4B20AC059
:10028600F012006AD0F0D5F0EB0200BA1208F301C2
:10029600575301D15801284C01244201D54F01DDA5
:0F02A6004401DD49013D4301E35501C74601C74E
:1002B5004501C747038350012C2D01302E01532BD7
:1002C500013423015120036C2A00EC480000014B46
:1002D5003F3F3F00790AA2D5200C14300E09B91012
:1002E500020404B9080104A2D5200F02500104201C
:1002F5000B68920BB549005034C0E07F20300C19D3
:100305007F30A20B720F720E500F120332C20BC256
:100315000FC20EC2117F30800F300E03E9C0E0120C
:100325000081300E03D0E0F9D0E0B549CC300E178E
:100335007F30B9100C1200817F58300D077F78800F
:1003450003B90803120081300B057F2D0200817F60
:10035500202011F87F2B200FF322920B80CF286EDF
:10036500756C6C2900D20A120046300AF8C20A7868
:100375004930D50108F60200EC2D504349581200CA
:10038500462403B405004001E490037E93120072F5
:0D039500743A120072D20C7549040201D1B5
:0A0B65003098FDAF99C2987E00227F
:10088B00BB010689828A83E0225002E722BBFE026B
:09089B00E32289828A83E493229E
:1008A400BB010CE58229F582E5833AF583E0225009
:1008B40006E92582F8E622BBFE06E92582F8E22253
:0D08C400E58229F582E5833AF583E493226D
:1008D100BB010689828A83F0225002F722BBFE0106
:0208E100F32200
:1008E300FAE6FB0808E6F925F0F618E6CA3AF62216
:1008F300D083D082F8E4937012740193700DA3A394
:1009030093F8740193F5828883E4737402936860A7
:06091300EFA3A3A380DFA7
:100AB800EFB40A07740D120AC3740A309811A89982
:100AC800B8130CC2983098FDA899C298B811F6309E
:070AD80099FDC299F5992276
:00000001FF
