:100A870075A15575A1AA43B98053B9BF75A155750D
:0E0A9700A1AAE5B954F84405F5B9E4F5A12289
:100AA500EF4E601505A105A105A105A105A105A1AB
:0A0AB50005A1EF1F70EA1E80E72282
:100ABF00AD07AC06ED4C600E7FE87E03120AA5ED84
:070ACF001D70F11C80EE22F6
:0A0AF90043C40C43C50C43AA1022AD
:10097B00C29FD29EC29DC2CDC2CC438780E4753C40
:10098B0082F53BF53AF5397B0AFAF9F8AF3CAE3B09
:10099B00AD3AAC391207C8AF038F3DAF3CAE3BADA0
:1009AB003AAC39E47B0AFAF9F81207C88F3C8E3B54
:1009BB008D3A8C39E53DC394054011EF2401F53C8C
:1009CB00E43EF53BE43DF53AE43CF539E589540F5B
:1009DB004420F58943C9A0E53CF404F58DD28ED2B1
:0309EB0099D29C02
:0109EE0022E6
:0A0B030075A15575A1AA43B1102297
:100AD60075A15575A1AAEF600543B101800353B115
:070AE600FEE4F5A1F5FF227B
:03003D008FFF2210
:1008E800457272457030526571436F64653D2530BD
:1008F80032580A0045727245703052657153697AF0
:10090800650A007A00537461727420404368697004
:1009180049443D253032580A002563001201100170
:10092800FF805508484337550001010200010902BC
:10093800270001010080320904000003FF805500F0
:100948000705820240000007050202400000070573
:100958008103400000040309040E03770063006864
:10096800002E0063006E000C03430048003500347D
:0309780000390043
:030043000203A213
:0D03A200C0E0C0F0C083C082C0D075D0089C
:1003AF0020D90302065C30DF03020658E5D9543F1B
:1003BF00700302065524E0700302060314604F1405
:1003CF00604124F26053242E600302065820DE039E
:1003DF0002065885DB23E4FFEFC39523501C744CB2
:1003EF002FF582E43400F583E0F4FE748C2FF58250
:1003FF00E43400F583EEF00F80DE8523D553D4FC73
:10040F00020658E5D454FC4402F5D4020658E5D24E
:10041F0054FC4402F5D202065885DB23E523640819
:10042F0060030205D6900006E0F511A3E07007E522
:10043F0011D3947F400375117F752300900001E065
:10044F00F512900000E054606003020597E512700A
:10045F00030205AD14700302055C24FC7003020552
:10046F002E24FD7003020537147003020549147022
:10047F000302059C240460030205C5900003E024D9
:10048F00FE6015146020240270537513FF75140954
:10049F0075152475231280487513FF75140975158A
:1004AF0036752327803A900002E0602324FE601106
:1004BF0004702A7513FF75140975156175230E8065
:1004CF001F7513FF75140975156F75230C80117542
:1004DF0013FF75140975155D75230480037523FFCC
:1004EF00E511D395234003852311E511C3940840EB
:1004FF00047F088002AF118F237E0078007C007D7F
:10050F0001AB13AA14A915120766C3E5119523F5BC
:10051F0011E5232515F515E43514F5140205E290C0
:10052F000002E0F5110205E2900000E510F0E51180
:10053F00C3940150030205E2805F900002E0F510C2
:10054F00E51070030205E27516010205E290000046
:10055F00E0541F64027031900004E01460231460B3
:10056F00112481601214701EE5D454BC4402F5D4DA
:10057F00806153D473805CE5D254BC4402F5D280C1
:10058F005253D273804D80007523FF804690000038
:10059F00E4F0E511C39401403A75230180359000D2
:1005AF0000E4F0A3F0E511C3940240057523028027
:1005BF0022851123801D7523FF7BFF7A0879E8754B
:1005CF003C0085123D80097523FF7BFF7A0879FC7B
:1005DF001200A8E523B4FF087512FF75DCCF806900
:1005EF00E523D3940850058523DD800375DD007561
:1005FF00DCC08055E51224FB603D147044E511C347
:10060F00940840047F088002AF118F237E0078008A
:10061F007C007D01AB13AA14A915120766C3E5115F
:10062F009523F511E5232515F515E43514F51485F6
:10063F0023DD63DC408012E5E354804511F5E38050
:10064F000575DD00800075DC02C2D9802F30D8140B
:10065F0075DC0275D21075D41275E300C2DAC2D9F7
:10066F00C2D8801830DA12C2DAE5DA30E20E7BFF38
:0C067F007A09790B1200A8800375D8FFDF
:0B068B00D0D0D082D083D0F0D0E0327D
:10000300C2EAE4F5E275EA4075EB0C75ED0075ECB8
:100013000075EF0075EE0A75E50075E44C75DC02BA
:1000230075D21075D412F5E375D18075E22943D1E9
:0A0033000175D8FF75E107D2EA223B
:1009EF00120A877F147E00120ABF12097B7BFF7ADF
:1009FF0009790DAFA1753C008F3D1200A8120003BD
:100A0F00D2AF120B0D8F387BFF7A09792185383CD5
:100A1F001200A8E538C3943040E8E538D3947A50F3
:100A2F00E1E53824D0FFE434FFFAC9EFC97BFF7842
:100A3F000A7C007D017E007F40120766E53824D0D6
:100A4F00FFD3940840047F0880008FD353D2FC80DB
:010A5F00B1E5
:03000000020AED04
:0C0AED00787FE4F6D8FD75814C0209EF1B
:10069600E709F608DFFA8046E709F208DFFA803E46
:1006A60088828C83E709F0A3DFFA8032E309F60833
:1006B600DFFA8078E309F208DFFA807088828C839B
:1006C600E309F0A3DFFA806489828A83E0A3F6084F
:1006D600DFFA805889828A83E0A3F208DFFA804C29
:1006E60080D280FA80C680D4806980F28033801000
:1006F60080A680EA809A80A880DA80E280CA803369
:1007060089828A83ECFAE493A3C8C582C8CCC583E0
:10071600CCF0A3C8C582C8CCC583CCDFE9DEE780B0
:100726000D89828A83E493A3F608DFF9ECFAA9F02F
:10073600EDFB2289828A83ECFAE0A3C8C582C8CC85
:10074600C583CCF0A3C8C582C8CCC583CCDFEADE9E
:10075600E880DB89828A83E493A3F208DFF980CC00
:1007660088F0EF60010E4E60C388F0ED2402B404F9
:100776000050B9F582EB2402B4040050AF232345A0
:0607860082239006E673D9
:10078C0075F008758200EF2FFFEE33FECD33CDCC24
:10079C0033CCC58233C5829BED9AEC99E5829840A7
:1007AC000CF582EE9BFEED9AFDEC99FC0FD5F0D684
:1007BC00E4CEFBE4CDFAE4CCF9A88222B800C1B9AE
:1007CC000059BA002DEC8BF084CFCECDFCE5F0CBEC
:1007DC00F97818EF2FFFEE33FEED33FDEC33FCEB25
:1007EC0033FB10D703994004EB99FB0FD8E5E4F9E0
:1007FC00FA227818EF2FFFEE33FEED33FDEC33FCCD
:10080C00C933C910D7059BE99A4007EC9BFCE99AC0
:10081C00F90FD8E0E4C9FAE4CCFB2275F010EF2F05
:10082C00FFEE33FEED33FDCC33CCC833C810D70705
:10083C009BEC9AE899400AED9BFDEC9AFCE899F840
:0E084C000FD5F0DAE4CDFBE4CCFAE4C8F922D3
:10004600E548243CF8E60548227839301002783C29
:10005600E475F0011208B202085A2009EB7F2ED28D
:10006600098018EF540F2490D43440D4FF300D0B80
:10007600EF24BFB41A0050032461FFE5496002155E
:1000860049054CE54C7002054B30100D7839E47586
:10009600F0011208B2EF0208A0020A607403D2103F
:1000A6008003E4C210F5488B398A3A893BE4F54966
:1000B600F54BF54CE54960077F2012008180F57508
:1000C6004AFFC20AC209C20BC20CC20EC20FC2113B
:1000D60012004FFF700D3010057F00120092AF4CDA
:1000E600AE4B22B4255FC2D5C20D12004FFF24D0FD
:1000F600B40A00501A75F00A784930D50508B6FFDB
:100106000106C6A426F620D5047002D20C80D92496
:10011600CFB41A00EF5004C2E5D20D020292D20A01
:1001260080C6D20980C0D20B80BCD2D580BAD20E8E
:1001360080B47F20120081200B077401B54900406E
:10014600F1120046FF1200810200BAD211D20F80CE
:1001560095120046FB120046FA120046F94A4B7009
:100166000679637A037BFF200B2EE549602A7E0021
:100176008E8275830012087360060EEE654A70F073
:10018600C2D5EBC0E0EAC0E0E9C0E0EE1202D9D089
:10019600E0F9D0E0FAD0E0FB12085AFF60AAEBC003
:1001A600E0EAC0E0E9C0E0120081D0E02401F9D025
:1001B600E03400FAD0E0FBE54A0460DCD54AD98099
:1001C600877BFF7A0279D5D20B809C7910800279E1
:1001D60008C20FC2118008D2D5790A8004790AC2F2
:1001E600D5E54A047002F54AE4FAFDFEFF12004620
:1001F600FC7B08200A13120046FD7B1030090A1208
:100206000046FE120046FF7B20EC3382D592D55085
:1002160013C3E43009069FFFE49EFEE4200A039D13
:10022600FDE49CFCE4CBF8C20AEC700CCFCECDCC3E
:10023600E824F8F870F38017C3EF33FFEE33FEEDD2
:1002460033FDEC33FCEB33FB994002FB0FD8E9EBB3
:10025600300A05F8D0E0C448B20AC0E00AEC4D4EB8
:100266004F78207B0070C2EAB54A0040BCC0E0125D
:1002760002DBD0F0D0E0200A04C4C0E0C4B20AC059
:10028600F012006AD0F0D5F0EB0200BA1208C201F3
:10029600575301D15801284C01244201D54F01DDA5
:0F02A6004401DD49013D4301E35501C74601C74E
:1002B5004501C747038350012C2D01302E01532BD7
:1002C500013423015120036C2A00EC480000014B46
:1002D5003F3F3F00790AA2D5200C14300E09B91012
:1002E500020404B9080104A2D5200F02500104201C
:1002F5000B68920BB549005034C0E07F20300C19D3
:100305007F30A20B720F720E500F120332C20BC256
:100315000FC20EC2117F30800F300E03E9C0E0120C
:100325000081300E03D0E0F9D0E0B549CC300E178E
:100335007F30B9100C1200817F58300D077F78800F
:1003450003B90803120081300B057F2D0200817F60
:10035500202011F87F2B200FF322920B80CF286EDF
:10036500756C6C2900D20A120046300AF8C20A7868
:100375004930D50108F60200EC2D504349581200CA
:10038500462403B405004001E490037E93120072F5
:0D039500743A120072D20C7549040201D1B5
:0A0B0D003098FDAF99C2987E0022D7
:10085A00BB010689828A83E0225002E722BBFE029C
:09086A00E32289828A83E49322CF
:10087300BB010CE58229F582E5833AF583E022503A
:1008830006E92582F8E622BBFE06E92582F8E22284
:0D089300E58229F582E5833AF583E493229E
:1008A000BB010689828A83F0225002F722BBFE0137
:0208B000F32231
:1008B200FAE6FB0808E6F925F0F618E6CA3AF62247
:1008C200D083D082F8E4937012740193700DA3A3C5
:1008D20093F8740193F5828883E4737402936860D9
:0608E200EFA3A3A380DFD9
:100A6000EFB40A07740D120A6B740A309811A89932
:100A7000B8130CC2983098FDA899C298B811F630F6
:070A800099FDC299F59922CE
:00000001FF
