:1019A60075A15575A1AA43B98053B9BF75A15575DF
:0E19B600A1AAE5B954F84405F5B9E4F5A1225B
:1019C400EF4E601505A105A105A105A105A105A17D
:0A19D40005A1EF1F70EA1E80E72254
:1019DE00AD07AC06ED4C600E7FE87E031219C4ED28
:0719EE001D70F11C80EE22C8
:0A1A3F0043C40C43C50C43AA102257
:1017E800C29FD29EC29DC2CDC2CC438780E4752AD7
:1017F80082F529F528F5277B0AFAF9F8AF2AAE29E8
:10180800AD28AC27120650AF038F2BAF2AAE29ADF7
:1018180028AC27E47B0AFAF9F81206508F2A8E2999
:101828008D288C27E52BC394054011EF2401F52A58
:10183800E43EF529E43DF528E43CF527E589540F15
:101848004420F58943C9A0E52AF404F58DD28ED247
:0318580099D29C86
:01185B00226A
:0A1A490075A15575A1AA43B1102242
:1019F50075A15575A1AAEF600543B101800353B1E7
:071A0500FEE4F5A1F5FF224C
:031A53008FFF22E0
:1017640050442053696E6B207374617274202E2E62
:101774002E0A0063633A25642C636F6E6E6563748E
:1017840065643A25640A00646973636F6E6E656309
:101794007465643A25640A004D6174636865642065
:1017A400566F6C743A2025646D560A004E6F204DB6
:1017B40061746368656420566F6C742E0A0041631B
:1017C400636570740A0052656164790A0052656A3F
:1017D4006563740A004D7367547970653A20253047
:0417E40032780A004D
:0418E8004100B90002
:1012CF001219A67F147E001219DE1217E87BFF7A1F
:1012DF0017796412086A121A0C12191F75253975BD
:1012EF0026D012159E8F23E523F460259000B9E0D8
:1012FF00703B7BFF7A177977900023E0753000F50C
:10130F00317532008F3312086A9000B97401F08082
:10131F001C9000B9E060167BFF7A17798B7530004F
:10132F0085233112086AE49000B9F0C2919000B998
:10133F00E060AF900023E0FF120F1E8F23E52370B4
:10134F00EC121A338F24E52424FD603D14604F24E2
:10135F00FE603E24057052AF26AE251216DB8F229B
:10136F00E522F47BFF601C7A17799C852530852652
:10137F003112086AAF221211C4900023E0FF120B42
:10138F006480AA7A1779B0801B7BFF7A1779C280A5
:10139F00137BFF7A1779CA12086AC291808F7BFF7D
:1013AF007A1779D112086A80847BFF7A1779D975F9
:0B13BF00300085243112086A02133C44
:1000030053656E6420616761696E0A0053656E64AF
:10001300204661696C65640A004E6F742041636B0E
:100023000A0041434B204572720A0052657620450F
:1000330072720D0A0025640A00253032782C2530AF
:1000430032782C253032782C253032780A001E097C
:1000530014150A0B0E0F121316171A1B1C1DFFFF84
:10006300FFFFFF02FF0EFF08040CFF0A0600FFFF5D
:1000730001FFFF03FF0FFF09050DFF0B07FF000043
:10008300000077073096EE0E612C990951BA076D7F
:10009300C419706AF48FE963A5359E6495A30EDBDA
:1000A300883279DCB8A4E0D5E91E97D2D98809B69D
:1000B3004C2B7EB17CBDE7B82D0790BF1D911DB7BA
:1000C30010646AB020F2F3B9714884BE41DE1ADAD3
:1000D300D47D6DDDE4EBF4D4B55183D385C7136CC4
:1000E3009856646BA8C0FD62F97A8A65C9EC14015D
:1000F3005C4F63066CD9FA0F3D638D080DF53B6EBB
:1001030020C84C69105ED56041E4A26771723C035C
:10011300E4D14B04D447D20D85FDA50AB56B35B5A3
:10012300A8FA42B2986CDBBBC9D6ACBCF94032D852
:100133006CE345DF5C75DCD60DCFABD13D5926D9D9
:1001430030AC51DE003AC8D75180BFD0611621B41C
:10015300F4B556B3C423CFBA9599B8BDA50F2802F9
:10016300B89E5F058808C60CD9B2B10BE9242F6F7E
:100173007C8758684C11C1611DABB6662D3D76DC9A
:10018300419001DB710698D220BCEFD5102A71B1E2
:10019300858906B6B51F9FBFE4A5E8B8D4337807B1
:1001A300C9A20F00F9349609A88EE10E98187F6A48
:1001B3000DBB086D3D2D91646C97E6635C016B6B21
:1001C30051F41C6C6162856530D8F262004E6C0696
:1001D30095ED1B01A57B8208F4C1F50FC45765B0EB
:1001E300D9C612B7E9508BBEB8EAFCB9887C62DD88
:1001F3001DDF15DA2D498CD37CF3FBD44C654DB24E
:1002030061583AB551CEA3BC0074D4BB30E24ADF87
:10021300A5413DD895D7A4D1C46DD3D6F4FB43698A
:10022300E96A346ED9FCAD678846DA60B8D0440415
:100233002D7333031DE5AA0A4C5FDD0D7CC9500500
:10024300713C270241AABE0B1010C90C20865768C7
:10025300B525206F85B3B966D409CE61E49F5EDE10
:10026300F90E29D9C998B0D09822C7D7A8B459B3E1
:100273003D172EB40D81B7BD5C3BC0BA6CADEDB874
:1002830083209ABFB3B603B6E20C74B1D29AEAD50F
:1002930047399DD277AF04DB261573DC1683E363FE
:1002A3000B1294643B840D6D6A3E7A6A5AA8E40E7D
:1002B300CF0B9309FF9D0A00AE277D079EB1F00F78
:1002C30093448708A3D21E01F2686906C2FEF7624F
:1002D300575D806567CB196C36716E6B06E7FED48C
:1002E3001B7689D32BE010DA7A5A67DD4ACCF9B949
:1002F300DF6F8EBEEFF917B7BE4360B08ED5D6D68B
:10030300A3E8A1D1937E38D8C2C44FDFF252D1BB48
:1003130067F1A6BC57673FB506DD48B2364BD80D2B
:100323002BDAAF0A1B4C36034AF641047A60DF60CE
:10033300EFC3A867DF55316E8EEF4669BE79CB6197
:10034300B38CBC66831A256FD2A05268E236CC0CFC
:100353007795BB0B4703220216B95505262FC5BA5D
:100363003BBEB2BD0B282BB45A925CB36A04C2D70E
:10037300FFA7B5D0CF312CD99E8B5BDEAE1D9B641E
:10038300C2B0EC63F226756AA39C026D930A9C09C2
:1003930006A9EB0E363F720767850500571395BF15
:1003A3004A82E2B87A147BB12BAE0CB61B3892D2D8
:1003B3008E9BE5D5BE0D7CDCEFB70BDBDF2186D34F
:1003C300D2D4F1D4E24268DDB3F81FDA836E81BE82
:1003D30016CDF6B9265B6FB077E118B74777880873
:1003E3005AE6FF0F6A7066063BCA11010B5C8F6504
:1003F3009EFFF862AE69616BFFD3166CCF45A00A0E
:10040300E278D70DD2EE4E0483543903B3C2A76703
:100413002661D06016F74969474D3E6E77DBAED152
:100423006A4AD9D65ADC40DF0B6637D83BF0A9BC01
:10043300AE53DEBB9EC547B2CF7F30B5FFE9BDBD2E
:10044300F21CCABAC28A53B3933024B4A3A6BAD057
:100453003605CDD7069354DE572923D967BFB36634
:100463007A2EC4614AB85D681B022A6F2B94B40BC1
:0E047300BE37C30C8EA15A05DF1B2D02EF8D84
:1018EC0041002300410027004100AE0041002500CB
:1018FC00410024004100AD004A00AF138823283A70
:10190C00984E2061A84A00000BB8070805DC04B00B
:02191C0003E8DE
:101A0C0043C990E58954F04402F589758C96758A22
:061A1C0096C2A9C28C2253
:10191F005392CF5393CFD2915392FD43930243915E
:10192F00449000237401F043918043F33C53F3FC44
:10193F0075F2207F027E001219C453920243930264
:03194F00C2912220
:10159E009000237401F075F60475F210E5F230E553
:1015AE00FB75F220E5F5540FFEAFF4D3EF94CDEEBC
:1015BE009400400BEF94F4EE940150037F0122D37C
:1015CE00EF943DEE9402400BEF94B7EE940350036C
:1015DE007F0222D3EF9431EE9404400BEF9487EE0A
:1015EE00940650037F03229000237402F075F605D3
:1015FE0075F210E5F230E5FB75F220E5F5540FFEBD
:10160E00AFF4D3EF94CDEE9400400BEF94F4EE9440
:10161E000150037F0122D3EF943DEE9402400BEF75
:10162E0094B7EE940350037F0222D3EF9431EE94DD
:10163E0004400BEF9487EE940650037F03227FFF46
:01164E002279
:10185C00751000751129851182851083E4F0A3F0B1
:10186C00851182851083A3E0543F4440F08511829A
:10187C00851083A3E054DFF0851182851083E0543A
:10188C00FEF09000ADE0540725E0FF851182851035
:07189C0083E054F14FF0223C
:1014C40090001E120711FFFFFFFFE4F52D90002688
:1014D400E0FFE52DC39F4003021580E52DC3940270
:1014E4005019E52D70047F0180027F0074292FF5C7
:1014F40082E43400F583E0F52E802BE52D24FEFFF5
:10150400E434FFFE7C007D041205DEE52D24FEFF9D
:10151400EF54FCC39DFFE49CFE742E2FF5827400EF
:101524003EF583E0F52E90001EE0F8A3E0F9A3E079
:10153400FAA3E0652EFFEAFEE9FDE8FC9000817560
:10154400F004EF120742E425E025E02583F5831239
:1015540006F5E8C0E090001EA3A3A3E0FF780812FC
:1015640006E2D0E0F8EB6FFFEA6EFEE96DFDE86C91
:10157400FC90001E120705052D0214D190001EE0F8
:10158400FCA3E0FDA3E0FEA3E0F4FFEEF4FEEDF423
:0A159400FDECF4FC90001E020705B8
:10108E00EF64016008EF640260030211C3C28CC2F8
:10109E008D758C96758A96D200752E3F752F01A28E
:1010AE00AFE433F530C2AFEF6401600302113AD200
:1010BE008CC2945392EF439310308DFDB294C28D37
:1010CE00E58AC394C440F9300002B294B200D52E22
:1010DE00E8308DFDB294C28D7429252EF582E4344C
:1010EE0000F583E0552FF52DE52F25E0F52FE58A48
:1010FE00C394C440F9E52D6002B294E52FB42005E7
:10110E00752F01052E900026E0652E70C4308DFDE2
:10111E00C28DB2947F027E001219C4D2947F017EDA
:10112E00001219C45392EF5393EF8079D28CC2956B
:10113E005392DF439320308DFDB295C28DE58AC365
:10114E0094C440F9300002B295B200D52EE8308D2D
:10115E00FDB295C28D7429252EF582E43400F583F7
:10116E00E0552FF52DE58AC394C440F9E52D6002B4
:10117E00B295E52F25E0F52FB42005752F01052E2C
:10118E00900026E0652E70C6308DFDC28DB2957F23
:10119E00027E001219C4D2957F017E001219C4532B
:1011AE0092DF5393DFC28CC28DE53024FF92AF9055
:0511BE0000257401F0A2
:0111C3002209
:1013CA00E4F52D752E03752F01FE7F41FD7B017A11
:1013DA0000796A12074EE4F58AF58CC28DD28C9098
:1013EA000028F0A2AF33FDC2AFE4F58A75F240E5FA
:1013FA00F230E6FBE58AD3945640EEE4F58A75F2BC
:10140A0040E5F230E6FB75F240E4F58AE5F230E6B3
:10141A0042E4F58A75F24090006AE025E0F0E025A2
:10142A002DF0E0FE64546004EEB4560AEE540390C4
:10143A00006AF0E4F52FE58AC3943240F9E5F23008
:10144A00E60875F240752D018003E4F52DE52F704D
:10145A00BB8009308DB6C28CC28D8058E5F230E669
:10146A004CE4F58A75F240900028E0FF246AF58280
:10147A00E43400F583E0FE25E0F0746A2FF582E497
:10148A003400F583E0252DF0D52E09752E05900040
:10149A0028E004F0E58AC3943240F9E5F230E60820
:1014AA0075F240752D0180B4E4F52D80AF308DAC16
:0914BA00C28DC28CED24FF92AF3B
:0114C3002206
:020B64008F2BD5
:100B6600851182851083E0C45407FF25E025E02423
:100B760002900026F01214C4790490001EA3A3A3C9
:100B8600E0FF900026E0292428F582E43400F5836E
:100B9600EFF090001EE0FCA3E0FDA3E0FEA3E0FF63
:100BA60078081206E290001E120705D9CD9000269D
:100BB600E02404F0E0F9E9D394034066E4F52CE57B
:100BC6002C292425F582E43400F583E0C4540F90E3
:100BD600005193FDE52C75F002A4FBAAF0E975F02F
:100BE60002A4C39BFFE5F09AFE742C2FF5827400D5
:100BF6003EF583EDF0E52C292425F582E43400F555
:100C060083E0540F90005193FD742B2FF5827400EE
:100C16003EF583EDF0052CE52CB404A374FC29F90C
:100C26008094900026E025E02405F0E02428F58253
:100C3600E43400F583740DF0900029E0C4540F905D
:100C4600005193900030F0900029E0540F9000512D
:100C56009390002FF090002AE0C4540F9000519317
:100C660090002EF090002AE0540F900051939000CF
:100C76002DF090002C7411F09000297418F0A3F058
:100C8600A3F09000227403F0AF2B12108E90002573
:100C9600E070037F0122E4900025F0900024E060DC
:100CA60003020DA39000ADE0D394064004E4F08067
:100CB600069000ADE004F0E52B2403F5F6E4900081
:100CC600ABF0A3F075F240E5F220E6487F017E0026
:100CD6001219C49000ACE004F070069000ABE0047A
:100CE600F0D39000ACE094C89000ABE0940040D7FD
:100CF600900022E0601514F07F027E001219DE7B60
:100D0600FF7A00790312086A020C8E7BFF7A00795B
:100D16000F020D9D1213CA90006AE064037072A35D
:100D2600E06403706CA3E064037066A3E064117072
:100D360060900028E02469F582E43400F583E064DD
:100D460016704E900071E090006193C454F0FF90CD
:100D56000070E0900061932F90006AF090006FE0C1
:100D660090006193C454F0FF90006EE09000619390
:100D76002F90006BF075100075116A851182851031
:100D860083A3E0541F640160147BFF7A00791C8002
:100D9600067BFF7A00792512086A7F0122E490001B
:030DA60024F0FF37
:010DA9002227
:020F1E008F271B
:100F2000E5272403F5F6E49000ABF0A3F075F2405A
:100F3000E5F220E6209000ACE004F070069000ABF3
:100F4000E004F0D39000ACE094649000ABE0940037
:100F500040DE7F01221213CA90006AE0640360033E
:100F600002107FA3E06403600302107FA3E0640328
:100F7000600302107FA3E06411600302107F900001
:100F800028E02469F582E43400F583E06416600308
:100F900002107F900071E090006193C454F0FF90C4
:100FA0000070E0900061932F90006AF090006FE075
:100FB00090006193C454F0FF90006EE09000619344
:100FC0002F90006BF075100075116A8511828510E5
:100FD00083E0FFC31354079000AEF012185C90003A
:100FE000AEE0540725E0FF851182851083E054F1BF
:100FF0004FF0A3E054E04401F09000247401F0AFFE
:1010000027120B6475100075116AE4F5287529081C
:10101000900028E0FFE529C39F50590528E4F9E92D
:1010200025E02529F52A246BF582E43400F583E0D8
:1010300090006193C454F0FF746A252AF582E43469
:1010400000F583E0900061932FFDE52875F004A47E
:10105000FFE9FBC3EF9BFFE5F09400FE746B2FF5F7
:101060008274003EF583EDF009B904B374082529B4
:10107000F529809C900028E024F3C313F0800C7BBA
:0D108000FF7A00792E12086A020F207F000F
:01108D002240
:1016DB007BFFE4F527F5288E298F2A85118285104B
:1016EB0083E0FFC45407F9E4FAEA696068EA75F02D
:1016FB0004A4246CF582740035F0AF82F50E8F0FC5
:10170B00F5837E00A3E0540F7806C333CE33CED8D7
:10171B00F9FDCCEECC850F82850E83A3A3E01313CA
:10172B00543F7E00543F2DFFEE3C8F82F5837C00AF
:10173B007D32FE120577D3EF952AEE95295013E5EE
:10174B00829528E58395274009858327858228CBB9
:08175B00EACB0A8094CFEBCF2A
:011763002263
:1011C4008F27EF75F004A4246CF582740035F0AF1A
:1011D40082F50E8F0F12185C851182851083E054FE
:1011E4008F4410F0A3E054E04402F0E52704C45413
:1011F400F0FDE527FB75F004A4FFAEF0246CF58246
:1012040074003EF583EDF0746D2FF58274003EF5A5
:1012140083E0540FF0EB75F004A4FFAEF0246DF5F9
:101224008274003EF583E054F0F0746E2FF58274FE
:10123400003EF583E05403F0E52775F004A4FFAE07
:10124400F0246EF58274003EF583C083C082E0FD15
:10125400746F2FF58274003EF583E0543F25E0253A
:10126400E0FFED4FD082D083F0E52775F004A4FFB2
:10127400AEF0246DF58274003EF583C083C082E035
:10128400FD746E2FF58274003EF583E0540325E06F
:1012940025E0FCE52775F004A4FFAEF0246FF58289
:1012A40074003EF583E0C4131354032CFCED4CD0BE
:1012B40082D083F0746C2FF974003EFA7B01782B92
:0B12C4007C007D017E007F04020551CC
:0C1A3300851182851083A3E0541FFF2260
:101952005392CF5393CFD2915392FD43930253921A
:10196200F743930843910343913043918043F33CFF
:0D19720053F3FC75F2207F027E000219C4C1
:1018A30075F60475F210E5F230E5FB75F220E5F507
:1018B300540FFEAFF475F60575F210E5F230E5FB53
:1018C30075F220E5F5540FFCADF4D3EF9487EE9455
:1018D3000650037F0122D3ED9487EC940650037FD7
:0418E30002227F005E
:0118E70022DE
:100DAA00750805E508640560037FFF22E508540716
:100DBA00C454F0FF851182851083E0548F4FF0A34D
:100DCA00E054E04401F0E4F50DE50DC39508400355
:100DDA00020E99E50D25E024AFF582E43400F5838F
:100DEA00E0FEA3E0FF7C007D321205898E098F0A9E
:100DFA00E50D25E02400F582E43400F583E0FEA346
:100E0A00E0FF7C007D0A1205898E0B8F0CE50D70C0
:100E1A0014E50D25E025E0240AF582E43400F58383
:100E2A007408F08011E50D25E025E0240AF582E436
:100E3A003400F583E4F0E50AAE097806CEC313CE92
:100E4A0013D8F9540FFFE50D25E025E0240BF582B0
:100E5A00E43400F583EFF0E50B5403FFAE0AEE2508
:100E6A00E025E054FC2FFFE50D25E025E0240CF5F4
:100E7A0082E43400F583EFF0E50D25E025E0240D4A
:100E8A00F582E43400F583E50CF0050D020DD3E597
:100E9A000875F004A4FFAEF0782B7C007D017B017D
:100EAA007A00790A1205517BFF7A00793875300089
:100EBA0085083112086AE4F50DE50DC3950850510D
:100ECA007BFF7A00793C740A250DF582E43400F53B
:100EDA0083E0753000F531740B250DF582E434009A
:100EEA00F583E0753200F533740C250DF582E43490
:100EFA0000F583E0753400F535740D250DF582E4AF
:100F0A003400F583E0753600F53712086A050D805E
:030F1A00A8AF0875
:010F1D0022B1
:101A2200EF541FFF851182851083A3E054E04FF02D
:011A32002291
:0300000002164F96
:0C164F00787FE4F6D8FD75814002169605
:10048100E709F608DFFA8046E709F208DFFA803E5D
:1004910088828C83E709F0A3DFFA8032E309F6084A
:1004A100DFFA8078E309F208DFFA807088828C83B2
:1004B100E309F0A3DFFA806489828A83E0A3F60866
:1004C100DFFA805889828A83E0A3F208DFFA804C40
:1004D10080D280FA80C680D4806980F28033801017
:1004E10080A680EA809A80A880DA80E280CA803380
:1004F10089828A83ECFAE493A3C8C582C8CCC583F8
:10050100CCF0A3C8C582C8CCC583CCDFE9DEE780C7
:100511000D89828A83E493A3F608DFF9ECFAA9F046
:10052100EDFB2289828A83ECFAE0A3C8C582C8CC9C
:10053100C583CCF0A3C8C582C8CCC583CCDFEADEB5
:10054100E880DB89828A83E493A3F208DFF980CC17
:1005510088F0EF60010E4E60C388F0ED2402B40410
:100561000050B9F582EB2402B4040050AF232345B7
:0605710082239004D17307
:10057700EF8DF0A4A8F0CF8CF0A428CE8DF0A42E98
:02058700FE2252
:10058900BC000BBE0029EF8DF084FFADF022E4CC56
:10059900F875F008EF2FFFEE33FEEC33FCEE9DEC1F
:1005A900984005FCEE9DFE0FD5F0E9E4CEFD22ED65
:1005B900F8F5F0EE8420D21CFEADF075F008EF2FAF
:1005C900FFED33FD4007985006D5F0F222C398FDA0
:0505D9000FD5F0EA223D
:1005DE00C2D5EC30E709B2D5E4C39DFDE49CFCEE38
:1005EE0030E715B2D5E4C39FFFE49EFE120589C322
:1005FE00E49DFDE49CFC800312058930D507C3E41D
:06060E009FFFE49EFE22A6
:1006140075F008758200EF2FFFEE33FECD33CDCC9D
:1006240033CCC58233C5829BED9AEC99E582984020
:100634000CF582EE9BFEED9AFDEC99FC0FD5F0D6FD
:10064400E4CEFBE4CDFAE4CCF9A88222B800C1B927
:100654000059BA002DEC8BF084CFCECDFCE5F0CB65
:10066400F97818EF2FFFEE33FEED33FDEC33FCEB9E
:1006740033FB10D703994004EB99FB0FD8E5E4F959
:10068400FA227818EF2FFFEE33FEED33FDEC33FC46
:10069400C933C910D7059BE99A4007EC9BFCE99A3A
:1006A400F90FD8E0E4C9FAE4CCFB2275F010EF2F7F
:1006B400FFEE33FEED33FDCC33CCC833C810D7077F
:1006C4009BEC9AE899400AED9BFDEC9AFCE899F8BA
:0E06D4000FD5F0DAE4CDFBE4CCFAE4C8F9224D
:1006E200E8600FECC313FCED13FDEE13FEEF13FFF6
:0306F200D8F1221A
:1006F500E493F8740193F9740293FA740393FB225B
:0C070500ECF0A3EDF0A3EEF0A3EFF02267
:10071100A8828583F0D083D082120728120728127D
:100721000728120728E473E493A3C583C5F0C583A2
:10073100C8C582C8F0A3C583C5F0C583C8C582C832
:010741002295
:0C074200A42582F582E5F03583F58322C2
:10080800E53C2430F8E6053C22782D3007027830A4
:10081800E475F0011207D202077A2000EB7F2ED28E
:10082800008018EF540F2490D43440D4FF30040BC8
:10083800EF24BFB41A0050032461FFE53D600215A0
:100848003D0540E5407002053F30070D782DE47501
:10085800F0011207D2EF0207C002197F7403D20712
:100868008003E4C207F53C8B2D8A2E892FE4F53DE1
:10087800F53FF540E53D60077F2012084380F57598
:100888003EFFC201C200C202C203C205C206C208BC
:10089800120811FF700D3007057F00120854AF4091
:1008A800AE3F22B4255FC2D5C204120811FF24D07E
:1008B800B40A00501A75F00A783D30D50508B6FF1D
:1008C8000106C6A426F620D5047002D20380D924D6
:1008D800CFB41A00EF5004C2E5D204020A54D20180
:1008E80080C6D20080C0D20280BCD2D580BAD205E0
:1008F80080B47F201208432002077401B53D0040F0
:10090800F1120808FF12084302087CD208D20680B8
:1009180095120808FB120808FA120808F94A4B70E1
:100928000679257A0B7BFF20022EE53D602A7E00A2
:100938008E8275830012079360060EEE653E70F096
:10094800C2D5EBC0E0EAC0E0E9C0E0EE120A9BD0F5
:10095800E0F9D0E0FAD0E0FB12077AFF60AAEBC01A
:10096800E0EAC0E0E9C0E0120843D0E02401F9D091
:10097800E03400FAD0E0FBE53E0460DCD53ED980E7
:10098800877BFF7A0A7997D202809C791080027956
:1009980008C206C2088008D2D5790A8004790AC23A
:1009A800D5E53E047002F53EE4FAFDFEFF120808A4
:1009B800FC7B08200113120808FD7B1030000A1286
:1009C8000808FE120808FF7B20EC3382D592D55028
:1009D80013C3E43000069FFFE49EFEE42001039D5C
:1009E800FDE49CFCE4CBF8C201EC700CCFCECDCC7E
:1009F800E824F8F870F38017C3EF33FFEE33FEED09
:100A080033FDEC33FCEB33FB994002FB0FD8E9EBE9
:100A1800300105F8D0E0C448B201C0E00AEC4D4E00
:100A28004F78207B0070C2EAB53E0040BCC0E0129F
:100A38000A9DD0F0D0E0200104C4C0E0C4B201C0D7
:100A4800F012082CD0F0D5F0EB02087C1207E2096E
:100A5800195309935808EA4C08E64209974F099F29
:0F0A680044099F4908FF4309A555098946098993
:100A7700450989470B455008EE2D08F22E09152B1D
:100A870008F6230913200B2E2A08AE480000090D8B
:100A97003F3F3F00790AA2D5200314300509B9105A
:100AA700020404B9080104A2D5200602500104205B
:100AB70002689202B53D005034C0E07F2030031930
:100AC7007F30A20272067205500F120AF4C202C2E8
:100AD70006C205C2087F30800F300503E9C0E01267
:100AE7000843300503D0E0F9D0E0B53DCC30051719
:100AF7007F30B9100C1208437F583004077F788085
:100B070003B908031208433002057F2D0208437F0B
:100B1700202008F87F2B2006F322920280CF286E30
:100B2700756C6C2900D2011208083001F8C20178EF
:100B37003D30D50108F60208AE2D5043495812083A
:100B4700082403B405004001E4900B4093120834D5
:0D0B5700743A120834D203753D040209936C
:10074E00EF4E6012EF60010EEDBB010B89828A83C2
:10075E00F0A3DFFCDEFA2289F05007F709DFFCA9CF
:0C076E00F022BBFEFCF309DFFCA9F02226
:10165B000212CFE493A3F8E493A34003F68001F2C4
:10166B0008DFF48029E493A3F85407240CC8C33390
:10167B00C4540F4420C8834004F456800146F6DF5F
:10168B00E4800B01020408102040809018E8E47EEF
:10169B00019360BCA3FF543F30E509541FFEE49354
:1016AB00A360010ECF54C025E060A840B8E493A31B
:1016BB00FAE493A3F8E493A3C8C582C8CAC583CA46
:1016CB00F0A3C8C582C8CAC583CADFE9DEE780BEFE
:01191E0000C8
:10077A00BB010689828A83E0225002E722BBFE027D
:09078A00E32289828A83E49322B0
:10079300BB010CE58229F582E5833AF583E022501B
:1007A30006E92582F8E622BBFE06E92582F8E22265
:0D07B300E58229F582E5833AF583E493227F
:1007C000BB010689828A83F0225002F722BBFE0118
:0207D000F32212
:1007D200FAE6FB0808E6F925F0F618E6CA3AF62228
:1007E200D083D082F8E4937012740193700DA3A3A6
:1007F20093F8740193F5828883E4737402936860BA
:06080200EFA3A3A380DFB9
:10197F00EFB40A07740D12198A740A309811A899D6
:10198F00B8130CC2983098FDA899C298B811F630C8
:07199F0099FDC299F59922A0
:00000001FF
