:10082D0075A15575A1AA43B98053B9BF75A1557569
:0E083D00A1AAE5B954F84405F5B9E4F5A122E5
:10084B00EF4E601505A105A105A105A105A105A107
:0A085B0005A1EF1F70EA1E80E722DE
:10004A00AD07AC06ED4C600E7FE87E0312084BED5F
:07005A001D70F11C80EE2275
:0A08910043C40C43C50C43AA102217
:1005AA00C29FD29EC29DC2CDC2CC438780E47564ED
:1005BA0082F563F562F5617B0AFAF9F8AF64AE6316
:1005CA00AD62AC611203FEAF038F65AF64AE63AD7B
:1005DA0062AC61E47B0AFAF9F81203FE8F648E6357
:1005EA008D628C61E565C394054011EF2401F564C1
:1005FA00E43EF563E43DF562E43CF561E589540FB8
:10060A004420F58943C9A0E564F404F58DD28ED25D
:03061A0099D29CD6
:01061D0022BA
:0A089B0075A15575A1AA43B1102202
:1008650075A15575A1AAEF600543B101800353B188
:07087500FEE4F5A1F5FF22EE
:0308A5008FFF22A0
:100016005030332046616C6C696E670A005031358A
:100026002046616C6C696E670A0050333220466167
:100036006C6C696E670A005033332046616C6C69DC
:040046006E670A00D7
:05051E008F61C9EDC969
:10052300E56114601314601614601914601C24042C
:10053300701CACC4AEC58016AC92AE938010AC9464
:10054300AE95800AAC96AE978004ACC2AEC3EB14F2
:10055300601114601414601C24037020E9F4CC5C53
:10056300CC800CE9F4CC5C800EE9CC4CCCE9F4CE25
:100573005ECE8008E9CC4CCCE9CE4ECEE56114606A
:1005830012146014146016146018240470188CC4B8
:100593008EC5228C928E93228C948E95228C968E6D
:0605A30097228CC28EC3FA
:0105A900222F
:10061E00ED64017016EF547F600343B280EF30E754
:10062E0002D288EE30E018D28A8014EF547F600335
:10063E0053B27FEF30E702D288EE30E002D28AEB7F
:10064E006401701CEF547F42B2EF30E702D2A8EE85
:10065E0030E002D2AAE5B2547F6002D2EED2AF22CF
:10066E00EF547FF452B2EF30E702C2A8EE30E00250
:0B067E00C2AAE5B2547F7002C2EE2257
:0300630002068909
:10068900C0E0C0F0C083C082C0D0E8C0E0E9C0E0EB
:10069900EAC0E0EBC0E0ECC0E0EDC0E0EEC0E0EFA6
:1006A900C0E02083107F0A7E0012004A7BFF7A0097
:1006B90079161200C82095107F0A7E0012004A7B25
:1006C900FF7A0079231200C8D0E0FFD0E0FED0E025
:1006D900FDD0E0FCD0E0FBD0E0FAD0E0F9D0E0F8C2
:0B06E900D0D0D082D083D0F0D0E0321F
:0300030002075C95
:10075C00C0E0C0F0C083C082C0D0E8C0E0E9C0E017
:10076C00EAC0E0EBC0E0ECC0E0EDC0E0EEC0E0EFD2
:10077C00C0E07F0A7E0012004A7BFF7A00793012BB
:10078C0000C8D0E0FFD0E0FED0E0FDD0E0FCD0E02F
:10079C00FBD0E0FAD0E0F9D0E0F8D0D0D082D08312
:0507AC00D0F0D0E032A6
:030013000207B130
:1007B100C0E0C0F0C083C082C0D0E8C0E0E9C0E0C2
:1007C100EAC0E0EBC0E0ECC0E0EDC0E0EEC0E0EF7D
:1007D100C0E07F0A7E0012004A7BFF7A00793D1259
:1007E10000C8D0E0FFD0E0FED0E0FDD0E0FCD0E0DA
:1007F100FBD0E0FAD0E0F9D0E0F8D0D0D082D083BD
:05080100D0F0D0E03250
:10087C004750494F2064656D6F207374617274200A
:05088C002E2E2E0A00D3
:1006F40012082D7F147E0012004A1205AA7BFF7A8D
:1007040008797C1200C87B037D017F0112051E7BE2
:10071400017D107F0112051E7B037D08E4FF120595
:100724001E7B037D207F0112051E7B037D047F0356
:1007340012051E7B037D087F0312051E7B017D01CC
:100744007FA87E0112061EB2A2B2A3B2A4B2A57FF4
:08075400647E0012004A80EFF0
:03000000020006F5
:0C000600787FE4F6D8FD7581740206F4E2
:1003C20075F008758200EF2FFFEE33FECD33CDCCF2
:1003D20033CCC58233C5829BED9AEC99E582984075
:1003E2000CF582EE9BFEED9AFDEC99FC0FD5F0D652
:1003F200E4CEFBE4CDFAE4CCF9A88222B800C1B97C
:100402000059BA002DEC8BF084CFCECDFCE5F0CBB9
:10041200F97818EF2FFFEE33FEED33FDEC33FCEBF2
:1004220033FB10D703994004EB99FB0FD8E5E4F9AD
:10043200FA227818EF2FFFEE33FEED33FDEC33FC9A
:10044200C933C910D7059BE99A4007EC9BFCE99A8E
:10045200F90FD8E0E4C9FAE4CCFB2275F010EF2FD3
:10046200FFEE33FEED33FDCC33CCC833C810D707D3
:100472009BEC9AE899400AED9BFDEC9AFCE899F80E
:0E0482000FD5F0DAE4CDFBE4CCFAE4C8F922A1
:10006600E5702464F8E6057022786130220278642F
:10007600E475F0011204E8020490201BEB7F2ED2F7
:100086001B8018EF540F2490D43440D4FF301F0B3C
:10009600EF24BFB41A0050032461FFE57160021516
:1000A600710574E5747002057330220D7861E4758C
:1000B600F0011204E8EF0204D60208067403D22205
:1000C6008003E4C222F5708B618A628963E4F5716C
:1000D600F573F574E57160077F201200A180F57550
:1000E60072FFC21CC21BC21DC21EC220C221C22375
:1000F60012006FFF700D3022057F001200B2AF7440
:10010600AE7322B4255FC2D5C21F12006FFF24D082
:10011600B40A00501A75F00A787130D50508B6FF92
:100126000106C6A426F620D5047002D21E80D92464
:10013600CFB41A00EF5004C2E5D21F0202B2D21C9D
:1001460080C6D21B80C0D21D80BCD2D580BAD22038
:1001560080B47F201200A1201D077401B5710040F4
:10016600F1120066FF1200A10200DAD223D221802A
:1001760095120066FB120066FA120066F94A4B7089
:100186000679837A037BFF201D2EE571602A7E00A7
:100196008E827583001204A960060EEE657270F0F9
:1001A600C2D5EBC0E0EAC0E0E9C0E0EE1202F9D049
:1001B600E0F9D0E0FAD0E0FB120490FF60AAEBC0B1
:1001C600E0EAC0E0E9C0E01200A1D0E02401F9D0E5
:1001D600E03400FAD0E0FBE5720460DCD572D98029
:1001E600877BFF7A0279F5D21D809C79108002798F
:1001F60008C221C2238008D2D5790A8004790AC2AE
:10020600D5E572047002F572E4FAFDFEFF1200668F
:10021600FC7B08201C13120066FD7B10301B0A12A3
:100226000066FE120066FF7B20EC3382D592D55025
:1002360013C3E4301B069FFFE49EFEE4201C039DCF
:10024600FDE49CFCE4CBF8C21CEC700CCFCECDCC0C
:10025600E824F8F870F38017C3EF33FFEE33FEEDB2
:1002660033FDEC33FCEB33FB994002FB0FD8E9EB93
:10027600301C05F8D0E0C448B21CC0E00AEC4D4E74
:100286004F78207B0070C2EAB5720040BCC0E01215
:1002960002FBD0F0D0E0201C04C4C0E0C4B21CC0F5
:1002A600F012008AD0F0D5F0EB0200DA1204F80161
:1002B600775301F15801484C01444201F54F01FDC5
:0F02C6004401FD49015D4302035501E74601E78D
:1002D5004501E74703A350014C2D01502E01732B17
:1002E500015423017120038C2A010C480000016B85
:1002F5003F3F3F00790AA2D5201E14302009B910CE
:10030500020404B9080104A2D520210250010420E9
:100315001D68921DB571005034C0E07F20301E1954
:100325007F30A21D72217220500F120352C21DC2CE
:1003350021C220C2237F30800F302003E9C0E012A4
:1003450000A1302003D0E0F9D0E0B571CC30201702
:100355007F30B9100C1200A17F58301F077F7880BD
:1003650003B908031200A1301D057F2D0200A17FEE
:10037500202023F87F2B2021F322921D80CF286E89
:10038500756C6C2900D21C120066301CF8C21C78F2
:100395007130D50108F602010C2D50434958120061
:1003A500662403B405004001E490039E9312009275
:0D03B500743A120092D21E7571040201F11B
:10049000BB010689828A83E0225002E722BBFE026A
:0904A000E32289828A83E493229D
:1004A900BB010CE58229F582E5833AF583E0225008
:1004B90006E92582F8E622BBFE06E92582F8E22252
:0D04C900E58229F582E5833AF583E493226C
:1004D600BB010689828A83F0225002F722BBFE0105
:0204E600F322FF
:1004E800FAE6FB0808E6F925F0F618E6CA3AF62215
:1004F800D083D082F8E4937012740193700DA3A393
:1005080093F8740193F5828883E4737402936860A6
:06051800EFA3A3A380DFA6
:10080600EFB40A07740D120811740A309811A899EA
:10081600B8130CC2983098FDA899C298B811F63052
:0708260099FDC299F599222A
:00000001FF
